:020000040800F2
:10000000000002202D930008D7690008D969000874
:10001000DB690008DD690008DF69000800000000F6
:10002000000000000000000000000000E16900087E
:10003000E369000800000000E5690008E7690008BE
:100040008193000881930008819300088193000840
:100050008193000881930008819300088193000830
:100060008193000881930008819300088193000820
:100070008193000881930008819300088193000810
:100080008193000881930008819300088193000800
:1000900081930008819300088193000881930008F0
:1000A00081930008819300088193000881930008E0
:1000B00081930008819300088193000881930008D0
:1000C00081930008819300088193000881930008C0
:1000D00081930008819300088193000881930008B0
:1000E00081930008819300080000000081930008BC
:1000F0008193000881930008819300088193000890
:10010000819300088193000881930008819300087F
:10011000819300088193000881930008819300086F
:10012000819300088193000881930008819300085F
:10013000819300088193000881930008819300084F
:1001400000000000000000000000000000000000AF
:10015000819300088193000881930008819300082F
:10016000819300088193000881930008819300081F
:10017000819300088193000881930008000000002B
:1001800081930008819300088193000881930008FF
:1001900081930008819300088193000881930008EF
:1001A00081930008819300088193000881930008DF
:1001B00081930008819300088193000881930008CF
:1001C00081930008819300088193000881930008BF
:1001D00081930008F1690008819300088193000869
:1001E000819300088193000881930008819300089F
:1001F000819300088193000881930008819300088F
:10020000819300088193000881930008819300087E
:10021000819300088193000881930008819300086E
:10022000819300088193000881930008000000007A
:10023000819300088193000800000000819300086A
:10024000819300088193000881930008819300083E
:10025000819300088193000881930008819300082E
:10026000819300088193000881930008819300081E
:10027000819300088193000881930008000000002A
:10028000819300088193000881930008000000001A
:0802900000000000819300084A
:1002A00001F0FF01102A2BDB10F0070F08D010F827
:1002B000013B013A8B422DD010F0070F42B3F6D12B
:1002C000F0B441EA012141EA014122F007047FF044
:1002D00000070023F0E80256083C85EA010586EA9B
:1002E000010685FA47F5A3FA87F586FA47F6A5FAD7
:1002F00087F68EB9EED1F0BC01F0FF0102F00702E3
:1003000032B110F8013B013A83EA010313B1F8D18D
:100310000020704701387047002D06BF354603386E
:10032000073815F0010F07D1013015F4807F02BFA7
:10033000013015F4C03F0130F0BC0138704700BFF8
:1003400053B94AB9002908BF00281CBF4FF0FF313C
:100350004FF0FF3000F00CB8ADF1080C6DE904CEA1
:1003600009F084FFDDF804E0DDE9022304B0704702
:10037000704700BF10B5054C237833B9044B13B157
:100380000448AFF300800123237010BD5C010020FE
:100390000000000064A5000808B5034B1BB1034929
:1003A0000348AFF3008008BD00000000600100209A
:1003B00064A5000810B4064C8446BCE80F000FC4C6
:1003C0009CE8030084E803005DF8044B704700BF1D
:1003D0007801002010B5072815D8DFE800F00415D3
:1003E000263748596A7B444C0122A188206801F0D5
:1003F0008FF80122A189A06801F08AF80122A18A60
:10040000206901F085F810BD3B4C0022A1882068CE
:1004100001F07EF80122A189A06801F079F801229B
:10042000A18A206901F074F8EDE7334C0122A1881C
:10043000206801F06DF80022A189A06801F068F839
:100440000122A18A206901F063F8DCE72A4C01222D
:10045000A188206801F05CF80122A189A06801F060
:1004600057F80022A18A206901F052F8CBE7224C0C
:100470000022A188206801F04BF80022A189A06821
:1004800001F046F80122A18A206901F041F8BAE79B
:10049000194C0122A188206801F03AF80022A189B4
:1004A000A06801F035F80022A18A206901F030F837
:1004B000A9E7114C0022A188206801F029F8012247
:1004C000A189A06801F024F80022A18A206901F026
:1004D0001FF898E7084C0022A188206801F018F85E
:1004E0000022A189A06801F013F80022A18A2069E6
:1004F00001F00EF887E700BF7801002008B5012061
:10050000FFF768FF4FF4FA7000F0D6FB0220FFF708
:1005100061FF4FF4FA7000F0CFFB0320FFF75AFFA2
:100520004FF4FA7000F0C8FB0420FFF753FF4FF4BC
:10053000FA7000F0C1FB0520FFF74CFF4FF4FA7092
:1005400000F0BAFB0620FFF745FF4FF4FA7000F009
:10055000B3FB0720FFF73EFF4FF4FA7000F0ACFB4F
:100560000020FFF737FF08BD30B585B000240094A8
:1005700001940294039400F03DFC01238DF80030B7
:100580008DF8014001941F228DF8082087228DF8F4
:1005900009208DF80A408DF80B408DF80C308DF84D
:1005A0000D308DF80E408DF80F40684600F040FC8D
:1005B000042000F02DFC05B030BD00002DE9F04F07
:1005C0008DB007AD00240794089409940A940B9405
:1005D000624BD3F8E02042F01002C3F8E020D3F8D9
:1005E000E02002F010020192019AD3F8E02042F0DC
:1005F0000402C3F8E020D3F8E02002F004020292E3
:10060000029AD3F8E02042F08002C3F8E020D3F849
:10061000E02002F080020392039AD3F8E02042F037
:100620000102C3F8E020D3F8E02002F001020492B6
:10063000049AD3F8E02042F00202C3F8E020D3F895
:10064000E02002F002020592059AD3F8E02042F081
:100650000802C3F8E020D3F8E03003F00803069363
:10066000069BDFF800B122461D21584600F050FFDE
:10067000DFF8F4A022463021504600F049FF384F01
:10068000224644F24301384600F042FFDFF8DC9096
:1006900022464FF40071484600F03AFF01224FF421
:1006A0000041384600F034FFDFF8C48001224FF4E7
:1006B0004071404600F02CFF2246BA21404600F02F
:1006C00027FF1D2307930126089609940A942946BB
:1006D000584600F00DFE30230793089609940A94BB
:1006E0002946504600F004FE4CF243030793089657
:1006F00009940A942946384600F0FAFD4FF4007335
:100700000793089609940A942946484600F0F0FD9C
:100710004FF400530793089409942946484600F083
:10072000E7FD40F2BA330793089609940A942946E4
:10073000404600F0DDFD202307934FF48813089313
:1007400009942946384600F0D3FD21464FF08070C9
:1007500000F0CCFA0DB0BDE8F08F00BF00440258A5
:100760000004025800000258000802580010025805
:10077000000C025872B6FEE708B50A480A4B03603F
:10078000FF234360012282600023C3600261436152
:100790008361C361036202F0CFF800B908BDFFF7BF
:1007A000E9FF00BFAC0500200050005208B5134817
:1007B000134B03604FF480034360002383600322E4
:1007C000C260036143614FF080628261C361036272
:1007D00043628362C3624FF0804242638363C363B8
:1007E000036443648364C36403654365836505F000
:1007F000D9F800B908BDFFF7BDFF00BFA80400206D
:100800000030014008B51348134B03604FF48003D8
:100810004360002383600322C260036143614FF0A1
:1008200080628261C361036243628362C3624FF08C
:10083000804242638363C363036443648364C36429
:1008400003654365836505F0ADF800B908BDFFF7A2
:1008500091FF00BF20040020003C004008B5104874
:10086000104B03600023436083600322C260036176
:1008700043614FF080628261036243628362C362BC
:1008800043638363C363036443648364C364036532
:100890004365836505F086F800B908BDFFF76AFF78
:1008A000980300200034014008B51548154B03603B
:1008B0004FF4E133436000238360C36003610C2283
:1008C00042618361C36103624362836205F079FF21
:1008D00070B900210A4806F034F858B900210848D8
:1008E00006F054F840B9064806F00CF830B908BDD7
:1008F000FFF740FFFFF73EFFFFF73CFFFFF73AFF30
:10090000B80200200078004008B51648164B036076
:100910004FF4E133436000218160C16001610C2329
:1009200043618161C1610162416281620A4605F0F1
:100930007BFF70B900210B4806F003F858B900217D
:10094000084806F023F840B9064805F0DBFF30B947
:1009500008BDFFF70FFFFFF70DFFFFF70BFFFFF7D6
:1009600009FF00BF24020020007C004008B51448A5
:10097000144B036000238360C36003744374837467
:100980001022426101228261C2610262426282627D
:10099000C262026343638363C363036404224264E9
:1009A0008364C264036542658365C3650366436609
:1009B000826600F053FB00B908BDFFF7DBFE00BF05
:1009C000F805002000A4004008B51548154B036049
:1009D0004FF4E133436000238360C36003610C2262
:1009E00042618361C36103624362836205F0E9FE91
:1009F00070B900210A4805F0A4FF58B90021084841
:100A000005F0C4FF40B9064805F07CFF30B908BDC9
:100A1000FFF7B0FEFFF7AEFEFFF7ACFEFFF7AAFE52
:100A2000900100200010014000B589B0002305931B
:100A300006930793019302930393049314484FF092
:100A400080420260436083604FF0FF32C260036106
:100A5000836105F043F9A8B900230593079305A91D
:100A60000B4805F01BFA78B900220192012302938A
:100A70000392049201A9064805F0AAF930B909B019
:100A80005DF804FBFFF776FEFFF774FEFFF772FEDA
:100A90004C03002008B50848084B0360002343605E
:100AA00083604FF48042C2600361436104F015FF2C
:100AB00000B908BDFFF75EFE30050020007000524F
:100AC00000B59DB04C22002109A808F07DFD202230
:100AD000002101A808F078FD022001F0CDFE0023DE
:100AE0000093254BDA6A22F00102DA62DB6A03F036
:100AF00001030093214A936923F4404343F4804364
:100B00009361936903F440430093009B1B4B9B69E3
:100B100013F4005FFAD0012309934FF480330A9352
:100B200002231293139314930C221592169303210C
:100B30001791189319921A9300231B9309A801F097
:100B40004FFFA8B93F23019303230293002303938C
:100B500004930593402206924FF480620792089313
:100B6000012101A802F090FB20B91DB05DF804FB43
:100B7000FFF700FEFFF7FEFD000400580048025892
:100B800000B587B0FFF7F0FC00F056F8FFF798FFCC
:100B9000EC46DFF850E0BEE80F00ACE80F009EE83E
:100BA00003008CE803006846FFF704FCFFF706FD2E
:100BB000FFF7E2FDFFF7FAFDFFF724FEFFF74EFE19
:100BC000FFF772FEFFF7A0FEFFF7D0FEFFF7FCFE77
:100BD000FFF72AFF07F0DAF8FFF75CFFFFF78EFC5C
:100BE000FCE700BF7CA50008104B1B780BB9012067
:100BF000704710B504464FF47A70B0FBF3F30C4A1B
:100C00001068B0FBF3F000F0E1F868B90F2C01D9DF
:100C100001200AE0002221464FF0FF3000F0C2F828
:100C2000044B1C60002000E0012010BD00000020EB
:100C30000C0000200400002010B5032000F0A0F8F4
:100C400002F026FA0F498B69C3F303230E4AD35CE3
:100C500003F01F03D8408B6903F00F03D35C03F04C
:100C60001F0320FA03F3094A1360094B18600F2091
:100C7000FFF7BAFF10B10124204610BD044600F072
:100C80004DFCF9E70044025808A6000808000020BF
:100C90000C000020034B1B78034A11680B441360BF
:100CA000704700BF0000002098060020014B186824
:100CB000704700BF9806002038B50446FFF7F6FFDE
:100CC0000546B4F1FF3F02D0044B1B781C44FFF7EC
:100CD000EDFF401BA042FAD338BD00BF000000204A
:100CE000014B1868000C70470010005C034A536801
:100CF00023EA00030B435360704700BF0004005811
:100D0000002807DB00F01F02400901239340024A3C
:100D100042F82030704700BF00E100E0002804DB0B
:100D20000901C9B2044B1954704700F00F000901C2
:100D3000C9B2024B1954704700E400E014ED00E022
:100D400000B500F00700C0F1070CBCF1040F28BF8C
:100D50004FF0040C031D062B0FD9C31E4FF0FF3EAE
:100D60000EFA0CF021EA000199400EFA03FE22EA85
:100D70000E0241EA02005DF804FB0023EEE70000EA
:100D80000649CB6823F4E0631B041B0C000200F44B
:100D9000E0600343024A1A43CA60704700ED00E076
:100DA0000000FA0510B50446054BD868C0F30220D0
:100DB000FFF7C6FF01462046FFF7B0FF10BD00BF9A
:100DC00000ED00E008B5FFF79BFF08BD0138B0F16A
:100DD000807F0BD24FF0E0235861054AF02182F862
:100DE00023100020986107221A6170470120704784
:100DF00000ED00E0BFF35F8F044B5A6A22F48032AB
:100E00005A620022C3F89420704700BF00ED00E052
:100E100040F00100054BC3F894005A6A42F4803256
:100E20005A62BFF34F8FBFF36F8F704700ED00E042
:100E30004378144AC2F89830D2F8A03023F0010366
:100E4000C2F8A0304368C2F89C30017BC37A1B060D
:100E500043EA0173817A43EAC143417B43EA814318
:100E6000817B43EA4143C17B43EA0143417A43EA40
:100E70000123017A43EA410301780B43C2F8A03011
:100E8000704700BF00ED00E030B4416B0468D4F857
:100E900084306F4A134043EA8103C4F88430046805
:100EA000D4F8843023F47F03856B43EA0543C4F808
:100EB0008430836B0B440468D4F88810114041EAF5
:100EC0008301C4F888100468D4F8881021F4FE0166
:100ED000C56B41EA0541C4F88810C16B03EB4103BF
:100EE0000468D4F8A010114041EA8301C4F8A010AE
:100EF0000468D4F8A01021F4FE01056C41EA054114
:100F0000C4F8A010016C446C04FB01330468D4F8ED
:100F1000B010114041EA8301C4F8B0100468D4F85D
:100F2000B01021F4FE01856C41EA0541C4F8B0100F
:100F3000816CC46C04FB01330468D4F8AC1011401C
:100F400041EA8301C4F8AC10016D446D04FB013328
:100F50000468D4F8F010114041EA8301C4F8F0109D
:100F60000468D4F8F01021F47C11856D41EA054144
:100F7000C4F8F010816D03EB41030468D4F8C0108D
:100F80000A4042EA8303C4F8C0300268D2F8C03095
:100F900023F47C13C16D43EA0143C2F8C0300268F8
:100FA000D2F8C03023F07C53016E43EA0163C2F8EB
:100FB000C030436B274A1A449200C266836B02EB2F
:100FC00083030367C16B03EBC1034367016C446C8C
:100FD00004FB01F103EB81038367816CC46C04FBA8
:100FE00001F103EB8103C367016D446D04FB01F163
:100FF00003EB8103C0F88030816D03EBC103C0F8BF
:101000008430816EC46D01FB04FC03EB8C03C0F8DB
:101010008830046E04FB01F103EB8103C0F89030CB
:101020000D498B420DD9D0F89C3043F02003C0F815
:101030009C30032380F89830012007E0002342F819
:10104000043BD0F890309342F8D8002030BC704771
:101050000300FFFF002B0010FCD3004030B595B01B
:1010600004464C22A04901A808F029FB002C00F0FE
:10107000388123689D4A934220D094F898300BB36E
:101080002268936923F010039361FFF70FFE054672
:1010900023689A6912F0080F1AD0FFF707FE431B66
:1010A0000A2BF5D9D4F89C3043F00103C4F89C30E6
:1010B000032384F89830012015B030BD03F5807308
:1010C0006360DAE784F89930204600F039FAD7E710
:1010D0009A6942F001029A61FFF7E8FD054623682C
:1010E0009A6912F0010F0FD1FFF7E0FD401B0A28AB
:1010F000F5D9D4F89C3043F00103C4F89C300323A5
:1011000084F898300120D7E79A6942F002029A6188
:10111000237C012B40D02268936943F04003936104
:10112000637C012B3ED02268936923F48043936152
:10113000A37C012B3CD02268936943F480539361D4
:101140002268936923F44073A1680B43936122687A
:10115000936923F0A40393612268136923F01003B9
:101160001361E368012B29D0002B2CD0022B00F057
:101170009B802268936943F080039361226813691E
:1011800043F010031361E368032B1CD122689369B9
:1011900043F02003936116E02268936923F0400333
:1011A0009361BDE72268936943F480439361BFE78D
:1011B0002268936923F480539361C1E7226893699D
:1011C00043F004039361A3695A1EE369013B1B02C8
:1011D00043EA4263226A013A13436269013A216891
:1011E00043EA0243CB61A368B3F5407F62D0236E2C
:1011F00033B12268D2F8C030616E0B43C2F8C03000
:10120000E36D226ED3420DD02168D1F8C83023F0AF
:101210000703A26E14A800EB820252F84C2C134371
:10122000C1F8C830236C6BB12168D1F8BC3023F011
:101230000703626C14A800EB820252F84C2C134393
:10124000C1F8BC30A36C73B12168D1F8BC3023F075
:101250007003E26C14A800EB820252F84C2C43EAB3
:101260000213C1F8BC30236D73B12168D1F8BC30D2
:1012700023F4E063626D14A800EB820252F84C2C58
:1012800043EA0223C1F8BC302268184B9A4222D0AC
:101290000023C4F89430C4F89C30012384F89830BB
:1012A0002046FFF7F1FD07E72268936943F020032A
:1012B000936188E7A36A013BE26A013A43EA0223A9
:1012C000226B013A43EA0213626A013A216843EA57
:1012D0000243CB608BE76268936823F0030393605B
:1012E000D6E70120E8E600BF94A5000800A0004072
:1012F000F0B583B000236BE085685E000324B44042
:1013000025EA0405CC68B4402C438460456825EA8E
:101310000C054C68C4F300149C402C43446069E005
:10132000DD08083550F8254003F0070C4FEA8C0C17
:101330004FF00F0E0EFA0CFE24EA0E0E0C6904FAA2
:101340000CF444EA0E0440F825406BE0092400E068
:10135000002404FA0EF42C430CF1020C694D45F8FC
:101360002C404FF0B0442568D44325EA02064F686C
:1013700017F4801F01D042EA05064FF0B0452E60F9
:101380006D6804EA05064F6817F4001F01D042EAB1
:1013900005064FF0B0456E60D5F8845004EA0506A6
:1013A0004F6817F4003F01D042EA05064FF0B04500
:1013B000C5F88460D5F880502C404E6816F4803F04
:1013C00001D042EA05044FF0B042C2F88040013338
:1013D0000A6832FA03F400F092804FF0010C0CFA24
:1013E00003FC1CEA0202F2D04C6804F00304013C46
:1013F000012C81D94C6804F00304032C0CD0C46880
:101400005D004FF0030C0CFA05FC24EA0C0C8C6810
:10141000AC4044EA0C04C4604C6804F00304022CA1
:101420003FF47EAF04684FEA430E4FF0030C0CFA12
:101430000EFC24EA0C0C4C6804F0030404FA0EF4CD
:1014400044EA0C0404604C6814F4403FBFD02E4CB6
:10145000D4F8F45045F00205C4F8F450D4F8F44040
:1014600004F002040194019C4FEA930C0CF1020574
:10147000244C54F8255003F0030E4FEA8E0E0F242F
:1014800004FA0EF425EA0405204CA0423FF460AFB4
:1014900004F58064A04222D004F58064A04220D0EC
:1014A00004F58064A0421ED004F58064A0421CD0E4
:1014B00004F58064A0421AD004F58064A04218D0DC
:1014C00004F58064A04216D004F58064A04214D0D4
:1014D00004F58064A0423FF439AF0A2439E70124BF
:1014E00037E7022435E7032433E7042431E70524F2
:1014F0002FE706242DE707242BE7082429E703B06C
:10150000F0BD00BF0004005800440258000002581B
:101510000AB18161704709048161704782B0074B4D
:10152000D3F8F42042F00202C3F8F420D3F8F430E8
:1015300003F002030193019B02B07047004402587C
:1015400010B5B8B0044600213391349135913691ED
:101550003791C02202A808F037F822681D4B9A4242
:1015600001D038B010BD4FF400420023CDE9022372
:101570004FF080531E9302A802F01EF938BB164BA1
:10158000D3F8EC2042F48072C3F8EC20D3F8EC20BE
:1015900002F480720092009AD3F8E02042F0020236
:1015A000C3F8E020D3F8E03003F002030193019B7D
:1015B0004FF44053339302233493002335933693EF
:1015C0000923379333A90548FFF792FEC9E7FFF7D0
:1015D000D1F8D4E700A400400044025800040258A7
:1015E000F0B5BDB0044600213791389139913A9158
:1015F0003B91C02206A807F0E7FF22683E4B9A42C3
:1016000001D03DB0F0BD4FF000720023CDE90623BC
:1016100006A802F0D1F800286AD1384BD3F8D420BC
:1016200042F48042C3F8D420D3F8D42002F480429C
:101630000192019AD3F8E02042F01002C3F8E020B2
:10164000D3F8E02002F010020292029AD3F8E020D0
:1016500042F00102C3F8E020D3F8E02002F00102DA
:101660000392039AD3F8E02042F00202C3F8E0208C
:10167000D3F8E02002F002020492049AD3F8E020AA
:1016800042F00802C3F8E020D3F8E03003F008038A
:101690000593059B0423379302253895002439943C
:1016A0003A9409273B9737AE31461548FFF720FE9D
:1016B0003795389539943A943B9731461148FFF75E
:1016C00017FE40F204433793389539943A943B9788
:1016D00031460D48FFF70CFE4FF4C0533793389551
:1016E00039943A943B9731460848FFF701FE88E762
:1016F000FFF740F891E700BF005000520044025845
:10170000001002580000025800040258000C025851
:101710002DE9F041BAB00446002135913691379158
:1017200038913991C02204A807F04EFF22682B4B54
:101730009A4202D03AB0BDE8F0814FF480320023E3
:10174000CDE9042304A802F037F8002842D1244B45
:10175000D3F8D42042F48032C3F8D420D3F8D42074
:1017600002F480320192019AD3F8E02042F00402A0
:10177000C3F8E020D3F8E02002F004020292029ABB
:10178000D3F8E02042F00802C3F8E020D3F8E030BC
:1017900003F008030393039B4FF4F85335934FF082
:1017A0000208CDF8D88000273797032638960C25F5
:1017B000399535AC21460B48FFF79AFD0423359344
:1017C000CDF8D88037973896399521460648FFF7E7
:1017D0008FFDAFE7FEF7CEFFB9E700BF0070005204
:1017E0000044025800080258000C025870B5BEB000
:1017F0000446002139913A913B913C913D91C022A0
:1018000008A807F0E1FE23685F4A934208D05F4AC8
:10181000934238D05E4A934200F081803EB070BD62
:101820004FF480520023CDE9082308A801F0C4FF3B
:1018300030BB584BD3F8F02042F48052C3F8F0206C
:10184000D3F8F02002F480520192019AD3F8E020FC
:1018500042F00102C3F8E020D3F8E03003F00103C6
:101860000293029BE023399302233A9300233B9394
:101870003C9305233D9339A94748FFF739FDCDE750
:10188000FEF778FFD5E74FF480520023CDE9082317
:1018900008A801F091FF00283ED13E4BD3F8E82084
:1018A00042F40042C3F8E820D3F8E82002F40042F2
:1018B0000392039AD3F8E02042F00802C3F8E02034
:1018C000D3F8E02002F008020492049AD3F8E02052
:1018D00042F00202C3F8E020D3F8E03003F0020344
:1018E0000593059B4023399302263A9600243B94A6
:1018F0003C9405233D9339AD29462848FFF7F8FC71
:10190000182339933A963B943C9406233D932946F9
:101910002348FFF7EDFC81E7FEF72CFFBDE74FF40E
:1019200000520023CDE9082308A801F045FF38BB89
:10193000184BD3F8F02042F40052C3F8F020D3F84B
:10194000F02002F400520692069AD3F8E02042F00A
:101950001002C3F8E020D3F8E03003F0100307933F
:10196000079B4FF48353399302233A9300233B930D
:101970003C9305233D9339A90A48FFF7B9FC4DE78D
:10198000FEF7F8FED4E700BF00300140003C004005
:10199000003401400044025800000258000C025874
:1019A000000402580010025800B589B000230393C8
:1019B00004930593069307930368B3F1804F02D015
:1019C00009B05DF804FB124BD3F8E82042F00102A5
:1019D000C3F8E820D3F8E82002F001020192019A4E
:1019E000D3F8E02042F00102C3F8E020D3F8E03061
:1019F00003F001030293029B4FF40043039302237D
:101A000004930123079303A90248FFF771FCD7E76A
:101A1000004402580000025810B5BCB00446002132
:101A20003791389139913A913B91C02206A807F03D
:101A3000CBFD2368514A934207D0514A934237D095
:101A4000504A934266D03CB010BD02220023CDE93B
:101A5000062306A801F0B0FE38BB4B4BD3F8E820B4
:101A600042F08042C3F8E820D3F8E82002F0804238
:101A70000092009AD3F8E02042F01002C3F8E02070
:101A8000D3F8E03003F010030193019B4FF4C073CF
:101A9000379302233893002339933A9307233B93D8
:101AA00037A93A48FFF724FCCDE7FEF763FED4E7F9
:101AB00002220023CDE9062306A801F07DFE30BBFB
:101AC000314BD3F8E82042F00042C3F8E820D3F8C5
:101AD000E82002F000420292029AD3F8E02042F09D
:101AE0001002C3F8E020D3F8E03003F010030393B2
:101AF000039B0323379312233893002339933A939C
:101B000008233B9337A92148FFF7F2FB9BE7FEF739
:101B100031FED5E701220023CDE9062306A801F016
:101B20004BFE38BB184BD3F8F02042F01002C3F83C
:101B3000F020D3F8F02002F010020492049AD3F8B7
:101B4000E02042F00102C3F8E020D3F8E03003F0D7
:101B500001030593059B4FF4C06337930223389329
:101B6000002339933A9307233B9337A90848FFF79B
:101B7000BFFB68E7FEF7FEFDD4E700BF007800403A
:101B8000007C004000100140004402580010025840
:101B9000000002582DE9F04383B0D0F8008001EB3B
:101BA000C10300EB83039A6A5B6A9A4254D80746E2
:101BB0000C469B1A01EBC10200EB8202D2699A42E9
:101BC00000D31A4602F103094FEA990915E006F11C
:101BD00003094FEA9909BB7904EBC40507EB8505B6
:101BE000296A0093B3B2E2B2404605F076FD2B6A53
:101BF00033442B62AB6A3344AB6208EB441303F506
:101C000010639B699BB24B4512D304EBC40307EBF3
:101C100083039A6A5B6A9A420AD24BB19B1A04EB1D
:101C2000C40207EB8202D6699E42D0D31E46CEE79D
:101C300004EBC40307EB83077A6ABB6A9A420FD8A6
:101C400004F00F040122A240D8F8343823EA02033A
:101C5000C8F83438002000E0012003B0BDE8F0836C
:101C60000020FAE730B583B000287AD0044690F817
:101C70009534ABB1032384F89534206805F0E2FA7B
:101C8000237C8DF80030231D0ECB206805F010FA60
:101C900058B1022384F895340125284603B030BD9D
:101CA00080F8943406F026FBE4E70021206805F074
:101CB0002AFF0246B8B903462079984218D903EBA7
:101CC000C30104EB8101012048750B75CB85002011
:101CD0000876C861086203EBC30104EB8101486226
:101CE0000133DBB2E8E7022384F895340125D4E719
:101CF000904217D902EBC20304EB8303002183F85F
:101D0000551283F8542283F85812C3F85C12C3F8B2
:101D1000601202EBC20304EB8303C3F864120132C6
:101D2000D2B2E5E7237C8DF80030231D0ECB20686E
:101D300005F0DEFA054658B900236374012384F8E0
:101D40009534237B012B08D0206805F09BFEA4E787
:101D5000022384F8953401259FE7204600F076FDA4
:101D6000F2E7012599E7036890F89424012A1AD034
:101D700010B50446012280F89424DA6812F0400F6E
:101D800002D0427B012A09D0206805F055FA20686C
:101D900005F06AFE002084F8940410BD9A6B42F4AA
:101DA00080329A63F0E702207047000070B5044665
:101DB0000D460068066C00EB411303F530639A682A
:101DC000A179012911D038498E4256D03DB905EB91
:101DD000C50304EB8303D3F86432002B5ED0E9B271
:101DE000204606F0E9FA002070BD12F0080F09D075
:101DF0002E498E42F7D912F4004FF4D04FF400422E
:101E00009A60F0E712F0200F02D020229A60EAE7F1
:101E100012F0280FE7D125498E4206D912F4004F5F
:101E200003D04FF400429A60DDE705EBC50204EBF6
:101E30008202D2F874121B69C3F31203CB1AC2F8E0
:101E400068327DB905EBC50204EB8202D2F8642248
:101E50006AB105EBC50204EB8202D2F860121944A4
:101E6000C2F86012E9B2204606F0A6FABBE704F217
:101E70009C42012105F086FEF4E712F4004F03D0E6
:101E80004FF400429A60AEE712F0200F01D02022FA
:101E90009A60E9B2204606F08FFAA4E704F29C4269
:101EA000002105F06FFE9AE70A31544F0A30544F73
:101EB00038B5044603681D6C03EB4113D3F8081BC7
:101EC0000E4A954207D903F5306311F4004F02D052
:101ED0004FF400429A60204606F066FA074B9D4296
:101EE00002D9A379012B01D0002038BD04F29C4215
:101EF0000121206805F046FEF6E700BF0A30544F86
:101F000090F89434012B0CD010B50446012380F8CE
:101F100094344174006805F097FD002084F894041F
:101F200010BD0220704738B505468C4611F0800F71
:101F30002BD101F00F0E0EEBCE04A40004F51474A7
:101F40000444211D0EEBCE0E00EB8E0E00208EF809
:101F500055020CF00F0C81F800C0C2F30A028A602F
:101F60000B714A780AB1A1F81AC0022B1CD095F85F
:101F70009434012B1BD0012385F89434286805F094
:101F800091FA002085F8940438BD01F00F0000EBB1
:101F9000C001890010312944043100EBC00005EB79
:101FA000800001244475D4E700234B71DFE7022051
:101FB000EAE710B504460A4611F0800F20D101F07F
:101FC0000F0000EBC0039B0003F514732344191D9D
:101FD00000EBC00004EB8000002380F8553202F0D3
:101FE0000F020A7094F89434012B18D0012384F85E
:101FF0009434206805F0A2FA002084F8940410BDFF
:1020000001F00F0000EBC0039B0010332344191DA7
:1020100000EBC00004EB800001234375DFE70220E2
:10202000EDE710B5144601F00F0C0CEBCC01890064
:1020300001F51471014404310CEBCC0E00EB8E0E53
:10204000CEF86022CEF864320023CEF868328EF8E3
:1020500055328EF854C28279012A04D0006805F006
:1020600053FB002010BDCEF87042F7E701F00F01DE
:1020700001EBC10100EB8100D0F86802704710B598
:10208000144601F00F0C0CEBCC0189001031014417
:1020900004310CEBCC0E00EB8E0ECEF82020CEF8E7
:1020A00024300023CEF8283001238EF815308EF826
:1020B00014C082799A4204D0006805F025FB002004
:1020C00010BDCEF83040F7E738B501F00F050279C2
:1020D000AA4238D304460B4611F0800F1FD101EB02
:1020E000C101890001F514710144043103EBC303FC
:1020F00000EB8303002283F8552201238B700D70BF
:1021000094F89434012B20D0012384F8943420686F
:1021100005F03FFC85B1002084F8940438BD05EB40
:10212000C501890010310144043105EBC50300EB02
:10213000830301225A75E0E704F29C42A1792068EA
:1021400005F020FDE7E70120E8E70220E6E701F0DF
:102150000F0302799A4230D310B5044611F0800F74
:102160001ED103EBC301890001F514710144043150
:1021700003EBC30200EB8202002082F8550200222A
:102180008A700B7094F89434012B18D0012384F8D2
:102190009434206805F02AFC002084F8940410BDD3
:1021A00003EBC301890010310144043103EBC30286
:1021B00000EB820201205075E1E701207047022008
:1021C000EDE708B511F0800F0CD101F00F0101EB24
:1021D000C101890001F5147101440431006805F062
:1021E0001DFA08BD01F00F0101EBC101890010319A
:1021F00001440431F2E72DE9F04F83B0044605684D
:10220000284605F07CFC10B103B0BDE8F08F06460F
:10221000206805F045FC0028F6D005F50067BB688E
:10222000C3F30D23C4F8D434206805F039FC10F052
:10223000020F04D02268536903F00203536120683F
:1022400005F02EFC10F0100F16D02268936923F0D1
:1022500010039361D5F8208008F00F0908F4F013FB
:10226000B3F5802F6AD0B3F5402F00F08D8022683F
:10227000936943F010039361206805F011FC10F49A
:10228000002F40F09380206805F00AFC10F4802FA6
:1022900040F0FC80206805F003FC0028C0F27D813E
:1022A000206805F0FDFB10F4006F09D0BB6813F047
:1022B000010F40F08A812268536903F4006353617F
:1022C000206805F0EDFB10F0006F15D0226853690F
:1022D00003F00063536194F8CC34002B40F0798113
:1022E000012184F8CC1423685B6DC3F38303C4F825
:1022F000D034204600F0BEFA206805F0D1FB10F47F
:10230000805F40F06A81206805F0CAFB10F4005F2E
:1023100040F0B681206805F0C3FB10F0080F40F0D4
:10232000C781206805F0BCFB10F0800F00F0DA8157
:10233000AB6923F08003AB610126C3E147F6F0737C
:1023400018EA030F93D04FEA181A4FEAC903019312
:1023500009EBC90B04EB8B0BC8F30A12DBF8601214
:10236000284605F0F3FADBF86032CAF30A0A534450
:10237000CBF86032DBF86832019A4A4404EB8202FF
:102380005344C2F8683272E7082204F29C4128469E
:1023900005F0DCFA09EBC90304EB8303D3F86822E8
:1023A000C8F30A184244C3F8682260E7206805F0C1
:1023B0007BFB8046B14635E005EB49130122C3F8AB
:1023C000082B49462046FFF7F1FC3CE005EB49139A
:1023D0000822C3F8082B49462046FFF769FD35E07F
:1023E00009EBC90304EB830393F85732012B41D067
:1023F00005EB49130222C3F8082B1AF0200F04D072
:1024000005EB49132022C3F8082B1AF4005F05D00E
:1024100005EB49134FF40052C3F8082B09F10109E9
:102420004FEA5808B8F1000F3FF42DAF18F0010F34
:10243000F4D05FFA89FB5946206805F045FB8246D7
:1024400010F0010FB8D11AF0080FBFD11AF0100F19
:1024500004D005EB49131022C3F8082B1AF0020F21
:10246000CBD06B6913F0800FBAD07B6843F48063E4
:102470007B60B5E709EBC90304EB8303002283F813
:1024800057225946204605F0E7FFB1E7206805F0DE
:1024900013FB8046B14625E05946204605F098FFDB
:1024A0001AF0080F04D005EB49130822C3F80829D5
:1024B0001AF0100F04D005EB49131022C3F80829B5
:1024C0001AF0400F04D005EB49134022C3F8082945
:1024D0001AF0020F40D11AF0800F59D109F1010909
:1024E0004FEA5808B8F1000F3FF4D4AE18F0010FCE
:1024F000F4D05FFA89FB5946206805F0EEFA82466F
:1025000010F0010FCCD009F00F02012101FA02F204
:102510007B6B23EA02037B6305EB4913C3F80819BD
:10252000A3798B42B8D109EBC90304EB83031A6A80
:10253000D9690A441A62B9F1000FADD109EBC90398
:1025400004EB83035B6A002BA6D104F29C420121B9
:10255000206805F017FB9FE74946284604F078FEFF
:1025600009EBC90304EB8303DB7D012B05D005EBED
:1025700049130222C3F80829ADE709EBC90304EBAC
:1025800083030022DA755946204605F06BFFEEE71B
:1025900049462046FFF7FEFAA0E77B6823F00103D7
:1025A0007B6094F8CC34012B08D0204605F04EFF18
:1025B0002268536903F00043536171E6002184F8F7
:1025C000CC14204600F056F9F2E7204605F026FF2D
:1025D00071E6204605F022FF8EE67B6823F00103BA
:1025E0007B601021206804F033FE1AE005EB4613EF
:1025F0004FF67F31C3F80819D3F8002922F40012EE
:10260000C3F80029C3F8081BD3F8002B22F40012EA
:10261000C3F8002BD3F8002B42F00062C3F8002B64
:1026200001362379B342E1D8FB6943F00113FB6122
:10263000E37BDBB1D7F8843043F00B03C7F8843079
:102640007B6C43F00B037B64D5F8003823F4FE6306
:10265000C5F8003804F29C42A179206805F092FA8E
:102660002268536903F4805353614CE67A6942F25D
:102670002B0313437B613B6943F00B033B61E3E7AF
:10268000206805F071FA206804F0FAFEE07126680F
:1026900000F044FF0146E279304604F05BFD20463D
:1026A00005F0A7FE2268536903F40053536131E635
:1026B000204605F098FE2268536903F00803536131
:1026C0002FE601362379B3420CD906EBC60304EB9F
:1026D000830393F85732012BF3D1F1B22046FFF771
:1026E00070FDEEE7206805F0DBF910F4801F25D1BE
:1026F000206805F0D5F910F4001F58D0012326E01A
:1027000001362379B3421BD905EB4613D3F80029D0
:1027100006EBC60304EB83031B7E012BF0D1002ADA
:10272000EEDA06EBC60304EB83030122DA7566F0EA
:102730007F01C9B22046FFF744FDE1E70126E0E74B
:102740002268536903F480135361D1E7013322797E
:102750009A4227D905EB4312D2F8001B03EBC302C0
:1027600004EB820292F85822012AEFD10029EDDA17
:10277000D4F8D42482EA114212F0010FE6D103EB1F
:10278000C30204EB8202012182F85712AA6942F0C7
:102790008002AA616A6912F0800FD7D17B6843F486
:1027A00000737B602268536903F40013536120684F
:1027B00005F076F910F0804F10D1206805F070F91F
:1027C00010F0040F3FF420AD23685D6815F0040F8E
:1027D0000DD1226853682B43536015E5204605F060
:1027E00047FE2268536903F080435361E5E72046C2
:1027F00005F044FEEDE710B40468606A31B940EAC0
:102800000240A06200205DF8044B70478C46A36A2A
:1028100000EB1340002308E003F1400104EB8101C9
:10282000496800EB11400133DBB20CF1FF318B4200
:10283000F2D340EA02400CF13F0104EB81046060F6
:10284000E0E7036859620020704700000346026811
:102850000121C0F8D814002083F8CC04936943F018
:1028600000639361516D024B0B435365704700BF8A
:102870000300001070470000134BDB6813F0040FD7
:1028800007D1114BDB6803F0070383421AD0012004
:10289000704710B50C4AD36823F007030343D36095
:1028A000FEF704FA0446084B5B6813F4005F07D197
:1028B000FEF7FCF9001BB0F57A7FF4D9012000E0A7
:1028C000002010BD0020704700480258024AD3681B
:1028D00043F08073D3607047004802582DE9F843F5
:1028E00005460F4616469946DDF820802B689C6801
:1028F00004EA070CBCF1000C18BF4FF0010CB44502
:1029000014D0B8F1FF3FF1D0FEF7D0F9A0EB0900E9
:10291000404502D8B8F1000FE8D1042385F84130D2
:102920006B6C43F001036B64012000E00020BDE804
:10293000F88381647047000070B582B00446FEF7EA
:10294000B5F9002C45D0064694F84130002B37D01D
:1029500025682A6822F4F852A168013942EA012266
:102960002A60A36C00933346002220212046FFF703
:10297000B5FF18BB21680B68174A1A406568E36801
:1029800043EA0563E5692B43256A2B431A430A6032
:1029900021684A68114B13402569626942EA054281
:1029A000A5692A4313434B602268136843F001036F
:1029B000136000236364012384F8413002B070BDCA
:1029C0002046FEF70DFE41F288312046FFF7B1FFA9
:1029D000BEE70120F2E700BF2FFFFF00FEF8E0FF97
:1029E000002800F0398338B50446036813F0010F5E
:1029F00025D0944A136903F03803926A102B15D03E
:102A0000182B0FD06368B3F5803F3FD0002B53D114
:102A10008C4B1A6822F480321A601A6822F48022E1
:102A20001A6038E002F00302022AEBD1854B1B68E2
:102A300013F4003F03D06368002B00F00F8323687A
:102A400013F0020F00F0A1807E4A1369926A13F01E
:102A500038035AD0182B55D0E368002B00F0DE80E5
:102A600078490A6822F0190213430B60FEF71EF939
:102A70000546744B1B6813F0040F40F0AD80FEF761
:102A800015F9401B0228F4D90320EEE26D4A1368C1
:102A900043F48033136063682BB3FEF707F90546F0
:102AA000684B1B6813F4003FC9D1FEF7FFF8401BC9
:102AB0006428F5D90320D8E2B3F5A02F09D0614BE3
:102AC0001A6822F480321A601A6822F480221A608E
:102AD000E1E75C4B1A6842F480221A601A6842F4FB
:102AE00080321A60D7E7FEF7E1F80546554B1B68C0
:102AF00013F4003FA3D0FEF7D9F8401B6428F5D9A2
:102B00000320B2E212F0030FA6D14E4B1B6813F064
:102B1000040F03D0E368002B00F0A282494A136837
:102B200023F01903E1680B431360FEF7BFF8054675
:102B3000444B1B6813F0040F06D1FEF7B7F8401B97
:102B40000228F5D9032090E2FEF7CAF841F2030308
:102B5000984212D82269402A07D03A494B6823F498
:102B60007C3343EA02334B600FE0364A536823F468
:102B70007C3343F40033536007E0324A536823F058
:102B8000FE43216943EA01635360236813F0100F89
:102B900000F088802B4A136903F03803926A082BEF
:102BA00056D0182B50D0E369002B00F0B880254A8E
:102BB000136843F080031360FEF778F80546214B55
:102BC0001B6813F4807F40F08880FEF76FF8401B8D
:102BD0000228F4D9032048E2FEF782F841F2030309
:102BE000984212D82269402A07D016494B6823F42C
:102BF0007C3343EA02334B60C7E7124A536823F43D
:102C00007C3343F400335360BFE70E4A536823F02C
:102C1000FE43216943EA01635360B6E7094A13683A
:102C200023F001031360FEF741F80546054B1B68CE
:102C300013F0040FA9D0FEF739F8401B0228F5D98C
:102C4000032012E20044025802F00302012AAAD132
:102C5000A14B1B6813F4807F03D0E369802B40F005
:102C60000182FEF73DF841F20303984212D8226A2E
:102C7000202A07D098494B6823F0F84343EA82633F
:102C80004B600FE0944A536823F0F84343F08043CD
:102C9000536007E0904AD36823F07C53216A43EAEB
:102CA0000163D360236813F0080F60D06369002BC1
:102CB00049D0894A536F43F001035367FDF7F6FF8C
:102CC0000546854B5B6F13F0020F50D1FDF7EEFF09
:102CD000401B0228F5D90320C7E1FEF701F841F2B5
:102CE0000303984212D8226A202A07D07A494B68F7
:102CF00023F0F84343EA82634B60D3E7764A536894
:102D000023F0F84343F080435360CBE7724AD36823
:102D100023F07C53216A43EA0163D360C2E76E4A21
:102D2000136823F080031360FDF7C0FF05466A4B6C
:102D30001B6813F4807FB5D0FDF7B8FF401B022855
:102D4000F5D9032091E1644A536F23F001035367DF
:102D5000FDF7ACFF0546604B5B6F13F0020F06D02A
:102D6000FDF7A4FF401B0228F5D903207DE123686D
:102D700013F0200F29D0A3699BB1574A136843F47D
:102D800080531360FDF792FF0546534B1B6813F405
:102D9000005F1AD1FDF78AFF401B0228F5D90320F6
:102DA00063E14D4A136823F480531360FDF77EFFFF
:102DB0000546494B1B6813F4005F06D0FDF776FF0C
:102DC000401B0228F5D903204FE1236813F0040FBC
:102DD00021D1636A002B00F047813F4A126902F05B
:102DE0003802182A00F0EE80022B79D03A4A136894
:102DF00023F080731360FDF759FF0446364B1B68C0
:102E000013F0007F00F0DC80FDF750FF001B02286C
:102E1000F4D9032029E1314A136843F48073136025
:102E2000FDF744FF05462D4B1B6813F4807F06D148
:102E3000FDF73CFF401B6428F5D9032015E1A3688A
:102E4000012B0AD00BBB244B1A6F22F001021A6728
:102E50001A6F22F004021A6704E01F4A136F43F04E
:102E600001031367A36833B3FDF720FF05461A4B30
:102E70001B6F13F0020FACD1FDF718FF401B41F29E
:102E800088339842F3D90320EFE0052B09D0124B89
:102E90001A6F22F001021A671A6F22F004021A67F1
:102EA000E0E70D4B1A6F42F004021A671A6F42F006
:102EB00001021A67D6E7FDF7F9FE0546064B1B6FC0
:102EC00013F0020F85D0FDF7F1FE401B41F288336D
:102ED0009842F3D90320C8E0004402580048025841
:102EE000694A136823F080731360FDF7DFFE05461F
:102EF000654B1B6813F0007F06D0FDF7D7FE401B23
:102F00000228F5D90320B0E05F4B996A5F4A0A4076
:102F1000A16AE06A41EA00110A439A62226B013A0F
:102F2000C2F30802616B0139490289B20A43A16BFD
:102F30000139090401F4FE010A43E16B0139090674
:102F400001F0FE410A431A63DA6A22F00102DA62F2
:102F50005A6B6FF3CF02A16C42EAC1025A63DA6A7C
:102F600022F00C02216C0A43DA62DA6A22F00202D1
:102F7000616C0A43DA62DA6A42F48032DA62DA6A4F
:102F800042F40032DA62DA6A42F48022DA62DA6A01
:102F900042F00102DA621A6842F080721A60FDF7AC
:102FA00085FE0446384B1B6813F0007F06D1FDF701
:102FB0007DFE001B0228F5D9032056E0002054E0D6
:102FC000002052E0304A916A106B012B4ED001F084
:102FD0000303A26A93424BD1C1F30511E36A9942FC
:102FE00048D1C0F30802236B013B9A4244D1C0F39D
:102FF0004622636B013B9A4240D1C0F30642A36B69
:10300000013B9A423CD1C0F30660E36B013B98421E
:1030100038D11D4B5B6BC3F3CC03A26C9A4201D138
:10302000002022E0184AD36A23F00103D362FDF79F
:103030003DFE0546FDF73AFEA842FBD0124A536B0F
:103040006FF3CF03A16C43EAC1035363D36A43F028
:103050000103D362002008E001207047012004E052
:10306000012002E0012000E0002038BD0120FCE743
:103070000120FAE70120F8E70120F6E70120F4E754
:103080000120F2E70120F0E7004402580CFCFFFFAA
:10309000754B1B6903F03803102B00F0DE80182BF2
:1030A0000FD0002B40F0DB806F4B1B6813F0200F1C
:1030B00000F0D7806C4B1B68C3F3C1036B48D8404A
:1030C000704710B4684B9A6A02F003029C6AC4F31A
:1030D0000510D96A01F001015B6BC3F3CC0301FB5E
:1030E00003F307EE903AF8EE677A14F47C7F77D01A
:1030F000012A4AD0022A76D0002A40F091805A4B09
:103100001B6813F0200F23D057490A68C2F3C1028D
:10311000564BD34007EE103AF8EE476A07EE100A16
:10312000B8EE476A86EE867A0B6BC3F3080306EEA9
:10313000903AF8EE666A9FED4E6A67EE867A76EE12
:10314000A77AF7EE006A77EEA67A27EE277A38E0BC
:1031500007EE100AF8EE476A9FED466A86EE267A79
:10316000414B1B6BC3F3080306EE903AF8EE666A18
:103170009FED3F6A67EE867A76EEA77AF7EE006AF1
:1031800077EEA67A27EE277A1BE007EE100AF8EE14
:10319000476A9FED396A86EE267A334B1B6BC3F381
:1031A000080306EE903AF8EE666A9FED316A67EE24
:1031B000867A76EEA77AF7EE006A77EEA67A27EEA1
:1031C000277A294B1B6BC3F34623013307EE903A52
:1031D000F8EE677AC7EE276AFCEEE67A17EE900AF9
:1031E0005DF8044B704707EE100AF8EE476A9FED52
:1031F000236A86EE267A1C4B1B6BC3F3080306EE8C
:10320000903AF8EE666A9FED1A6A67EE867A76EE75
:10321000A77AF7EE006A77EEA67A27EE277AD0E74C
:1032200007EE100AF8EE476A9FED136A86EE267ADB
:103230000D4B1B6BC3F3080306EE903AF8EE666A7B
:103240009FED0B6A67EE867A76EEA77AF7EE006A54
:1032500077EEA67A27EE277AB3E709487047094840
:1032600070470248704700BF004402580090D003E6
:10327000000000390024744C0024744A20BCBE4B6A
:1032800040787D0100093D00002800F0328170B5D2
:103290000D4604469B4B1B6803F00F038B420BD279
:1032A000984A136823F00F030B431360136803F06D
:1032B0000F038B4240F01F81236813F0040F0CD0E2
:1032C0002269914B9B6903F070039A4205D98E499C
:1032D0008B6923F070031A438A61236813F0080F87
:1032E0000CD06269884BDB6903F070039A4205D900
:1032F0008549CB6923F070031A43CA61236813F030
:10330000100F0CD0A269804BDB6903F4E0639A4292
:1033100005D97D49CB6923F4E0631A43CA61236868
:1033200013F0200F0CD0E269774B1B6A03F0700397
:103330009A4205D974490B6A23F070031A430A6252
:10334000236813F0020F0CD0E2686F4B9B6903F007
:103350000F039A4205D96C498B6923F00F031A4376
:103360008A61236813F0010F41D0674A936923F4FF
:103370007063A1680B4393616368022B0AD0032B2F
:1033800027D0012B2CD0604A126812F0040F06D10E
:103390000120ADE0126812F4003F00F0AE805A49FF
:1033A0000A6922F0070213430B61FDF77FFC064612
:1033B000554B1B6903F038036268B3EBC20F16D09C
:1033C000FDF774FC801B41F288339842F0D903204A
:1033D0008EE04D4A126812F0007FE0D1012087E0B4
:1033E000494A126812F4807FD9D1012080E0236815
:1033F00013F0020F0CD0E268434B9B6903F00F03FC
:103400009A4205D240498B6923F00F031A438A611F
:103410003C4B1B6803F00F03AB420AD9394A1368CF
:1034200023F00F032B431360136803F00F03AB4229
:1034300065D1236813F0040F0CD02269324B9B69CD
:1034400003F070039A4205D22F498B6923F0700371
:103450001A438A61236813F0080F0CD062692A4B63
:10346000DB6903F070039A4205D22749CB6923F048
:1034700070031A43CA61236813F0100F0CD0A269BD
:10348000214BDB6903F4E0639A4205D21E49CB6904
:1034900023F4E0631A43CA61236813F0200F0CD0B1
:1034A000E269194B1B6A03F070039A4205D2164970
:1034B0000B6A23F070031A430A62FFF7E9FD124911
:1034C0008B69C3F30323114AD35C03F01F03D84075
:1034D0008B6903F00F03D35C03F01F0320FA03F39F
:1034E0000B4A13600B4B18600B4B1868FDF77CFB05
:1034F00070BD012070470120FAE70120F8E70120A4
:10350000F6E700BF002000520044025808A6000859
:10351000080000200C0000200400002008B5FFF780
:10352000B7FD0B4A9369C3F303230A49CB5C03F04D
:103530001F0320FA03F3926902F00F02885C00F087
:103540001F0023FA00F0044A1060044A136008BD0B
:103550000044025808A60008080000200C000020C3
:1035600008B5FFF7DBFF054BDB69C3F30213044A21
:10357000D35C03F01F03D84008BD00BF00440258CD
:1035800008A6000808B5FFF7C9FF054BDB69C3F3C0
:103590000223044AD35C03F01F03D84008BD00BFD8
:1035A0000044025808A60008404B9B6A03F003033E
:1035B000032B79D070B505460E463C4A136823F0BC
:1035C00080631360FDF772FB0446384B1B6813F0F1
:1035D000006F06D0FDF76AFB031B022BF5D9032011
:1035E00070BD324B9A6A22F47C32296842EA013279
:1035F0009A626A68013AC2F30802A968013949026D
:1036000089B20A43E9680139090401F4FE010A4359
:1036100029690139090601F0FE410A439A63DA6A11
:1036200022F0C00269690A43DA62DA6A22F02002F3
:10363000A9690A43DA62DA6A22F01002DA62DA6B06
:103640006FF3CF02E96942EAC102DA63DA6A42F053
:103650001002DA62C6B91A46DB6A43F40023D36269
:10366000124A136843F080631360FDF71FFB0446A2
:103670000E4B1B6813F0006F14D1FDF717FB001BF6
:103680000228F5D90320ABE7012E05D0074AD36AFB
:1036900043F40013D362E3E7044AD36A43F480138C
:1036A000D362DDE700209BE7012070470044025809
:1036B000404B9B6A03F00303032B79D070B505469A
:1036C0000E463C4A136823F080531360FDF7EEFA70
:1036D0000446384B1B6813F0005F06D0FDF7E6FA8E
:1036E000031B022BF5D9032070BD324B9A6A22F0DE
:1036F0007C72296842EA01529A626A68013AC2F30E
:103700000802A9680139490289B20A43E968013906
:10371000090401F4FE010A4329690139090601F08F
:10372000FE410A431A64DA6A22F4406269690A4374
:10373000DA62DA6A22F40072A9690A43DA62DA6AA2
:1037400022F48072DA625A6C6FF3CF02E96942EABE
:10375000C1025A64DA6A42F48072DA62C6B91A4661
:10376000DB6A43F48003D362124A136843F0805348
:103770001360FDF79BFA04460E4B1B6813F0005FC5
:1037800014D1FDF793FA001B0228F5D90320ABE70B
:10379000012E05D0074AD36A43F08073D362E3E772
:1037A000044AD36A43F40003D362DDE700209BE7B9
:1037B0000120704700440258F8B50446036813F02E
:1037C000006F30D0836EB3F5001F26D00ED8ABB19A
:1037D000B3F5801F07D102210830FFF7E5FE05464B
:1037E00095B12E4621E0012635461EE0B3F5401F77
:1037F00001D1002508E00126354616E09A4AD36A31
:1038000043F40033D3620025974A136D23F4401329
:10381000A16E0B431365002607E002212830FFF755
:1038200047FF0546DCE700263546236813F4807F12
:1038300014D0A36D042B31D8DFE803F0032229084C
:103840000800894AD36A43F40033D3624DBB864AE9
:10385000136D23F00703A16D0B431365236813F465
:10386000007F3FD0E36D802B2ED01FD833B3402B89
:1038700019D1002104F10800FFF796FE054629E062
:10388000002104F10800FFF78FFE0546DEE7002166
:1038900004F12800FFF70CFF0546D7E7012635465F
:1038A000DCE72E46DAE7012635461BE0C02B11D0B7
:1038B000B3F5807F0ED00126354613E06A4AD36AFD
:1038C00043F40033D36205E0002104F12800FFF740
:1038D000EFFE0546DDB9644A136D23F4E073E16D34
:1038E0000B431365236813F4806F33D0D4F8A830EA
:1038F000B3F5800F1FD00FD8BBB1B3F5001F08D1AF
:10390000002104F10800FFF74FFE054619E02E469E
:10391000E8E7012635461DE0B3F5C00F11D0B3F539
:10392000000F0ED00126354614E04F4AD36A43F407
:103930000033D36205E0002104F12800FFF7B8FE50
:103940000546E5B9484A936D23F46003D4F8A810FE
:103950000B439365236813F4006F34D0D4F8AC3074
:10396000B3F1007F1FD00FD8BBB1B3F1807F08D176
:10397000002104F10800FFF717FE054619E02E4666
:10398000E8E7012635461EE0B3F1407F11D0B3F1E0
:10399000806F0ED00126354615E0334AD36A43F4D2
:1039A0000033D36205E0002104F12800FFF780FE18
:1039B0000546002D33D12C4A936D23F0E063D4F8F3
:1039C000AC100B439365236813F0007F13D0E36CB6
:1039D000202B2ED028D833B1102B22D1224AD36AE3
:1039E00043F40033D3625DBB1F4AD36C23F0300332
:1039F000E16C0B43D364236813F4805F46D0236EDD
:103A0000B3F5005F32D020D843B3B3F5805F19D14E
:103A1000002104F10800FFF7C7FD05462CE02E4603
:103A2000D1E701263546E6E7302BDCD001263546C6
:103A3000E1E7022104F10800FFF7B6FD0546D2E7F1
:103A40002E46D8E70126354620E0B3F5405F13D077
:103A5000B3F5804F10D00126354617E0024AD36AED
:103A600043F40033D36207E000440258002104F11C
:103A70002800FFF71DFE05463DB9704A136D23F47B
:103A8000E043216E0B43136500E02E46236813F4D8
:103A9000005F17D0636EB3F5003F4FD042D843B1FB
:103AA000B3F5803F3BD1012104F10800FFF77CFD15
:103AB0000546002D49D1614A136D23F4E023616E60
:103AC0000B431365236813F4804F19D0D4F8B0303A
:103AD000B3F1005F4AD03DD843B1B3F1805F36D136
:103AE000012104F10800FFF75FFD0546002D44D1D8
:103AF000524A936D23F0E043D4F8B0100B43936522
:103B0000236813F4004F47D0236FB3F1805F36D0A2
:103B1000B3F1005F4BD0BBB3012635463CE0012634
:103B20003546CFE7B3F5802FC3D0B3F5A02FC0D073
:103B3000B3F5403FBDD001263546C3E7012104F16E
:103B40002800FFF7B5FD0546B3E72E46BAE7012684
:103B50003546D5E7B3F1804FC8D0B3F1A04FC5D0FB
:103B6000B3F1405FC2D001263546C9E7012104F117
:103B70002800FFF79DFD0546B8E72E46C0E72F4A0F
:103B8000D36A43F40033D362C5B92C4A136D23F0D2
:103B90004053216F0B431365236813F0807F1CD0C3
:103BA000A36C032B44D8DFE803F0100B3C10012179
:103BB00004F10800FFF7F8FC0546E5E72E46EBE7C1
:103BC0001E4AD36A43F40033D362A5BB1B4AD36CAD
:103BD00023F00303A16C0B43D364236813F4800F19
:103BE0002ED1236813F0010F00F0A680E36F282B7D
:103BF00000F2A080DFE803F08E9E9E9E9E9E9E9E19
:103C0000889E9E9E9E9E9E9E979E9E9E9E9E9E9EF1
:103C10008E9E9E9E9E9E9E9E8E9E9E9E9E9E9E9EE4
:103C20008E00022104F10800FFF7BEFC0546CCE738
:103C300001263546D1E72E46CFE700BF00440258A3
:103C40005A4A136843F480731360FDF72FF8074650
:103C5000564B1B6813F4807F05D1FDF727F8C01B76
:103C60006428F5D90325002D4AD1514B1B6FD4F898
:103C7000B420534013F4407F0CD04D4B1A6F22F404
:103C80004072196F41F480311967196F21F4803146
:103C900019671A67D4F8B430B3F5807F15D08DBB9F
:103CA000D4F8B43003F44072B2F5407F1ED0404ADD
:103CB000136923F47C5313613D490B6FD4F8B4208E
:103CC000C2F30B0213430B678BE7FCF7EFFF0746CA
:103CD000374B1B6F13F0020FE1D1FCF7E7FFC01B5E
:103CE00041F288339842F3D90325D8E73048026976
:103CF00022F47C522F4901EA131313430361DBE7DB
:103D00002E466EE72E466CE7012104F10800FFF70E
:103D10004BFC0546E5B9264A536D23F03803E16FA5
:103D20000B43536508E0012104F12800FFF7C0FCB4
:103D30000546EFE701263546236813F0020F17D03A
:103D4000A36F052B2CD8DFE803F00B05240B0B0B1E
:103D50002E46F1E7012104F10800FFF725FC054696
:103D60000DBB134A536D23F00703A16F0B4353653B
:103D7000236813F0040F30D0D4F89430052B00F2F0
:103D80000F81DFE813F01F00190006011F001F005C
:103D90001F00012104F12800FFF78AFC0546DFE738
:103DA00001263546E4E72E46E2E700BF0048025808
:103DB00000440258CFFFFF00012104F10800FFF783
:103DC000F3FB0546002D40F0EE80B64A936D23F0DC
:103DD0000703D4F894100B439365236813F0200F66
:103DE0001DD0D4F89030B3F1005F00F0F08000F205
:103DF000DF804BB1B3F1805F40F0D780002104F148
:103E00000800FFF7D1FB0546002D40F0E780A54AEA
:103E1000536D23F0E043D4F890100B4353652368AF
:103E200013F0400F1DD0D4F89C30B3F5006F00F0B4
:103E3000E98000F2D8804BB1B3F5806F40F0D080BC
:103E4000002104F10800FFF7AFFB0546002D40F00C
:103E5000E080944A936D23F4E053D4F89C100B4314
:103E60009365236813F0800F1DD0D4F8A030B3F50C
:103E7000804F00F0E28000F2D1804BB1B3F5005FDB
:103E800040F0C980002104F10800FFF78DFB0546D2
:103E9000002D40F0D980834A936D23F46043D4F819
:103EA000A0100B439365236813F0080F0DD0D4F8CE
:103EB0008430B3F5805F00F0C9807A4A536D23F4F3
:103EC0004053D4F884100B435365236813F0100F4C
:103ED0000DD0D4F89830B3F5807F00F0C180714ADE
:103EE000936D23F44073D4F898100B4393652368C3
:103EF00013F4002F1CD0D4F8A430B3F5803F00F0A9
:103F0000B980B3F5003F08D0002B40F0BA80002103
:103F100004F10800FFF748FB0546002D40F0B4808F
:103F2000604A936D23F44033D4F8A4100B43936597
:103F3000236813F4802F1CD0D4F88830B3F5001F09
:103F400000F0A480B3F5401F08D0B3F5801F40F007
:103F5000A480544AD36A43F40033D362002D40F066
:103F60009F80504A536D23F44013D4F888100B43BC
:103F70005365236813F4803F00F0AC80236D002B61
:103F800000F09280B3F5803F00F09C80012635461A
:103F9000A0E0012104F12800FFF78AFB054611E7A4
:103FA0000126354619E72E4617E70126354636E73E
:103FB000B3F1804F3FF428AFB3F1A04F3FF424AFEB
:103FC000B3F1405F3FF420AF0126354627E70221D9
:103FD00004F12800FFF76CFB054615E72E461EE7A7
:103FE000012635463DE7B3F5805F3FF42FAFB3F5CB
:103FF000A05F3FF42BAFB3F5406F3FF427AF01262E
:1040000035462EE7022104F12800FFF751FB054653
:104010001CE72E4625E70126354644E7B3F5004F59
:104020003FF436AFB3F5204F3FF432AFB3F5C04F96
:104030003FF42EAF0126354635E7022104F1280072
:10404000FFF736FB054623E72E462CE7022104F155
:104050002800FFF72DFB00283FF42FAF01262CE7A7
:10406000022104F12800FFF723FB00283FF437AFBB
:10407000012634E7022104F12800FFF719FB054669
:104080004BE70126354653E72E4651E7012104F15F
:104090002800FFF70DFB054660E70126354668E777
:1040A0002E4666E700440258704AD36A43F4003350
:1040B000D36275B96D4AD36C23F48033216D0B4301
:1040C000D36407E0022104F10800FFF76DFA05460A
:1040D000EFE72E46236813F0005F11D1236813F435
:1040E000003F28D0D4F88030B3F5807F14D010D9A9
:1040F000B3F5007F15D0B3F5407F12D001261AE04A
:10410000022104F12800FFF7D3FA0028E6D00126A7
:10411000E4E733B101260EE0544AD36A43F4003396
:10412000D362002D69D1514A536D23F44073D4F802
:1041300080100B435365236813F4801F06D04B4A4D
:10414000136D23F00043616F0B431365236813F075
:10415000805F07D0454A136923F48043D4F8B81030
:104160000B431361236813F4001F06D03F4A136DFD
:1041700023F08073E16E0B431365236813F0804FC7
:1041800009D03A4B1A6922F400421A611A69D4F82C
:10419000BC100A431A612368002B06DA334AD36C39
:1041A00023F04053616D0B43D364236813F4000F75
:1041B00007D02E4A536D23F44003D4F88C100B43E0
:1041C0005365636813F0010F19D1636813F0020F90
:1041D0001ED1636813F0040F23D1636813F0080F36
:1041E00028D1636813F0100F2DD1636813F0200FEE
:1041F00032D106B101263046F8BD2E469BE700219C
:1042000004F10800FFF7D0F90028DED00646DCE70D
:10421000012104F10800FFF7C7F90028D9D00646AC
:10422000D7E7022104F10800FFF7BEF90028D4D037
:104230000646D2E7002104F12800FFF739FA0028EA
:10424000CFD00646CDE7012104F12800FFF730FA70
:104250000028CAD00646C8E7022104F12800FFF76B
:1042600027FA0028C5D00126C5E700BF0044025840
:1042700008B5FFF753F9054B1B6AC3F30213044A51
:10428000D35C03F01F03D84008BD00BF00440258B0
:1042900008A6000810B4794B9A6A9C6AC4F3053CDE
:1042A000D96AC1F30011DB6BC3F3CC0301FB03F349
:1042B00014F47C3F00F0DD8002F0030207EE903A38
:1042C000F8EE677A012A4BD0022A00F09880002A83
:1042D00040F0B280694B1B6813F0200F23D0674970
:1042E0000A68C2F3C102664BD34007EE103AF8EEFB
:1042F000476A07EE10CAB8EE476A86EE867A8B6B7D
:10430000C3F3080306EE903AF8EE666A9FED5D6A25
:1043100067EE867A76EEA77AF7EE006A77EEA67AEF
:1043200027EE277A38E007EE10CAF8EE476A9FEDCD
:10433000566A86EE267A514B9B6BC3F3080306EE52
:10434000903AF8EE666A9FED4F6A67EE867A76EEEF
:10435000A77AF7EE006A77EEA67A27EE277A1BE0B7
:1043600007EE10CAF8EE476A9FED486A86EE267A95
:10437000424B9B6BC3F3080306EE903AF8EE666A75
:104380009FED406A67EE867A76EEA77AF7EE006ACE
:1043900077EEA67A27EE277A384A936BC3F3462343
:1043A00007EE903AF8EE677AF7EE006A77EEA67AB3
:1043B00087EE276ABCEEC66A80ED006A936BC3F392
:1043C000064307EE903AF8EE677A77EEA67A87EE24
:1043D000276ABCEEC66A80ED016A936BC3F306637D
:1043E00007EE903AF8EE677A77EEA67AC7EE276A7C
:1043F000FCEEE66AC0ED026A5DF8044B704707EE1A
:1044000010CAF8EE476A9FED226A86EE267A1B4BA9
:104410009B6BC3F3080306EE903AF8EE666A9FEDD5
:10442000196A67EE867A76EEA77AF7EE006A77EE7B
:10443000A67A27EE277AAFE707EE10CAF8EE476AAA
:104440009FED126A86EE267A0C4B9B6BC3F3080332
:1044500006EE903AF8EE666A9FED0A6A67EE867A93
:1044600076EEA77AF7EE006A77EEA67A27EE277A3D
:1044700092E70023036043608360BDE70044025875
:104480000090D003000000390024744C0024744ACA
:1044900020BCBE4B10B4794B9A6A9C6AC4F3055C8D
:1044A000D96AC1F300215B6CC3F3CC0301FB03F3B6
:1044B00014F07C7F00F0DD8002F0030207EE903AFA
:1044C000F8EE677A012A4BD0022A00F09880002A81
:1044D00040F0B280694B1B6813F0200F23D067496E
:1044E0000A68C2F3C102664BD34007EE103AF8EEF9
:1044F000476A07EE10CAB8EE476A86EE867A0B6CFA
:10450000C3F3080306EE903AF8EE666A9FED5D6A23
:1045100067EE867A76EEA77AF7EE006A77EEA67AED
:1045200027EE277A38E007EE10CAF8EE476A9FEDCB
:10453000566A86EE267A514B1B6CC3F3080306EECF
:10454000903AF8EE666A9FED4F6A67EE867A76EEED
:10455000A77AF7EE006A77EEA67A27EE277A1BE0B5
:1045600007EE10CAF8EE476A9FED486A86EE267A93
:10457000424B1B6CC3F3080306EE903AF8EE666AF2
:104580009FED406A67EE867A76EEA77AF7EE006ACC
:1045900077EEA67A27EE277A384A136CC3F34623C0
:1045A00007EE903AF8EE677AF7EE006A77EEA67AB1
:1045B00087EE276ABCEEC66A80ED006A136CC3F30F
:1045C000064307EE903AF8EE677A77EEA67A87EE22
:1045D000276ABCEEC66A80ED016A136CC3F30663FA
:1045E00007EE903AF8EE677A77EEA67AC7EE276A7A
:1045F000FCEEE66AC0ED026A5DF8044B704707EE18
:1046000010CAF8EE476A9FED226A86EE267A1B4BA7
:104610001B6CC3F3080306EE903AF8EE666A9FED52
:10462000196A67EE867A76EEA77AF7EE006A77EE79
:10463000A67A27EE277AAFE707EE10CAF8EE476AA8
:104640009FED126A86EE267A0C4B1B6CC3F30803AF
:1046500006EE903AF8EE666A9FED0A6A67EE867A91
:1046600076EEA77AF7EE006A77EEA67A27EE277A3B
:1046700092E70023036043608360BDE70044025873
:104680000090D003000000390024744C0024744AC8
:1046900020BCBE4B10B4794B9A6A9C6AC4F3051CCB
:1046A000D96A01F001015B6BC3F3CC0301FB03F397
:1046B00014F47C7F00F0DD8002F0030207EE903AF4
:1046C000F8EE677A012A4BD0022A00F09880002A7F
:1046D00040F0B280694B1B6813F0200F23D067496C
:1046E0000A68C2F3C102664BD34007EE103AF8EEF7
:1046F000476A07EE10CAB8EE476A86EE867A0B6BF9
:10470000C3F3080306EE903AF8EE666A9FED5D6A21
:1047100067EE867A76EEA77AF7EE006A77EEA67AEB
:1047200027EE277A38E007EE10CAF8EE476A9FEDC9
:10473000566A86EE267A514B1B6BC3F3080306EECE
:10474000903AF8EE666A9FED4F6A67EE867A76EEEB
:10475000A77AF7EE006A77EEA67A27EE277A1BE0B3
:1047600007EE10CAF8EE476A9FED486A86EE267A91
:10477000424B1B6BC3F3080306EE903AF8EE666AF1
:104780009FED406A67EE867A76EEA77AF7EE006ACA
:1047900077EEA67A27EE277A384A136BC3F34623BF
:1047A00007EE903AF8EE677AF7EE006A77EEA67AAF
:1047B00087EE276ABCEEC66A80ED006A136BC3F30E
:1047C000064307EE903AF8EE677A77EEA67A87EE20
:1047D000276ABCEEC66A80ED016A136BC3F30663F9
:1047E00007EE903AF8EE677A77EEA67AC7EE276A78
:1047F000FCEEE66AC0ED026A5DF8044B704707EE16
:1048000010CAF8EE476A9FED226A86EE267A1B4BA5
:104810001B6BC3F3080306EE903AF8EE666A9FED51
:10482000196A67EE867A76EEA77AF7EE006A77EE77
:10483000A67A27EE277AAFE707EE10CAF8EE476AA6
:104840009FED116A86EE267A0C4B1B6BC3F30803AF
:1048500006EE903AF8EE666A9FED0A6A67EE867A8F
:1048600076EEA77AF7EE006A77EEA67A27EE277A39
:1048700092E70023036043608360BDE70044025871
:104880000090D003000000390024744C0024744AC6
:1048900020BCBE4B00B58BB0A0F580730B432DD070
:1048A000A0F500730B437CD0A0F580630B4300F0B0
:1048B000D080A0F500630B4300F02881A0F5805361
:1048C0000B4300F08781A0F500530B4300F0DF811C
:1048D000A0F500230B4300F02882A0F580330B43A2
:1048E00000F06B82A0F580430B4300F08D82A0F5B1
:1048F0000040084300F0D68200200CE0934B1B6D73
:1049000003F00703042B00F2F782DFE803F007113E
:104910001B0325008E480BB05DF804FB8B4B186819
:1049200010F00070F7D007A8FFF7B4FE0898F2E780
:10493000864B186810F00060EDD004A8FFF7AAFCC1
:104940000498E8E7814B186810F00050E3D001A804
:10495000FFF7A0FD0198DEE77C4AD36C03F04053DB
:10496000126812F0040F07D033B9784B1B68C3F3F9
:10497000C1037848D840CEE7744A126812F4807FA9
:1049800003D0B3F1805F00F0B982704A126812F46C
:10499000003F00F0B582B3F1005F00F0B382002069
:1049A000B9E76A4B1B6D03F4E073802B31D015D946
:1049B000C02B00F0A982B3F5807F1ED1634AD36C6F
:1049C00003F04053126812F0040F2DD063BB5F4B0D
:1049D0001B68C3F3C1035F48D8409CE77BB1402B01
:1049E00009D15A4B186810F0006094D004A8FFF762
:1049F00051FC04988FE700208DE700208BE7534B94
:104A0000186810F0007086D007A8FFF743FE0898DA
:104A100081E74E4B186810F000503FF47CAF01A8BE
:104A2000FFF738FD019876E7484A126812F4807F54
:104A300003D0B3F1805F00F06982444A126812F437
:104A4000003F00F06582B3F1005F00F06382002058
:104A500061E73E4B9B6D03F46003B3F5800F35D0E7
:104A600016D9B3F5C00F00F05782B3F5000F20D16F
:104A7000364AD36C03F04053126812F0040F30D062
:104A80007BBB324B1B68C3F3C1033248D84042E7BB
:104A90008BB1B3F5001F0AD12C4B186810F00060E1
:104AA0003FF439AF04A8FFF7F5FB049833E7002083
:104AB00031E700202FE7254B186810F000703FF415
:104AC0002AAF07A8FFF7E6FD089824E71F4B1868F0
:104AD00010F000503FF41FAF01A8FFF7DBFC019876
:104AE00019E71A4A126812F4807F03D0B3F1805F8D
:104AF00000F01482154A126812F4003F00F0108290
:104B0000B3F1005F00F00E82002004E70F4B9B6DB5
:104B100003F0E063B3F1007F3CD01DD9B3F1407FD7
:104B200000F00282B3F1806F27D1084AD36C03F002
:104B30004053126812F0040F37D0002B35D1034BCD
:104B40001B68C3F3C1030348D840E4E6004402589D
:104B50000080BB000090D0038BB1B3F1807F0AD1FD
:104B60009A4B186810F000603FF4D5AE04A8FFF728
:104B700091FB0498CFE60020CDE60020CBE6934BD6
:104B8000186810F000703FF4C6AE07A8FFF782FD6A
:104B90000898C0E68D4B186810F000503FF4BBAE8B
:104BA00001A8FFF777FC0198B5E6884A126812F46D
:104BB000807F03D0B3F1805F00F0B881834A126830
:104BC00012F4003F00F0B481B3F1005F00F0B28155
:104BD0000020A0E67D4B1B6D03F4E043B3F5005FBE
:104BE00035D016D9B3F5405F00F0A681B3F5804FFC
:104BF00020D1764AD36C03F04053126812F0040FB0
:104C000030D07BBB714B1B68C3F3C1037048D840E5
:104C100081E68BB1B3F5805F0AD16C4B186810F058
:104C200000603FF478AE04A8FFF734FB049872E606
:104C3000002070E600206EE6644B186810F00070EB
:104C40003FF469AE07A8FFF725FD089863E65F4BC0
:104C5000186810F000503FF45EAE01A8FFF71AFC90
:104C6000019858E6594A126812F4807F03D0B3F1D4
:104C7000805F00F06381554A126812F4003F00F033
:104C80005F81B3F1005F00F05D81002043E64F4B90
:104C90001B6D03F4E023B3F5403F32D00BD8B3F5DE
:104CA000803F18D0B3F5003F20D013B9FEF758FC71
:104CB00031E600202FE6B3F5802F2ED0B3F5A02FDC
:104CC00007D1424B186810F400303FF424AE41483D
:104CD00021E600201FE63D4B186810F000603FF40D
:104CE0001AAE04A8FFF7D6FA059814E6374B1868F1
:104CF00010F000503FF40FAE01A8FFF7CBFB029875
:104D000009E6324B186810F004003FF404AE1B684B
:104D1000C3F3C1032E48D840FDE52C4B186810F4AE
:104D200080703FF4F8AD2C48F5E5284B9B6D03F4FB
:104D30004033B3F5803F10D0B3F5003F18D0002BBF
:104D400040F00281214B186810F000603FF4E3ADA1
:104D500004A8FFF79FFA0498DDE51C4B186810F0D3
:104D600000503FF4D8AD01A8FFF794FB0398D2E5BB
:104D7000164AD36C03F04053126812F0040F07D0A8
:104D800033B9124B1B68C3F3C1031148D840C2E5C5
:104D90000E4A126812F4807F03D0B3F1805F00F0F6
:104DA000D5800A4A126812F4003F00F0D180B3F1B6
:104DB000005F00F0CF800020ADE5044BDB6C13F406
:104DC00080330BD0ABB90020A5E500BF00440258EA
:104DD0000090D00340787D0100093D005F4B1868CA
:104DE00010F000703FF497AD07A8FFF753FC089848
:104DF00091E55A4B186810F000603FF48CAD04A8A0
:104E0000FFF748FA069886E5544B9B6D03F0E043A4
:104E1000B3F1405F32D00BD8B3F1805F18D0B3F15B
:104E2000005F20D013B9FFF723FA74E5002072E584
:104E3000B3F1804F2ED0B3F1A04F07D1474B186884
:104E400010F400303FF467AD454864E5002062E5AA
:104E5000424B186810F000603FF45DAD04A8FFF706
:104E600019FA059857E53D4B186810F000503FF4CB
:104E700052AD01A8FFF70EFB02984CE5374B1868BE
:104E800010F004003FF447AD1B68C3F3C10335487D
:104E9000D84040E5314B186810F480703FF43BADCA
:104EA000314838E52D4B1B6D03F04053B3F1805F63
:104EB0000CD0B3F1005F14D0002B4DD1274B1868F4
:104EC00010F400303FF427AD254824E5234B186843
:104ED00010F000703FF41FAD07A8FFF7DBFB089848
:104EE00019E51E4B186810F000603FF414AD04A8DB
:104EF000FFF7D0F905980EE500200CE51A480AE501
:104F0000002008E5164806E5184804E5164802E5BD
:104F1000002000E51248FEE41448FCE41248FAE4DC
:104F20000020F8E40E48F6E41048F4E40E48F2E4F9
:104F30000020F0E40A48EEE40C48ECE40A48EAE415
:104F40000020E8E40648E6E40020E4E40648E2E461
:104F50000020E0E40248DEE40020DCE400440258E3
:104F600040787D010090D00300093D000080BB0027
:104F700070B582B0044600230193006801F0AEFDD5
:104F8000054610B1284602B070BD206802F052F804
:104F9000B0F1004F07D00123E363E36B012B0BD08B
:104FA0002E46284614E00023E363206801F096FDB6
:104FB0000028F2D00546E5E70021206801F084FED4
:104FC0000028EDD04FF08055DCE7019B01330193C1
:104FD000019A4FF6FE739A4213D896B900212068C1
:104FE00001F072FED0B91249206801F06FFF064649
:104FF000B0B90021206801F05CFDC30FE5D01E466A
:10500000E3E7019A4FF6FE739A420CD80023A3639C
:1050100010F080430AD00123A363B3E70546B1E74C
:105020004FF08055AEE74FF08075ABE71D46A9E71E
:10503000000010C1F0B587B005460E46FBF736FEFE
:1050400007460021286801F034FD10F0007F64D18C
:105050004021286801F006FE034610B16A6B6A63BE
:105060005DE0696C0904286801F02EFE034610B16A
:105070006A6B6A6353E04FF0FF3300934023019360
:1050800060230293022303930023049301230593D7
:105090006946286801F010FD286801F079FE034692
:1050A00080B16A6B6A633AE0286801F0DFFC46F879
:1050B000040B0134072CF7D9FBF7F8FDC01BB0F146
:1050C000FF3F2FD02B685C6B14F4957404D15B6B9D
:1050D00013F4004FF0D0EDE75A6B12F0080F24D113
:1050E0005A6B12F0020F22D15B6B13F0200F20D10C
:1050F0002868436B13F480530CD001F0B7FC46F8DA
:10510000040BFBF7D3FDC01BB0F1FF3FF0D14FF014
:10511000004304E0084A826301E04FF4006318464C
:1051200007B0F0BD4FF00043F9E70823F7E702238B
:10513000F5E72023F3E700BF3A0F0018F0B589B078
:1051400004460F46FBF7B2FD05460023009301938A
:105150000821206801F086FD064610B1304609B0EE
:10516000F0BD616C0904206801F0AEFD0646002820
:10517000F4D14FF0FF3302930823039330230493B9
:1051800002230593002306930123079302A92068B5
:1051900001F092FC206801F0C9FD064630B1DDE760
:1051A000FBF784FD431BB3F1FF3F46D02068426B01
:1051B00040F22A531A420ED1436B13F4002FEFD161
:1051C000002EEDD101F052FC0090206801F04EFC61
:1051D00001900136E4E7436B13F0080F24D1436BD1
:1051E00013F0020F23D1466B16F0200622D1144B88
:1051F0008363019A130203F47F0343EA0263110AF3
:1052000001F47F410B4343EA12633B60009A1302AF
:1052100003F47F0343EA0263110A01F47F410B4365
:1052200043EA12637B6099E70826866396E70226C5
:10523000866393E72026866390E74FF000468DE76C
:105240003A0F001810B582B0044600210091019178
:10525000006801F02EFC10F0007F13D16946204653
:10526000FFF76CFF80B9019B13F4802F0ED0616CA7
:105270000904206801F028FD30B90221206801F0FE
:105280003CFD01E04FF4006002B010BD4FF08060C3
:10529000FAE710B582B00446002100910191006840
:1052A00001F007FC10F0007F13D169462046FFF79C
:1052B00045FF80B9019B13F4803F0ED0616C090457
:1052C000206801F001FD30B90021206801F015FDD2
:1052D00001E04FF4006002B010BD4FF08060FAE7CB
:1052E00070B581B104460E46416C0904006801F0B6
:1052F00036FD054608B1284670BD0021206801F042
:10530000D8FB3060F7E74FF00065F4E70346C26D65
:10531000920F0A70C26DC2F383624A7090F85F20E8
:1053200002F003028A7090F85E20CA7090F85D2047
:105330000A7190F85C204A71026E120DCA80B0F8B2
:10534000622002F00F020A72026EC2F3C0324A7289
:10535000026EC2F380328A72026EC2F34032CA72A7
:10536000026EC2F300320A7300224A73826B002A73
:1053700040F08680006E40F6FC7202EA8002586EB1
:1053800042EA90720A615A6EC2F3C2620A7593F8D9
:10539000672002F007024A755A6EC2F342528A75BC
:1053A0005A6EC2F38242CA755A6EC2F3C2320A768C
:1053B0000A6901329A64087E00F0070002308240D8
:1053C0009A6491F808C00CF00F0C012000FA0CF060
:1053D000D864400A00FB02F21A654FF400725A6565
:1053E0005A6EC2F380324A765A6EC2F3C6128A7679
:1053F0005A6E02F07F02CA769A6ED20F0A779A6EC0
:10540000C2F341724A779A6EC2F382628A779A6EC9
:10541000C2F38352CA779A6EC2F3405281F82020B9
:10542000002081F82100B3F86A2002F0010281F81F
:1054300022209A6EC2F3C03281F823209A6EC2F302
:10544000803281F824209A6EC2F3403281F8252000
:105450009A6EC2F3003281F826209A6EC2F381223E
:1054600081F827209A6EC2F3012281F828209B6ED2
:10547000C3F3460381F82930012381F82A307047AD
:10548000012A11D1026E120402F47C12B0F86600F7
:1054900002430A610A69013292029A641A654FF462
:1054A0000072DA645A659BE7026805499163426BB2
:1054B00042F080524263012083F83000704700BF01
:1054C000FF0FE01F30B58DB004460023ADF8023069
:1054D000FBF7ECFB0546206801F0D1FA002867D005
:1054E000A36B032B17D1A36B032B2FD0BDF8023076
:1054F00063BB0DF10201206801F050FD0346002856
:1055000058D1FBF7D3FB431B41F287329342EDD9CD
:105510004FF000434EE0206801F084FC0346002871
:1055200048D10021206801F0C4FAE0660421206817
:1055300001F0BFFA20670821206801F0BAFA60671D
:105540000C21206801F0B5FAA067CCE7A36B032B10
:105550001CD0BDF8021061640904206801F078FCD9
:10556000034638BB0021206801F0A3FAE06504215E
:10557000206801F09EFA20660821206801F099FA5F
:1055800060660C21206801F094FAA066042120686E
:1055900001F08FFA000D206401A92046FFF7B6FE46
:1055A00058B9616C0904206801F075FB034601E0FD
:1055B0004FF0806318460DB030BD4FF08053F9E7CF
:1055C00070B588B0044600230393049305930693B3
:1055D0004FF480300021FFF75DF938B9012084F8DD
:1055E00030004FF00063636308B070BD0646050AE3
:1055F000244BA3FB05352D09079508AB13E90300E0
:105600008DE8030003AB0ECB206801F017FA206889
:1056100001F02FFA1C4B9E4202D96D00B6FBF5F645
:105620005EB92046FFF7A4FC024668B1012084F869
:105630003000636B13436363D6E71448B0FBF6F0A6
:105640000130FBF739FBECE72046FFF73BFF024652
:1056500030B1012084F83000636B13436363C3E708
:105660004FF40071206801F0FDFA08B90020BBE793
:10567000236807499963636B03436363012084F8DC
:105680003000B1E7598B4F01FF340C0010210100AD
:10569000FF0FE01F30B591B090F83030032B59D098
:1056A00004460D466946FFF7C5FCB8B123682B498F
:1056B0009963636B03436363012584F830504FF4AF
:1056C0000071206801F0CEFA002844D022682349F6
:1056D00091636063012584F830503CE0009AC2F386
:1056E00081132B70C2F340136B70130A23F0FF0376
:1056F00043EA12639BB26B80019A130203F47F03A7
:1057000043EA0263110A01F47F410B4343EA126347
:105710006B60029BDAB22A72C3F307226A72C3F388
:105720000352AA721B0C039AD1B223F0FF030B435E
:10573000AB81C2F38523AB73C2F30123EB73C2F3D6
:1057400003132B7402F00F026A749DF81330AB74CC
:105750000025B4E70125284611B030BDFF0FE01F3A
:1057600030B589B004460D46032380F83030836B92
:10577000032B1CD0B1F5004F08D0B1F5804F0AD0F3
:1057800079B1436B43F00063436314E0436B43F030
:10579000805343630FE0FFF755FD636B034363637F
:1057A00009E0FFF776FD636B0343636303E0436B3C
:1057B00043F080534363636BB3B123683A4A9A63FF
:1057C00001254FF40071206801F04CFA30B12368D4
:1057D00035499963636B034363630125012384F8AF
:1057E0003030284609B030BD4FF480300021FFF73B
:1057F00051F80246002850D063680393A3680493CD
:105800000595236906936169284BA3FB0203180ED3
:10581000B1EB136F0CD3079108AB13E903008DE8CC
:10582000030003AB0ECB206801F008F90025C8E7A0
:10583000A36DB3F5007F08D0B3F5807F07D011BB0F
:105840001B4B9A421DD90790E6E70791E4E751B94F
:10585000184B9A4205D9154BA3FB02235B0E079305
:10586000DAE70791D8E74B00B2FBF3F31148834224
:1058700005D90E4BA3FB02235B0E0793CCE70791E0
:10588000CAE70791C8E74B00B2FBF3F2084B9A4214
:1058900001D90790C0E70791BEE7636B43F000634F
:1058A000636301258DE700BFFF0FE01F893BE655CD
:1058B00040787D0180F0FA0210B582B004460023E2
:1058C000019301A9FFF70CFD10B1636B0343636300
:1058D0000198C0F3432002B010BD70B586B0002817
:1058E00054D0044690F8303053B1042384F830305B
:1058F0002046FFF765FE38B10125284606B070BD89
:105900000376FBF705FFF0E701A92046FFF7C2FE8B
:1059100000283DD19DF81430DBB29DF81520D2B29D
:10592000A16B01290BD001290FD00023A365E168E9
:105930002046FFF715FF054658B10125DDE7134363
:10594000F1D04FF40073A365F1E74FF48073A365C2
:10595000EDE7FBF7ABF906462046FFF7ADFF04285D
:105960000DD0FBF7A3F9801BB0F1FF3FF4D14FF04E
:1059700000436363012384F830300325BDE700232F
:105980006363E362012384F83030B6E70125B4E7AE
:105990000125B2E7C36B5B09C0680830C00803FB90
:1059A00000007047002800F0B78070B5044600235F
:1059B000836205685C4B5D4E9D4218BFB54214BFC3
:1059C0000126002607D0A3F574439D4203D0C36887
:1059D0000F2B00F2A3802046FFF7DCFF2EB1544BC3
:1059E0009D4202D0082800F29B804F4A4F4B9D42B7
:1059F00018BF954203D003F580639D4202D1102861
:105A000000F2908094F88130F3B1022384F8813061
:105A10002268136823F00103136023689A6802F474
:105A2000F812A169B1F1806F14D0636813F4800F8C
:105A300023D0E368062B20D921680B6823F48073F8
:105A4000206D03430B601DE084F880302046FBF797
:105A5000CDFEDAE76168B1F5800F06D00029E4D108
:105A6000A16BB1F1805FE0D102E0A06B0028F5D11D
:105A7000196841F480511960D7E721680B6823F455
:105A800080730B60E369A16A0B431343E26B13431A
:105A9000E16822680B439360636B626A1343A26BF5
:105AA0001343A26913432269134362691343226AB1
:105AB000134362681343E26C1343A2681343A26C5E
:105AC0001343A16D22680B43D36063686BB92268EE
:105AD000936823F4C05343F400639360226893688F
