:020000040800F2
:10000000000002203D7B00084D5800084F580008B2
:1000100051580008535800085558000800000000C7
:100020000000000000000000000000005758000819
:1000300059580008000000005B5800085D5800088F
:10004000917B0008917B0008917B0008917B000860
:10005000917B0008917B0008917B0008917B000850
:10006000917B0008917B0008917B0008917B000840
:10007000917B0008917B0008917B0008917B000830
:10008000917B0008917B0008917B0008917B000820
:10009000917B0008917B0008917B0008917B000810
:1000A000917B0008917B0008917B0008917B000800
:1000B000917B0008917B0008917B0008917B0008F0
:1000C000917B0008917B0008917B0008917B0008E0
:1000D000917B0008917B0008917B0008917B0008D0
:1000E000917B0008917B000800000000917B0008D4
:1000F000917B0008917B0008917B0008917B0008B0
:10010000917B0008917B0008917B0008917B00089F
:10011000917B0008917B0008917B0008917B00088F
:10012000917B0008917B0008917B0008917B00087F
:10013000917B0008917B0008917B0008917B00086F
:1001400000000000000000000000000000000000AF
:10015000917B0008917B0008917B0008917B00084F
:10016000917B0008917B0008917B0008917B00083F
:10017000917B0008917B0008917B0008917B00082F
:10018000917B0008917B0008917B0008917B00081F
:10019000917B0008917B0008917B0008917B00080F
:1001A000917B0008917B0008917B0008917B0008FF
:1001B000917B0008917B0008917B0008917B0008EF
:1001C000917B0008917B0008917B0008917B0008DF
:1001D000917B000865580008917B0008917B00081E
:1001E000917B0008917B0008917B0008917B0008BF
:1001F000917B0008917B0008917B0008917B0008AF
:10020000917B0008917B0008917B0008917B00089E
:10021000917B0008917B0008917B0008917B00088E
:10022000917B0008917B0008917B00080000000092
:10023000917B0008917B000800000000917B000882
:10024000917B0008917B0008917B0008917B00085E
:10025000917B0008917B0008917B0008917B00084E
:10026000917B0008917B0008917B0008917B00083E
:10027000917B0008917B0008917B00080000000042
:10028000917B0008917B0008917B00080000000032
:0802900000000000917B000852
:1002A00001F0FF01102A2BDB10F0070F08D010F827
:1002B000013B013A8B422DD010F0070F42B3F6D12B
:1002C000F0B441EA012141EA014122F007047FF044
:1002D00000070023F0E80256083C85EA010586EA9B
:1002E000010685FA47F5A3FA87F586FA47F6A5FAD7
:1002F00087F68EB9EED1F0BC01F0FF0102F00702E3
:1003000032B110F8013B013A83EA010313B1F8D18D
:100310000020704701387047002D06BF354603386E
:10032000073815F0010F07D1013015F4807F02BFA7
:10033000013015F4C03F0130F0BC0138704700BFF8
:1003400053B94AB9002908BF00281CBF4FF0FF313C
:100350004FF0FF3000F00CB8ADF1080C6DE904CEA1
:1003600008F08CFBDDF804E0DDE9022304B07047FF
:10037000704700BF10B5054C237833B9044B13B157
:100380000448AFF300800123237010BD5C010020FE
:1003900000000000748D000808B5034B1BB1034931
:1003A0000348AFF3008008BD00000000600100209A
:1003B000748D000810B4064C8446BCE80F000FC4CE
:1003C0009CE8030084E803005DF8044B704700BF1D
:1003D0007801002010B5072815D8DFE800F00415D3
:1003E000263748596A7B444C0122A188206801F0D5
:1003F000A5F80122A189A06801F0A0F80122A18A34
:10040000206901F09BF810BD3B4C0022A1882068B8
:1004100001F094F80122A189A06801F08FF801226F
:10042000A18A206901F08AF8EDE7334C0122A18806
:10043000206801F083F80022A189A06801F07EF80D
:100440000122A18A206901F079F8DCE72A4C012217
:10045000A188206801F072F80122A189A06801F04A
:100460006DF80022A18A206901F068F8CBE7224CE0
:100470000022A188206801F061F80022A189A0680B
:1004800001F05CF80122A18A206901F057F8BAE76F
:10049000194C0122A188206801F050F80022A1899E
:1004A000A06801F04BF80022A18A206901F046F80B
:1004B000A9E7114C0022A188206801F03FF8012231
:1004C000A189A06801F03AF80022A18A206901F010
:1004D00035F898E7084C0022A188206801F02EF832
:1004E0000022A189A06801F029F80022A18A2069D0
:1004F00001F024F887E700BF7801002008B501204B
:10050000FFF768FF4FF4FA7000F0F6FB0220FFF7E8
:1005100061FF4FF4FA7000F0EFFB0320FFF75AFF82
:100520004FF4FA7000F0E8FB0420FFF753FF4FF49C
:10053000FA7000F0E1FB0520FFF74CFF4FF4FA7072
:1005400000F0DAFB0620FFF745FF4FF4FA7000F0E9
:10055000D3FB0720FFF73EFF4FF4FA7000F0CCFB0F
:100560000020FFF737FF08BD30B585B000240094A8
:1005700001940294039400F053FC01238DF80030A1
:100580008DF8014001941F228DF8082087228DF8F4
:1005900009208DF80A408DF80B408DF80C308DF84D
:1005A0000D308DF80E408DF80F40684600F056FC77
:1005B000042000F043FC05B030BD00002DE9F047F9
:1005C0008CB007AD00240794089409940A940B9406
:1005D000504BD3F8E02042F01002C3F8E020D3F8EB
:1005E000E02002F010020192019AD3F8E02042F0DC
:1005F0000402C3F8E020D3F8E02002F004020292E3
:10060000029AD3F8E02042F08002C3F8E020D3F849
:10061000E02002F080020392039AD3F8E02042F037
:100620000102C3F8E020D3F8E02002F001020492B6
:10063000049AD3F8E02042F00202C3F8E020D3F895
:10064000E02002F002020592059AD3F8E02042F081
:100650000802C3F8E020D3F8E03003F00803069363
:10066000069BDFF8B8A022461021504600F066FF36
:10067000DFF8AC80224640F20221404600F05EFFE7
:10068000254F22464FF4E051384600F057FF012233
:100690004FF4E041404600F051FFDFF888902246D9
:1006A0007C21484600F04AFF102307930126089654
:1006B00009940A942946504600F030FE47F202237E
:1006C0000793089609940A942946404600F026FEAE
:1006D0004FF4E0530793089609940A942946384644
:1006E00000F01CFE4FF4604307934FF48813089307
:1006F00009942946384600F011FE7C23079308969A
:1007000009940A942946484600F008FE0CB0BDE85A
:10071000F08700BF00440258001002580008025839
:1007200000040258000C025872B6FEE708B51348E0
:10073000134B03604FF48003436000238360032264
:10074000C260036143614FF080628261C3610362F2
:1007500043628362C3624FF0804242638363C36338
:10076000036443648364C36403654365836503F082
:10077000C7FE00B908BDFFF7D7FF00BF4405002042
:100780000030014008B51348134B03604FF4800359
:100790004360002383600322C260036143614FF022
:1007A00080628261C361036243628362C3624FF00D
:1007B000804242638363C363036443648364C364AA
:1007C00003654365836503F09BFE00B908BDFFF731
:1007D000ABFF00BFBC040020003C004008B513483C
:1007E000134B03604FF480034360002383600322B4
:1007F000C260036143614FF080628261C361036242
:1008000043628362C3624FF0804242638363C36387
:10081000036443648364C36403654365836503F0D1
:100820006FFE00B908BDFFF77FFF00BF3404002052
:100830000034014008B51348134B03604FF48003A4
:100840004360002383600322C260036143614FF071
:1008500080628261C361036243628362C3624FF05C
:10086000804242638363C363036443648364C364F9
:1008700003654365836503F043FE00B908BDFFF7D8
:1008800053FF00BFAC0300200014005808B5164801
:10089000164B03604FF4E133436000218160C16077
:1008A00001610C2343618161C16101624162816226
:1008B0000A4604F0DFFE70B900210B4804F067FF20
:1008C00058B90021084804F087FF40B9064804F0F1
:1008D0003FFF30B908BDFFF727FFFFF725FFFFF700
:1008E00023FFFFF721FF00BF38020020007C0040FB
:1008F00008B50748074B036000234360402282602D
:10090000C260036104F08DFF00B908BDFFF70CFF62
:10091000900100200030005008B51648164B0360C7
:100920004FF4E133436000218160C16001610C2319
:1009300043618161C1610162416281620A4604F0E2
:1009400099FE70B900210B4804F021FF58B900212D
:10095000084804F041FF40B9064804F0F9FE30B9F8
:1009600008BDFFF7E1FEFFF7DFFEFFF7DDFEFFF753
:10097000DBFE00BFCC020020004C004008B514484C
:10098000144B036000238360C36003744374837457
:100990001022426101228261C2610262426282626D
:1009A000C262026343638363C363036404224264D9
:1009B0008364C264036542658365C36503664366F9
:1009C000826600F061FB00B908BDFFF7ADFE00BF15
:1009D000CC05002000A0004008B51548154B036069
:1009E0004FF4E133436000238360C36003610C2252
:1009F00042618361C36103624362836204F007FE64
:100A000070B900210A4804F0C2FE58B90021084814
:100A100004F0E2FE40B9064804F09AFE30B908BD81
:100A2000FFF782FEFFF780FEFFF77EFEFFF77CFEFA
:100A3000A40100200010014010B596B000241394CA
:100A4000149415940C940D940E940F941094119486
:100A500012942C22214601A807F0BEF92448254B08
:100A60000360446084604FF6FF73C36004614461B7
:100A7000846103F0D9FF002831D10023139314932C
:100A8000159313A91A4804F0E7F8002829D1602328
:100A90000C9300220D920E920F92109211921292CC
:100AA0000CA9134804F03AF8E8B900230193029323
:100AB0000393049305934FF400520692079308930F
:100AC0004FF0007209920A930B9301A9084804F0B1
:100AD00013F950B9064800F0FBFE16B010BDFFF741
:100AE00023FEFFF721FEFFF71FFEFFF71DFE00BFED
:100AF000600300200000014000B59DB04C220021A1
:100B000009A807F069F92022002101A807F064F97B
:100B1000022001F057FE00230093274BDA6A22F0EF
:100B20000102DA62DB6A03F001030093234A93694E
:100B300023F4404343F480439361936903F44043B7
:100B40000093009B1D4B9B6913F4005FFAD0222396
:100B5000099301230C9340220D920F9302231293C9
:100B600000221392042114910A2115911693122147
:100B7000179118930C2119911A931B9209A801F04F
:100B800053FEA8B93F230193032302930023039349
:100B900004930593402306934FF4806207920893D1
:100BA000012101A802F094FA20B91DB05DF804FB00
:100BB000FFF7BAFDFFF7B8FD0004005800480258DF
:100BC00000B587B0FFF7D0FC00F056F8FFF794FFB0
:100BD000EC46DFF850E0BEE80F00ACE80F009EE8FE
:100BE00003008CE803006846FFF7E4FBFFF7E6FC30
:100BF000FFF79CFDFFF7C6FDFFF7F0FDFFF71AFEBC
:100C0000FFF744FEFFF774FEFFF786FEFFF7B6FE20
:100C1000FFF7E2FEFFF710FF05F0C0FCFFF76EFCE8
:100C2000FCE700BF8C8D0008104B1B780BB901202E
:100C3000704710B504464FF47A70B0FBF3F30C4ADA
:100C40001068B0FBF3F000F0D7F868B90F2C01D9A9
:100C500001200AE0002221464FF0FF3000F0B8F8F2
:100C6000044B1C60002000E0012010BD00000020AB
:100C70000C0000200400002010B5032000F096F8BE
:100C800002F02AF90F498B69C3F303230E4AD35CA0
:100C900003F01F03D8408B6903F00F03D35C03F00C
:100CA0001F0320FA03F3094A1360094B18600F2051
:100CB000FFF7BAFF10B10124204610BD044600F032
:100CC00043FCF9E700440258188E00080800002091
:100CD0000C000020034B1B78034A11680B4413607F
:100CE000704700BF000000206C060020014B186810
:100CF000704700BF6C06002038B50446FFF7F6FFCA
:100D00000546B4F1FF3F02D0044B1B781C44FFF7AB
:100D1000EDFF401BA042FAD338BD00BF0000002009
:100D2000014B1868000C70470010005C002807DBBE
:100D300000F01F02400901239340024A42F820308C
:100D4000704700BF00E100E0002804DB0901C9B2E0
:100D5000044B1954704700F00F000901C9B2024B4F
:100D60001954704700E400E014ED00E000B500F015
:100D70000700C0F1070CBCF1040F28BF4FF0040CB2
:100D8000031D062B0FD9C31E4FF0FF3E0EFA0CF0C9
:100D900021EA000199400EFA03FE22EA0E0241EA1E
:100DA00002005DF804FB0023EEE700000649CB6873
:100DB00023F4E0631B041B0C000200F4E060034317
:100DC000024A1A43CA60704700ED00E00000FA05CD
:100DD00010B50446054BD868C0F30220FFF7C6FFE4
:100DE00001462046FFF7B0FF10BD00BF00ED00E058
:100DF00008B5FFF79BFF08BD0138B0F1807F0BD22B
:100E00004FF0E0235861054AF02182F823100020BA
:100E1000986107221A6170470120704700ED00E0D9
:100E2000BFF35F8F044B5A6A22F480325A62002269
:100E3000C3F89420704700BF00ED00E040F00100CF
:100E4000054BC3F894005A6A42F480325A62BFF3E9
:100E50004F8FBFF36F8F704700ED00E04378144A67
:100E6000C2F89830D2F8A03023F00103C2F8A030C5
:100E70004368C2F89C30017BC37A1B0643EA0173C6
:100E8000817A43EAC143417B43EA8143817B43EA60
:100E90004143C17B43EA0143417A43EA0123017A9A
:100EA00043EA410301780B43C2F8A030704700BF0A
:100EB00000ED00E030B4416B0468D4F884306F4A30
:100EC000134043EA8103C4F884300468D4F88430C2
:100ED00023F47F03856B43EA0543C4F88430836BB6
:100EE0000B440468D4F88810114041EA8301C4F827
:100EF00088100468D4F8881021F4FE01C56B41EA1B
:100F00000541C4F88810C16B03EB41030468D4F8B1
:100F1000A010114041EA8301C4F8A0100468D4F87D
:100F2000A01021F4FE01056C41EA0541C4F8A010AF
:100F3000016C446C04FB01330468D4F8B010114018
:100F400041EA8301C4F8B0100468D4F8B01021F469
:100F5000FE01856C41EA0541C4F8B010816CC46C97
:100F600004FB01330468D4F8AC10114041EA83015A
:100F7000C4F8AC10016D446D04FB01330468D4F86F
:100F8000F010114041EA8301C4F8F0100468D4F86D
:100F9000F01021F47C11856D41EA0541C4F8F01090
:100FA000816D03EB41030468D4F8C0100A4042EAA3
:100FB0008303C4F8C0300268D2F8C03023F47C1335
:100FC000C16D43EA0143C2F8C0300268D2F8C030B4
:100FD00023F07C53016E43EA0163C2F8C030436BD7
:100FE000274A1A449200C266836B02EB83030367AD
:100FF000C16B03EBC1034367016C446C04FB01F15B
:1010000003EB81038367816CC46C04FB01F103EB88
:101010008103C367016D446D04FB01F103EB8103A0
:10102000C0F88030816D03EBC103C0F88430816E5D
:10103000C46D01FB04FC03EB8C03C0F88830046E24
:1010400004FB01F103EB8103C0F890300D498B42A2
:101050000DD9D0F89C3043F02003C0F89C30032316
:1010600080F89830012007E0002342F8043BD0F8D4
:1010700090309342F8D8002030BC70470300FFFF47
:10108000002B0010FCD3004030B595B004464C2234
:10109000A04901A806F01BFF002C00F0388123684E
:1010A0009D4A934220D094F898300BB322689369FC
:1010B00023F010039361FFF719FE054623689A6930
:1010C00012F0080F1AD0FFF711FE431B0A2BF5D9B7
:1010D000D4F89C3043F00103C4F89C30032384F817
:1010E0009830012015B030BD03F580736360DAE7F6
:1010F00084F89930204600F039FAD7E79A6942F02F
:1011000001029A61FFF7F2FD054623689A6912F021
:10111000010F0FD1FFF7EAFD401B0A28F5D9D4F8DB
:101120009C3043F00103C4F89C30032384F89830CA
:101130000120D7E79A6942F002029A61237C012BD1
:1011400040D02268936943F040039361637C012B94
:101150003ED02268936923F480439361A37C012BE2
:101160003CD02268936943F4805393612268936969
:1011700023F44073A1680B4393612268936923F0C1
:10118000A40393612268136923F010031361E368D9
:10119000012B29D0002B2CD0022B00F09B80226841
:1011A000936943F0800393612268136943F010034D
:1011B0001361E368032B1CD12268936943F0200379
:1011C000936116E02268936923F040039361BDE7C1
:1011D0002268936943F480439361BFE7226893696F
:1011E00023F480539361C1E72268936943F00403B9
:1011F0009361A3695A1EE369013B1B0243EA426300
:10120000226A013A13436269013A216843EA0243C0
:10121000CB61A368B3F5407F62D0236E33B12268FF
:10122000D2F8C030616E0B43C2F8C030E36D226E5D
:10123000D3420DD02168D1F8C83023F00703A26E45
:1012400014A800EB820252F84C2C1343C1F8C830AA
:10125000236C6BB12168D1F8BC3023F00703626CBA
:1012600014A800EB820252F84C2C1343C1F8BC3096
:10127000A36C73B12168D1F8BC3023F07003E26C29
:1012800014A800EB820252F84C2C43EA0213C1F876
:10129000BC30236D73B12168D1F8BC3023F4E06316
:1012A000626D14A800EB820252F84C2C43EA022330
:1012B000C1F8BC302268184B9A4222D00023C4F8EF
:1012C0009430C4F89C30012384F898302046FFF70E
:1012D000F1FD07E72268936943F02003936188E7F3
:1012E000A36A013BE26A013A43EA0223226B013A14
:1012F00043EA0213626A013A216843EA0243CB607F
:101300008BE76268936823F003039360D6E70120BC
:10131000E8E600BFA48D000800A00040F0B583B04F
:1013200000236BE085685E000324B44025EA0405D1
:10133000CC68B4402C438460456825EA0C054C68B1
:10134000C4F300149C402C43446069E0DD08083578
:1013500050F8254003F0070C4FEA8C0C4FF00F0EAD
:101360000EFA0CFE24EA0E0E0C6904FA0CF444EAA0
:101370000E0440F825406BE0092400E0002404FA44
:101380000EF42C430CF1020C694D45F82C404FF043
:10139000B0442568D44325EA02064F6817F4801F3D
:1013A00001D042EA05064FF0B0452E606D6804EAB0
:1013B00005064F6817F4001F01D042EA05064FF0FA
:1013C000B0456E60D5F8845004EA05064F6817F4FE
:1013D000003F01D042EA05064FF0B045C5F88460F1
:1013E000D5F880502C404E6816F4803F01D042EA78
:1013F00005044FF0B042C2F8804001330A6832FA67
:1014000003F400F092804FF0010C0CFA03FC1CEA8C
:101410000202F2D04C6804F00304013C012C81D993
:101420004C6804F00304032C0CD0C4685D004FF03A
:10143000030C0CFA05FC24EA0C0C8C68AC4044EA62
:101440000C04C4604C6804F00304022C3FF47EAF2B
:1014500004684FEA430E4FF0030C0CFA0EFC24EA2A
:101460000C0C4C6804F0030404FA0EF444EA0C0477
:1014700004604C6814F4403FBFD02E4CD4F8F450B4
:1014800045F00205C4F8F450D4F8F44004F0020426
:101490000194019C4FEA930C0CF10205244C54F882
:1014A000255003F0030E4FEA8E0E0F2404FA0EF4BB
:1014B00025EA0405204CA0423FF460AF04F58064A7
:1014C000A04222D004F58064A04220D004F58064BC
:1014D000A0421ED004F58064A0421CD004F58064B4
:1014E000A0421AD004F58064A04218D004F58064AC
:1014F000A04216D004F58064A04214D004F58064A4
:10150000A0423FF439AF0A2439E7012437E7022427
:1015100035E7032433E7042431E705242FE70624C5
:101520002DE707242BE7082429E703B0F0BD00BF0F
:101530000004005800440258000002580AB18161BA
:10154000704709048161704782B0074BD3F8F420DB
:1015500042F00202C3F8F420D3F8F43003F002039F
:101560000193019B02B070470044025810B5B8B017
:101570000446002133913491359136913791C02240
:1015800002A806F029FC22681D4B9A4201D038B00F
:1015900010BD4FF400420023CDE902234FF08053E9
:1015A0001E9302A802F02CF830BB164BD3F8EC20A7
:1015B00042F48072C3F8EC20D3F8EC2002F480727D
:1015C0000092009AD3F8E02042F00802C3F8E0202D
:1015D000D3F8E03003F008030193019B0323339316
:1015E000022334930023359336930923379333A989
:1015F0000548FFF793FECAE7FFF796F8D5E700BF67
:1016000000A0004000440258000C0258F0B5C3B0DE
:10161000044600213D913E913F9140914191C0226D
:101620000CA806F0D9FB2368924A93420CD0924A48
:10163000934254D0914A934200F09E80904A934244
:1016400000F0CD8043B0F0BD4FF480520023CDE9CF
:101650000C230CA801F0D4FF00283DD1894BD3F80E
:10166000F02042F48052C3F8F020D3F8F02002F4C6
:1016700080520192019AD3F8E02042F00102C3F8AF
:10168000E020D3F8E02002F001020292029AD3F89F
:10169000E02042F00802C3F8E020D3F8E03003F085
:1016A00008030393039B60233D9302273E97002486
:1016B0003F944094052641963DAD29467248FFF778
:1016C0002DFE80233D933E973F94409441962946BA
:1016D0006E48FFF723FEB5E7FFF726F8BEE74FF4A5
:1016E00080520023CDE90C230CA801F089FF0028CB
:1016F0003FD1644BD3F8E82042F40042C3F8E8201D
:10170000D3F8E82002F400420492049AD3F8E020CF
:1017100042F00202C3F8E020D3F8E02002F0020217
:101720000592059AD3F8E02042F00402C3F8E020C5
:10173000D3F8E03003F004030693069B04233D93A3
:1017400002263E9600243F944094072341933DADEA
:1017500029464F48FFF7E2FD4FF440633D933E9624
:101760003F9440940623419329464A48FFF7D6FD0B
:1017700068E7FEF7D9FFBCE74FF400520023CDE93C
:101780000C230CA801F03CFF30BB3E4BD3F8F020FB
:1017900042F40052C3F8F020D3F8F02002F40052D3
:1017A0000792079AD3F8E02042F01002C3F8E02035
:1017B000D3F8E03003F010030893089B64233D93B3
:1017C00002233E9300233F934093052341933DA979
:1017D0003148FFF7A3FD35E7FEF7A6FFD5E74FF445
:1017E00080420023CDE90C230CA801F009FF00285A
:1017F0003DD1244BD3F8F42042F02002C3F8F4206A
:10180000D3F8F42002F020020992099AD3F8E020DC
:1018100042F00102C3F8E020D3F8E02002F0010218
:101820000A920A9AD3F8E02042F00202C3F8E020BC
:10183000D3F8E03003F002030B930B9B80233D931E
:1018400002273E9700243F944094082641963DADE0
:1018500029460D48FFF762FD18233D933E973F94BC
:101860004094419629460A48FFF758FDEAE6FEF7FC
:101870005BFFBEE700300140003C00400034014007
:10188000001400580044025800000258000C02588E
:1018900000040258000802580010025802680A4B5F
:1018A0009A4200D0704782B0084BD3F8F02042F043
:1018B0000102C3F8F020D3F8F03003F001030193E4
:1018C000019B02B0704700BF000001400044025875
:1018D00000B587B00023019302930393049305930B
:1018E00002680F4B9A4202D007B05DF804FB0D4B23
:1018F000D3F8E02042F01002C3F8E020D3F8E03043
:1019000003F010030093009B4FF400730193022334
:1019100002930123059301A90348FFF7FFFCE3E7C6
:1019200000000140004402580010025810B5BCB03D
:10193000044600213791389139913A913B91C02268
:1019400006A806F049FA2368504A934207D0504A45
:10195000934236D04F4A934265D03CB010BD02222C
:101960000023CDE9062306A801F04AFE30BB4A4B0E
:10197000D3F8E82042F40022C3F8E820D3F8E820A6
:1019800002F400220092009AD3F8E02042F0010213
:10199000C3F8E020D3F8E03003F001030193019B8A
:1019A0000323379312233893002339933A93082360
:1019B0003B9337A93948FFF7B1FCCEE7FEF7B4FEF9
:1019C000D5E702220023CDE9062306A801F018FE80
:1019D00030BB314BD3F8E82042F00042C3F8E82096
:1019E000D3F8E82002F000420292029AD3F8E020F5
:1019F00042F01002C3F8E020D3F8E03003F0100307
:101A00000393039B032337931223389300233993C3
:101A10003A9308233B9337A92148FFF77FFC9CE7C3
:101A2000FEF782FED5E701220023CDE9062306A8B2
:101A300001F0E6FD38BB184BD3F8F02042F010025D
:101A4000C3F8F020D3F8F02002F010020492049AB8
:101A5000D3F8E02042F00102C3F8E020D3F8E030F0
:101A600003F001030593059B4FF4C06337930223F2
:101A70003893002339933A9307233B9337A90748B8
:101A8000FFF74CFC69E7FEF74FFED4E7004C00403F
:101A9000007C004000100140004402580000025841
:101AA0000010025802680C4B9A4200D0704700B5F3
:101AB00083B0012002F012FD084BD3F8E42042F07D
:101AC0004002C3F8E420D3F8E43003F0400301936C
:101AD000019B03B05DF804FB003000500044025845
:101AE0002DE9F04383B0D0F8008001EBC10300EB97
:101AF00083039A6A5B6A9A4254D807460C469B1A3B
:101B000001EBC10200EB8202D2699A4200D31A466D
:101B100002F103094FEA990915E006F103094FEABA
:101B20009909BB7904EBC40507EB8505296A009385
:101B3000B3B2E2B2404604F0D8F92B6A33442B62C8
:101B4000AB6A3344AB6208EB441303F510639B6943
:101B50009BB24B4512D304EBC40307EB83039A6A91
:101B60005B6A9A420AD24BB19B1A04EBC40207EBA0
:101B70008202D6699E42D0D31E46CEE704EBC40350
:101B800007EB83077A6ABB6A9A420FD804F00F0406
:101B90000122A240D8F8343823EA0203C8F83438C6
:101BA000002000E0012003B0BDE8F0830020FAE748
:101BB00030B583B000287AD0044690F89534ABB1A4
:101BC000032384F89534206803F044FF237C8DF8C8
:101BD0000030231D0ECB206803F072FE58B10223A3
:101BE00084F895340125284603B030BD80F894343C
:101BF00004F088FFE4E70021206804F08CFB024633
:101C0000B8B903462079984218D903EBC30104EB15
:101C10008101012048750B75CB8500200876C861CD
:101C2000086203EBC30104EB810148620133DBB2BC
:101C3000E8E7022384F895340125D4E7904217D9C8
:101C400002EBC20304EB8303002183F8551283F8EF
:101C5000542283F85812C3F85C12C3F8601202EBE6
:101C6000C20304EB8303C3F864120132D2B2E5E786
:101C7000237C8DF80030231D0ECB206803F040FF3D
:101C8000054658B900236374012384F89534237BF7
:101C9000012B08D0206804F0FDFAA4E7022384F8A1
:101CA000953401259FE7204600F076FDF2E70125F7
:101CB00099E7036890F89424012A1AD010B50446D5
:101CC000012280F89424DA6812F0400F02D0427B9F
:101CD000012A09D0206803F0B7FE206804F0CCFA8E
:101CE000002084F8940410BD9A6B42F480329A6309
:101CF000F0E702207047000070B504460D4600680A
:101D0000066C00EB411303F530639A68A179012951
:101D100011D038498E4256D03DB905EBC50304EBCE
:101D20008303D3F86432002B5ED0E9B2204604F07E
:101D30004BFF002070BD12F0080F09D02E498E42D3
:101D4000F7D912F4004FF4D04FF400429A60F0E754
:101D500012F0200F02D020229A60EAE712F0280F3A
:101D6000E7D125498E4206D912F4004F03D04FF433
:101D700000429A60DDE705EBC50204EB8202D2F86F
:101D800074121B69C3F31203CB1AC2F868327DB90F
:101D900005EBC50204EB8202D2F864226AB105EBBE
:101DA000C50204EB8202D2F860121944C2F8601234
:101DB000E9B2204604F008FFBBE704F29C4201218F
:101DC00004F0E8FAF4E712F4004F03D04FF40042B5
:101DD0009A60AEE712F0200F01D020229A60E9B29B
:101DE000204604F0F1FEA4E704F29C42002104F036
:101DF000D1FA9AE70A31544F0A30544F38B50446A5
:101E000003681D6C03EB4113D3F8081B0E4A95427F
:101E100007D903F5306311F4004F02D04FF40042AC
:101E20009A60204604F0C8FE074B9D4202D9A37970
:101E3000012B01D0002038BD04F29C420121206812
:101E400004F0A8FAF6E700BF0A30544F90F8943433
:101E5000012B0CD010B50446012380F89434417452
:101E6000006804F0F9F9002084F8940410BD022001
:101E7000704738B505468C4611F0800F2BD101F024
:101E80000F0E0EEBCE04A40004F514740444211DBF
:101E90000EEBCE0E00EB8E0E00208EF855020CF0ED
:101EA0000F0C81F800C0C2F30A028A600B714A78F5
:101EB0000AB1A1F81AC0022B1CD095F89434012B5A
:101EC0001BD0012385F89434286803F0F3FE00202A
:101ED00085F8940438BD01F00F0000EBC0018900C3
:101EE00010312944043100EBC00005EB80000124CF
:101EF0004475D4E700234B71DFE70220EAE710B511
:101F000004460A4611F0800F20D101F00F0000EBCB
:101F1000C0039B0003F514732344191D00EBC0009C
:101F200004EB8000002380F8553202F00F020A70A3
:101F300094F89434012B18D0012384F89434206849
:101F400003F004FF002084F8940410BD01F00F009A
:101F500000EBC0039B0010332344191D00EBC000AD
:101F600004EB800001234375DFE70220EDE710B5A5
:101F7000144601F00F0C0CEBCC01890001F5147133
:101F8000014404310CEBCC0E00EB8E0ECEF8602237
:101F9000CEF864320023CEF868328EF855328EF8CF
:101FA00054C28279012A04D0006803F0B5FF0020F2
:101FB00010BDCEF87042F7E701F00F0101EBC1014F
:101FC00000EB8100D0F86802704710B5144601F0AC
:101FD0000F0C0CEBCC0189001031014404310CEBE7
:101FE000CC0E00EB8E0ECEF82020CEF8243000234D
:101FF000CEF8283001238EF815308EF814C082797F
:102000009A4204D0006803F087FF002010BDCEF88C
:102010003040F7E738B501F00F050279AA4238D30E
:1020200004460B4611F0800F1FD101EBC10189005E
:1020300001F514710144043103EBC30300EB830386
:10204000002283F8552201238B700D7094F894348C
:10205000012B20D0012384F89434206804F0A1F8E7
:1020600085B1002084F8940438BD05EBC5018900D2
:1020700010310144043105EBC50300EB8303012259
:102080005A75E0E704F29C42A179206804F082F9D5
:10209000E7E70120E8E70220E6E701F00F03027915
:1020A0009A4230D310B5044611F0800F1ED103EBD5
:1020B000C301890001F514710144043103EBC3022B
:1020C00000EB8202002082F8550200228A700B7019
:1020D00094F89434012B18D0012384F894342068A8
:1020E00004F08CF8002084F8940410BD03EBC301C5
:1020F000890010310144043103EBC30200EB82027A
:1021000001205075E1E7012070470220EDE708B596
:1021100011F0800F0CD101F00F0101EBC10189001A
:1021200001F5147101440431006803F07FFE08BD1D
:1021300001F00F0101EBC1018900103101440431AC
:10214000F2E72DE9F04F83B004460568284604F015
:10215000DEF810B103B0BDE8F08F0646206804F049
:10216000A7F80028F6D005F50067BB68C3F30D2378
:10217000C4F8D434206804F09BF810F0020F04D0A7
:102180002268536903F002035361206804F090F859
:1021900010F0100F16D02268936923F0100393619A
:1021A000D5F8208008F00F0908F4F013B3F5802F5C
:1021B0006AD0B3F5402F00F08D802268936943F018
:1021C00010039361206804F073F810F4002F40F0BE
:1021D0009380206804F06CF810F4802F40F0FC80AD
:1021E000206804F065F80028C0F27D81206804F0C2
:1021F0005FF810F4006F09D0BB6813F0010F40F0D6
:102200008A812268536903F400635361206804F0F3
:102210004FF810F0006F15D02268536903F0006387
:10222000536194F8CC34002B40F07981012184F87B
:10223000CC1423685B6DC3F38303C4F8D034204609
:1022400000F0BEFA206804F033F810F4805F40F02C
:102250006A81206804F02CF810F4005F40F0B68129
:10226000206804F025F810F0080F40F0C7812068BE
:1022700004F01EF810F0800F00F0DA81AB6923F053
:102280008003AB610126C3E147F6F07318EA030F40
:1022900093D04FEA181A4FEAC903019309EBC90B0F
:1022A00004EB8B0BC8F30A12DBF86012284603F02C
:1022B00055FFDBF86032CAF30A0A5344CBF86032A8
:1022C000DBF86832019A4A4404EB82025344C2F8B4
:1022D000683272E7082204F29C41284603F03EFF70
:1022E00009EBC90304EB8303D3F86822C8F30A1887
:1022F0004244C3F8682260E7206803F0DDFF8046AF
:10230000B14635E005EB49130122C3F8082B4946D5
:102310002046FFF7F1FC3CE005EB49130822C3F827
:10232000082B49462046FFF769FD35E009EBC90354
:1023300004EB830393F85732012B41D005EB49138B
:102340000222C3F8082B1AF0200F04D005EB491322
:102350002022C3F8082B1AF4005F05D005EB4913BF
:102360004FF40052C3F8082B09F101094FEA58084D
:10237000B8F1000F3FF42DAF18F0010FF4D05FFA61
:1023800089FB5946206803F0A7FF824610F0010F31
:10239000B8D11AF0080FBFD11AF0100F04D005EB16
:1023A00049131022C3F8082B1AF0020FCBD06B6927
:1023B00013F0800FBAD07B6843F480637B60B5E78D
:1023C00009EBC90304EB8303002283F85722594623
:1023D000204604F049FCB1E7206803F075FF804611
:1023E000B14625E05946204604F0FAFB1AF0080FE2
:1023F00004D005EB49130822C3F808291AF0100F7E
:1024000004D005EB49131022C3F808291AF0400F35
:1024100004D005EB49134022C3F808291AF0020F33
:1024200040D11AF0800F59D109F101094FEA58083B
:10243000B8F1000F3FF4D4AE18F0010FF4D05FFAFA
:1024400089FB5946206803F050FF824610F0010FC7
:10245000CCD009F00F02012101FA02F27B6B23EAD2
:1024600002037B6305EB4913C3F80819A3798B4278
:10247000B8D109EBC90304EB83031A6AD9690A448A
:102480001A62B9F1000FADD109EBC90304EB830364
:102490005B6A002BA6D104F29C420121206803F064
:1024A00079FF9FE74946284603F0DAFA09EBC903AA
:1024B00004EB8303DB7D012B05D005EB49130222DE
:1024C000C3F80829ADE709EBC90304EB8303002235
:1024D000DA755946204604F0CDFBEEE74946204622
:1024E000FFF7FEFAA0E77B6823F001037B6094F816
:1024F000CC34012B08D0204604F0B0FB226853698D
:1025000003F00043536171E6002184F8CC142046A7
:1025100000F056F9F2E7204604F088FB71E6204609
:1025200004F084FB8EE67B6823F001037B601021BE
:10253000206803F095FA1AE005EB46134FF67F3159
:10254000C3F80819D3F8002922F40012C3F80029AF
:10255000C3F8081BD3F8002B22F40012C3F8002B99
:10256000D3F8002B42F00062C3F8002B0136237928
:10257000B342E1D8FB6943F00113FB61E37BDBB1BC
:10258000D7F8843043F00B03C7F884307B6C43F0FA
:102590000B037B64D5F8003823F4FE63C5F80038DC
:1025A00004F29C42A179206803F0F4FE226853698A
:1025B00003F4805353614CE67A6942F22B031343D0
:1025C0007B613B6943F00B033B61E3E7206803F069
:1025D000D3FE206803F05CFBE071266800F0C2FEC9
:1025E0000146E279304603F0BDF9204604F009FBCC
:1025F0002268536903F40053536131E6204604F026
:10260000FAFA2268536903F0080353612FE6013692
:102610002379B3420CD906EBC60304EB830393F88A
:102620005732012BF3D1F1B22046FFF770FDEEE7F0
:10263000206803F03DFE10F4801F25D1206803F0D0
:1026400037FE10F4001F58D0012326E0013623790D
:10265000B3421BD905EB4613D3F8002906EBC6039A
:1026600004EB83031B7E012BF0D1002AEEDA06EB8C
:10267000C60304EB83030122DA7566F07F01C9B259
:102680002046FFF744FDE1E70126E0E722685369B1
:1026900003F480135361D1E7013322799A4227D999
:1026A00005EB4312D2F8001B03EBC30204EB8202DA
:1026B00092F85822012AEFD10029EDDAD4F8D42477
:1026C00082EA114212F0010FE6D103EBC30204EBE0
:1026D0008202012182F85712AA6942F08002AA619F
:1026E0006A6912F0800FD7D17B6843F400737B6076
:1026F0002268536903F400135361206803F0D8FD86
:1027000010F0804F10D1206803F0D2FD10F0040FBC
:102710003FF420AD23685D6815F0040F0DD12268E9
:1027200053682B43536015E5204604F0A9FA22684C
:10273000536903F080435361E5E7204604F0A6FAAD
:10274000EDE710B40468606A31B940EA0240A06263
:1027500000205DF8044B70478C46A36A00EB1340E1
:10276000002308E003F1400104EB8101496800EB1C
:1027700011400133DBB20CF1FF318B42F2D340EA5E
:1027800002400CF13F0104EB81046060E0E7036864
:102790005962002070470000034602680121C0F81A
:1027A000D814002083F8CC04936943F0006393614C
:1027B000516D024B0B435365704700BF030000107F
:1027C00070470000134BDB6813F0040F07D1114B67
:1027D000DB6803F0070383421AD00120704710B56D
:1027E0000C4AD36823F007030343D360FEF77EFA55
:1027F0000446084B5B6813F4005F07D1FEF776FAD6
:10280000001BB0F57A7FF4D9012000E0002010BD54
:102810000020704700480258024AD36843F0807392
:10282000D360704700480258002800F0398338B55B
:102830000446036813F0010F25D0944A136903F08E
:102840003803926A102B15D0182B0FD06368B3F59C
:10285000803F3FD0002B53D18C4B1A6822F480323A
:102860001A601A6822F480221A6038E002F003022B
:10287000022AEBD1854B1B6813F4003F03D0636839
:10288000002B00F00F83236813F0020F00F0A180EB
:102890007E4A1369926A13F038035AD0182B55D028
:1028A000E368002B00F0DE8078490A6822F0190204
:1028B00013430B60FEF71AFA0546744B1B6813F0BE
:1028C000040F40F0AD80FEF711FA401B0228F4D946
:1028D0000320EEE26D4A136843F4803313606368AB
:1028E0002BB3FEF703FA0546684B1B6813F4003F51
:1028F000C9D1FEF7FBF9401B6428F5D90320D8E2C3
:10290000B3F5A02F09D0614B1A6822F480321A6007
:102910001A6822F480221A60E1E75C4B1A6842F4DC
:1029200080221A601A6842F480321A60D7E7FEF7F4
:10293000DDF90546554B1B6813F4003FA3D0FEF7A5
:10294000D5F9401B6428F5D90320B2E212F0030F39
:10295000A6D14E4B1B6813F0040F03D0E368002B85
:1029600000F0A282494A136823F01903E1680B437F
:102970001360FEF7BBF90546444B1B6813F0040FC8
:1029800006D1FEF7B3F9401B0228F5D9032090E2E7
:10299000FEF7C6F941F20303984212D82269402A91
:1029A00007D03A494B6823F47C3343EA02334B6047
:1029B0000FE0364A536823F47C3343F4003353600A
:1029C00007E0324A536823F0FE43216943EA01637A
:1029D0005360236813F0100F00F088802B4A1369AE
:1029E00003F03803926A082B56D0182B50D0E369B5
:1029F000002B00F0B880254A136843F08003136071
:102A0000FEF774F90546214B1B6813F4807F40F0F4
:102A10008880FEF76BF9401B0228F4D9032048E2B6
:102A2000FEF77EF941F20303984212D82269402A48
:102A300007D016494B6823F47C3343EA02334B60DA
:102A4000C7E7124A536823F47C3343F400335360DE
:102A5000BFE70E4A536823F0FE43216943EA01634E
:102A60005360B6E7094A136823F001031360FEF7C9
:102A70003DF90546054B1B6813F0040FA9D0FEF77E
:102A800035F9401B0228F5D9032012E20044025810
:102A900002F00302012AAAD1A14B1B6813F4807F24
:102AA00003D0E369802B40F00182FEF739F941F24F
:102AB0000303984212D8226A202A07D098494B680B
:102AC00023F0F84343EA82634B600FE0944A536873
:102AD00023F0F84343F08043536007E0904AD36803
:102AE00023F07C53216A43EA0163D360236813F027
:102AF000080F60D06369002B49D0894A536F43F0B7
:102B000001035367FEF7F2F80546854B5B6F13F040
:102B1000020F50D1FEF7EAF8401B0228F5D9032036
:102B2000C7E1FEF7FDF841F20303984212D8226A8A
:102B3000202A07D07A494B6823F0F84343EA82639E
:102B40004B60D3E7764A536823F0F84343F0804361
:102B50005360CBE7724AD36823F07C53216A43EA7F
:102B60000163D360C2E76E4A136823F080031360E9
:102B7000FEF7BCF805466A4B1B6813F4807FB5D09E
:102B8000FEF7B4F8401B0228F5D9032091E1644A0E
:102B9000536F23F001035367FEF7A8F80546604B17
:102BA0005B6F13F0020F06D0FEF7A0F8401B02285F
:102BB000F5D903207DE1236813F0200F29D0A36904
:102BC0009BB1574A136843F480531360FEF78EF8A5
:102BD0000546534B1B6813F4005F1AD1FEF786F8C5
:102BE000401B0228F5D9032063E14D4A136823F402
:102BF00080531360FEF77AF80546494B1B6813F4BF
:102C0000005F06D0FEF772F8401B0228F5D90320BA
:102C10004FE1236813F0040F21D1636A002B00F009
:102C200047813F4A126902F03802182A00F0EE800C
:102C3000022B79D03A4A136823F080731360FEF7B1
:102C400055F80446364B1B6813F0007F00F0DC801B
:102C5000FEF74CF8001B0228F4D9032029E1314A81
:102C6000136843F480731360FEF740F805462D4B5C
:102C70001B6813F4807F06D1FEF738F8401B6428E8
:102C8000F5D9032015E1A368012B0AD00BBB244B17
:102C90001A6F22F001021A671A6F22F004021A67F3
:102CA00004E01F4A136F43F001031367A36833B3B3
:102CB000FEF71CF805461A4B1B6F13F0020FACD140
:102CC000FEF714F8401B41F288339842F3D90320F1
:102CD000EFE0052B09D0124B1A6F22F001021A67A0
:102CE0001A6F22F004021A67E0E70D4B1A6F42F0E8
:102CF00004021A671A6F42F001021A67D6E7FDF75D
:102D0000F5FF0546064B1B6F13F0020F85D0FDF74C
:102D1000EDFF401B41F288339842F3D90320C8E00D
:102D20000044025800480258694A136823F080732F
:102D30001360FDF7DBFF0546654B1B6813F0007F52
:102D400006D0FDF7D3FF401B0228F5D90320B0E0E1
:102D50005F4B996A5F4A0A40A16AE06A41EA001142
:102D60000A439A62226B013AC2F30802616B01398D
:102D7000490289B20A43A16B0139090401F4FE0139
:102D80000A43E16B0139090601F0FE410A431A6367
:102D9000DA6A22F00102DA625A6B6FF3CF02A16C99
:102DA00042EAC1025A63DA6A22F00C02216C0A4339
:102DB000DA62DA6A22F00202616C0A43DA62DA6AE3
:102DC00042F48032DA62DA6A42F40032DA62DA6AB3
:102DD00042F48022DA62DA6A42F00102DA621A68A8
:102DE00042F080721A60FDF781FF0446384B1B6881
:102DF00013F0007F06D1FDF779FF001B0228F5D9FB
:102E0000032056E0002054E0002052E0304A916A4E
:102E1000106B012B4ED001F00303A26A93424BD1F9
:102E2000C1F30511E36A994248D1C0F30802236B4C
:102E3000013B9A4244D1C0F34622636B013B9A4264
:102E400040D1C0F30642A36B013B9A423CD1C0F390
:102E50000660E36B013B984238D11D4B5B6BC3F3BB
:102E6000CC03A26C9A4201D1002022E0184AD36A16
:102E700023F00103D362FDF739FF0546FDF736FF66
:102E8000A842FBD0124A536B6FF3CF03A16C43EA05
:102E9000C1035363D36A43F00103D362002008E007
:102EA00001207047012004E0012002E0012000E041
:102EB000002038BD0120FCE70120FAE70120F8E7F7
:102EC0000120F6E70120F4E70120F2E70120F0E716
:102ED000004402580CFCFFFF754B1B6903F03803DC
:102EE000102B00F0DE80182B0FD0002B40F0DB8081
:102EF0006F4B1B6813F0200F00F0D7806C4B1B68E2
:102F0000C3F3C1036B48D840704710B4684B9A6A4A
:102F100002F003029C6AC4F30510D96A01F00101B2
:102F20005B6BC3F3CC0301FB03F307EE903AF8EEBF
:102F3000677A14F47C7F77D0012A4AD0022A76D0AF
:102F4000002A40F091805A4B1B6813F0200F23D0C9
:102F500057490A68C2F3C102564BD34007EE103AF4
:102F6000F8EE476A07EE100AB8EE476A86EE867AF0
:102F70000B6BC3F3080306EE903AF8EE666A9FED1A
:102F80004E6A67EE867A76EEA77AF7EE006A77EEFB
:102F9000A67A27EE277A38E007EE100AF8EE476A9D
:102FA0009FED466A86EE267A414B1B6BC3F30803FE
:102FB00006EE903AF8EE666A9FED3F6A67EE867A13
:102FC00076EEA77AF7EE006A77EEA67A27EE277AF2
:102FD0001BE007EE100AF8EE476A9FED396A86EEAD
:102FE000267A334B1B6BC3F3080306EE903AF8EED8
:102FF000666A9FED316A67EE867A76EEA77AF7EE1B
:10300000006A77EEA67A27EE277A294B1B6BC3F36B
:103010004623013307EE903AF8EE677AC7EE276A47
:10302000FCEEE67A17EE900A5DF8044B704707EE67
:10303000100AF8EE476A9FED236A86EE267A1C4B4B
:103040001B6BC3F3080306EE903AF8EE666A9FED39
:103050001A6A67EE867A76EEA77AF7EE006A77EE5E
:10306000A67A27EE277AD0E707EE100AF8EE476A2D
:103070009FED136A86EE267A0D4B1B6BC3F3080394
:1030800006EE903AF8EE666A9FED0B6A67EE867A76
:1030900076EEA77AF7EE006A77EEA67A27EE277A21
:1030A000B3E709487047094870470248704700BFB6
:1030B000004402580090D003000000390024744CF2
:1030C0000024744A20BCBE4B40787D0100093D00BD
:1030D000002800F0328170B50D4604469B4B1B68FA
:1030E00003F00F038B420BD2984A136823F00F03AF
:1030F0000B431360136803F00F038B4240F01F81F2
:10310000236813F0040F0CD02269914B9B6903F0E4
:1031100070039A4205D98E498B6923F070031A43D4
:103120008A61236813F0080F0CD06269884BDB6951
:1031300003F070039A4205D98549CB6923F07003E7
:103140001A43CA61236813F0100F0CD0A269804B98
:10315000DB6903F4E0639A4205D97D49CB6923F426
:10316000E0631A43CA61236813F0200F0CD0E269B0
:10317000774B1B6A03F070039A4205D974490B6AB6
:1031800023F070031A430A62236813F0020F0CD075
:10319000E2686F4B9B6903F00F039A4205D96C49B3
:1031A0008B6923F00F031A438A61236813F0010F20
:1031B00041D0674A936923F47063A1680B4393611C
:1031C0006368022B0AD0032B27D0012B2CD0604A36
:1031D000126812F0040F06D10120ADE0126812F45B
:1031E000003F00F0AE805A490A6922F007021343FB
:1031F0000B61FDF77BFD0646554B1B6903F0380359
:103200006268B3EBC20F16D0FDF770FD801B41F270
:1032100088339842F0D903208EE04D4A126812F0AC
:10322000007FE0D1012087E0494A126812F4807FD4
:10323000D9D1012080E0236813F0020F0CD0E2689E
:10324000434B9B6903F00F039A4205D240498B69B7
:1032500023F00F031A438A613C4B1B6803F00F03F2
:10326000AB420AD9394A136823F00F032B4313608A
:10327000136803F00F03AB4265D1236813F0040F0A
:103280000CD02269324B9B6903F070039A4205D23D
:103290002F498B6923F070031A438A61236813F066
:1032A000080F0CD062692A4BDB6903F070039A4265
:1032B00005D22749CB6923F070031A43CA612368FA
:1032C00013F0100F0CD0A269214BDB6903F4E0630B
:1032D0009A4205D21E49CB6923F4E0631A43CA61BE
:1032E000236813F0200F0CD0E269194B1B6A03F01E
:1032F00070039A4205D216490B6A23F070031A43F1
:103300000A62FFF7E9FD12498B69C3F30323114AEF
:10331000D35C03F01F03D8408B6903F00F03D35C29
:1033200003F01F0320FA03F30B4A13600B4B1860E2
:103330000B4B1868FDF778FC70BD01207047012029
:10334000FAE70120F8E70120F6E700BF002000526D
:1033500000440258188E0008080000200C000020CD
:103360000400002008B5FFF7B7FD0B4A9369C3F3CB
:1033700003230A49CB5C03F01F0320FA03F392698D
:1033800002F00F02885C00F01F0023FA00F0044AEC
:103390001060044A136008BD00440258188E0008EB
:1033A000080000200C00002008B5FFF7DBFF054BEC
:1033B000DB69C3F30213044AD35C03F01F03D84054
:1033C00008BD00BF00440258188E000808B5FFF77A
:1033D000C9FF054BDB69C3F30223044AD35C03F046
:1033E0001F03D84008BD00BF00440258188E0008D3
:1033F000404B9B6A03F00303032B79D070B505465D
:103400000E463C4A136823F080631360FDF76EFCA0
:103410000446384B1B6813F0006F06D0FDF766FCBE
:10342000031B022BF5D9032070BD324B9A6A22F49C
:103430007C32296842EA01329A626A68013AC2F330
:103440000802A9680139490289B20A43E9680139C9
:10345000090401F4FE010A4329690139090601F052
:10346000FE410A439A63DA6A22F0C00269690A439C
:10347000DA62DA6A22F02002A9690A43DA62DA6AB9
:1034800022F01002DA62DA6B6FF3CF02E96942EAE6
:10349000C102DA63DA6A42F01002DA62C6B91A4689
:1034A000DB6A43F40023D362124A136843F080635B
:1034B0001360FDF71BFC04460E4B1B6813F0006FF6
:1034C00014D1FDF713FC001B0228F5D90320ABE74C
:1034D000012E05D0074AD36A43F40013D362E3E711
:1034E000044AD36A43F48013D362DDE700209BE7EC
:1034F0000120704700440258404B9B6A03F00303CD
:10350000032B79D070B505460E463C4A136823F06C
:1035100080531360FDF7EAFB0446384B1B6813F039
:10352000005F06D0FDF7E2FB031B022BF5D9032059
:1035300070BD324B9A6A22F07C72296842EA0152CD
:103540009A626A68013AC2F30802A968013949021D
:1035500089B20A43E9680139090401F4FE010A430A
:1035600029690139090601F0FE410A431A64DA6A41
:1035700022F4406269690A43DA62DA6A22F400726C
:10358000A9690A43DA62DA6A22F48072DA625A6C52
:103590006FF3CF02E96942EAC1025A64DA6A42F47F
:1035A0008072DA62C6B91A46DB6A43F48003D362DA
:1035B000124A136843F080531360FDF797FB0446EB
:1035C0000E4B1B6813F0005F14D1FDF78FFB001B3F
:1035D0000228F5D90320ABE7012E05D0074AD36AAC
:1035E00043F08073D362E3E7044AD36A43F40003F1
:1035F000D362DDE700209BE70120704700440258BA
:10360000F8B50446036813F0006F30D0836EB3F54D
:10361000001F26D00ED8ABB1B3F5801F07D1022111
:103620000830FFF7E5FE054695B12E4621E001265C
:1036300035461EE0B3F5401F01D1002508E0012604
:10364000354616E09A4AD36A43F40033D362002524
:10365000974A136D23F44013A16E0B4313650026A4
:1036600007E002212830FFF747FF0546DCE7002688
:103670003546236813F4807F14D0A36D042B31D812
:10368000DFE803F0032229080800894AD36A43F4DB
:103690000033D3624DBB864A136D23F00703A16D3F
:1036A0000B431365236813F4007F3FD0E36D802B39
:1036B0002ED01FD833B3402B19D1002104F10800BC
:1036C000FFF796FE054629E0002104F10800FFF708
:1036D0008FFE0546DEE7002104F12800FFF70CFF0E
:1036E0000546D7E701263546DCE72E46DAE7012610
:1036F00035461BE0C02B11D0B3F5807F0ED00126DC
:10370000354613E06A4AD36A43F40033D36205E0D6
:10371000002104F12800FFF7EFFE0546DDB9644AF9
:10372000136D23F4E073E16D0B431365236813F409
:10373000806F33D0D4F8A830B3F5800F1FD00FD8E6
:10374000BBB1B3F5001F08D1002104F10800FFF759
:103750004FFE054619E02E46E8E7012635461DE0F6
:10376000B3F5C00F11D0B3F5000F0ED001263546CA
:1037700014E04F4AD36A43F40033D36205E00021DA
:1037800004F12800FFF7B8FE0546E5B9484A936DF5
:1037900023F46003D4F8A8100B439365236813F453
:1037A000006F34D0D4F8AC30B3F1007F1FD00FD805
:1037B000BBB1B3F1807F08D1002104F10800FFF70D
:1037C00017FE054619E02E46E8E7012635461EE0BD
:1037D000B3F1407F11D0B3F1806F0ED00126354692
:1037E00015E0334AD36A43F40033D36205E0002185
:1037F00004F12800FFF780FE0546002D33D12C4A46
:10380000936D23F0E063D4F8AC100B439365236809
:1038100013F0007F13D0E36C202B2ED028D833B1C7
:10382000102B22D1224AD36A43F40033D3625DBB0A
:103830001F4AD36C23F03003E16C0B43D36423683D
:1038400013F4805F46D0236EB3F5005F32D020D8EA
:1038500043B3B3F5805F19D1002104F10800FFF7ED
:10386000C7FD05462CE02E46D1E701263546E6E7A2
:10387000302BDCD001263546E1E7022104F10800B7
:10388000FFF7B6FD0546D2E72E46D8E701263546B6
:1038900020E0B3F5405F13D0B3F5804F10D0012680
:1038A000354617E0024AD36A43F40033D36207E097
:1038B00000440258002104F12800FFF71DFE0546D0
:1038C0003DB9704A136D23F4E043216E0B43136539
:1038D00000E02E46236813F4005F17D0636EB3F543
:1038E000003F4FD042D843B1B3F5803F3BD10121D7
:1038F00004F10800FFF77CFD0546002D49D1614A1F
:10390000136D23F4E023616E0B431365236813F4F6
:10391000804F19D0D4F8B030B3F1005F4AD03DD811
:1039200043B1B3F1805F36D1012104F10800FFF704
:103930005FFD0546002D44D1524A936D23F0E043CC
:10394000D4F8B0100B439365236813F4004F47D0AD
:10395000236FB3F1805F36D0B3F1005F4BD0BBB3C0
:10396000012635463CE001263546CFE7B3F5802FEA
:10397000C3D0B3F5A02FC0D0B3F5403FBDD00126D2
:103980003546C3E7012104F12800FFF7B5FD0546E0
:10399000B3E72E46BAE701263546D5E7B3F1804FA7
:1039A000C8D0B3F1A04FC5D0B3F1405FC2D001265B
:1039B0003546C9E7012104F12800FFF79DFD0546C2
:1039C000B8E72E46C0E72F4AD36A43F40033D362E8
:1039D000C5B92C4A136D23F04053216F0B43136577
:1039E000236813F0807F1CD0A36C032B44D8DFE83E
:1039F00003F0100B3C10012104F10800FFF7F8FC64
:103A00000546E5E72E46EBE71E4AD36A43F400334A
:103A1000D362A5BB1B4AD36C23F00303A16C0B43F9
:103A2000D364236813F4800F2ED1236813F0010FA1
:103A300000F0A680E36F282B00F2A080DFE803F0FF
:103A40008E9E9E9E9E9E9E9E889E9E9E9E9E9E9EBC
:103A5000979E9E9E9E9E9E9E8E9E9E9E9E9E9E9E9D
:103A60008E9E9E9E9E9E9E9E8E00022104F10800C8
:103A7000FFF7BEFC0546CCE701263546D1E72E46CA
:103A8000CFE700BF004402585A4A136843F48073DA
:103A90001360FDF72BF90746564B1B6813F4807F24
:103AA00005D1FDF723F9C01B6428F5D90325002DA6
:103AB0004AD1514B1B6FD4F8B420534013F4407FCC
:103AC0000CD04D4B1A6F22F44072196F41F48031C3
:103AD0001967196F21F4803119671A67D4F8B43067
:103AE000B3F5807F15D08DBBD4F8B43003F44072A9
:103AF000B2F5407F1ED0404A136923F47C53136112
:103B00003D490B6FD4F8B420C2F30B0213430B678B
:103B10008BE7FDF7EBF80746374B1B6F13F0020FEF
:103B2000E1D1FDF7E3F8C01B41F288339842F3D9A5
:103B30000325D8E73048026922F47C522F4901EA74
:103B4000131313430361DBE72E466EE72E466CE743
:103B5000012104F10800FFF74BFC0546E5B9264AB0
:103B6000536D23F03803E16F0B43536508E00121E7
:103B700004F12800FFF7C0FC0546EFE701263546B3
:103B8000236813F0020F17D0A36F052B2CD8DFE8A2
:103B900003F00B05240B0B0B2E46F1E7012104F17A
:103BA0000800FFF725FC05460DBB134A536D23F0B3
:103BB0000703A16F0B435365236813F0040F30D044
:103BC000D4F89430052B00F20F81DFE813F01F00CA
:103BD000190006011F001F001F00012104F1280029
:103BE000FFF78AFC0546DFE701263546E4E72E4667
:103BF000E2E700BF0048025800440258CFFFFF0030
:103C0000012104F10800FFF7F3FB0546002D40F009
:103C1000EE80B64A936D23F00703D4F894100B435B
:103C20009365236813F0200F1DD0D4F89030B3F1C2
:103C3000005F00F0F08000F2DF804BB1B3F1805FF5
:103C400040F0D780002104F10800FFF7D1FB0546C2
:103C5000002D40F0E780A54A536D23F0E043D4F8EF
:103C600090100B435365236813F0400F1DD0D4F818
:103C70009C30B3F5006F00F0E98000F2D8804BB1C2
:103C8000B3F5806F40F0D080002104F10800FFF709
:103C9000AFFB0546002D40F0E080944A936D23F47D
:103CA000E053D4F89C100B439365236813F0800F06
:103CB0001DD0D4F8A030B3F5804F00F0E28000F2C0
:103CC000D1804BB1B3F5005F40F0C980002104F111
:103CD0000800FFF78DFB0546002D40F0D980834A90
:103CE000936D23F46043D4F8A0100B4393652368CD
:103CF00013F0080F0DD0D4F88430B3F5805F00F0D6
:103D0000C9807A4A536D23F44053D4F884100B438E
:103D10005365236813F0100F0DD0D4F89830B3F525
:103D2000807F00F0C180714A936D23F44073D4F812
:103D300098100B439365236813F4002F1CD0D4F81C
:103D4000A430B3F5803F00F0B980B3F5003F08D050
:103D5000002B40F0BA80002104F10800FFF748FB77
:103D60000546002D40F0B480604A936D23F4403343
:103D7000D4F8A4100B439365236813F4802F1CD050
:103D8000D4F88830B3F5001F00F0A480B3F5401FCD
:103D900008D0B3F5801F40F0A480544AD36A43F49E
:103DA0000033D362002D40F09F80504A536D23F4BE
:103DB0004013D4F888100B435365236813F4803FF5
:103DC00000F0AC80236D002B00F09280B3F5803FB3
:103DD00000F09C8001263546A0E0012104F1280076
:103DE000FFF78AFB054611E70126354619E72E46FF
:103DF00017E70126354636E7B3F1804F3FF428AF89
:103E0000B3F1A04F3FF424AFB3F1405F3FF420AFD4
:103E10000126354627E7022104F12800FFF76CFB55
:103E2000054615E72E461EE7012635463DE7B3F564
:103E3000805F3FF42FAFB3F5A05F3FF42BAFB3F536
:103E4000406F3FF427AF012635462EE7022104F1EB
:103E50002800FFF751FB05461CE72E4625E7012603
:103E6000354644E7B3F5004F3FF436AFB3F5204F86
:103E70003FF432AFB3F5C04F3FF42EAF01263546C5
:103E800035E7022104F12800FFF736FB054623E75A
:103E90002E462CE7022104F12800FFF72DFB002815
:103EA0003FF42FAF01262CE7022104F12800FFF791
:103EB00023FB00283FF437AF012634E7022104F149
:103EC0002800FFF719FB05464BE70126354653E767
:103ED0002E4651E7012104F12800FFF70DFB0546AE
:103EE00060E70126354668E72E4666E7004402583B
:103EF000704AD36A43F40033D36275B96D4AD36C08
:103F000023F48033216D0B43D36407E0022104F1D5
:103F10000800FFF76DFA0546EFE72E46236813F019
:103F2000005F11D1236813F4003F28D0D4F880300B
:103F3000B3F5807F14D010D9B3F5007F15D0B3F559
:103F4000407F12D001261AE0022104F12800FFF779
:103F5000D3FA0028E6D00126E4E733B101260EE0CB
:103F6000544AD36A43F40033D362002D69D1514AD5
:103F7000536D23F44073D4F880100B4353652368CA
:103F800013F4801F06D04B4A136D23F00043616F7A
:103F90000B431365236813F0805F07D0454A13690C
:103FA00023F48043D4F8B8100B431361236813F44F
:103FB000001F06D03F4A136D23F08073E16E0B4360
:103FC0001365236813F0804F09D03A4B1A6922F425
:103FD00000421A611A69D4F8BC100A431A612368B6
:103FE000002B06DA334AD36C23F04053616D0B4348
:103FF000D364236813F4000F07D02E4A536D23F4C3
:104000004003D4F88C100B435365636813F0010F21
:1040100019D1636813F0020F1ED1636813F0040F07
:1040200023D1636813F0080F28D1636813F0100FD1
:104030002DD1636813F0200F32D106B1012630462E
:10404000F8BD2E469BE7002104F10800FFF7D0F9E8
:104050000028DED00646DCE7012104F10800FFF766
:10406000C7F90028D9D00646D7E7022104F1080095
:10407000FFF7BEF90028D4D00646D2E7002104F1AC
:104080002800FFF739FA0028CFD00646CDE70121F6
:1040900004F12800FFF730FA0028CAD00646C8E726
:1040A000022104F12800FFF727FA0028C5D00126D5
:1040B000C5E700BF0044025808B5FFF753F9054BA8
:1040C0001B6AC3F30213044AD35C03F01F03D840F6
:1040D00008BD00BF00440258188E000810B4794B88
:1040E0009A6A9C6AC4F3053CD96AC1F30011DB6B80
:1040F000C3F3CC0301FB03F314F47C3F00F0DD8039
:1041000002F0030207EE903AF8EE677A012A4BD0EC
:10411000022A00F09880002A40F0B280694B1B68A8
:1041200013F0200F23D067490A68C2F3C102664B1F
:10413000D34007EE103AF8EE476A07EE10CAB8EE21
:10414000476A86EE867A8B6BC3F3080306EE903AD5
:10415000F8EE666A9FED5D6A67EE867A76EEA77A7C
:10416000F7EE006A77EEA67A27EE277A38E007EEB8
:1041700010CAF8EE476A9FED566A86EE267A514BD2
:104180009B6BC3F3080306EE903AF8EE666A9FED68
:104190004F6A67EE867A76EEA77AF7EE006A77EED8
:1041A000A67A27EE277A1BE007EE10CAF8EE476AD8
:1041B0009FED486A86EE267A424B9B6BC3F3080359
:1041C00006EE903AF8EE666A9FED406A67EE867AF0
:1041D00076EEA77AF7EE006A77EEA67A27EE277AD0
:1041E000384A936BC3F3462307EE903AF8EE677AAA
:1041F000F7EE006A77EEA67A87EE276ABCEEC66A0B
:1042000080ED006A936BC3F3064307EE903AF8EE35
:10421000677A77EEA67A87EE276ABCEEC66A80EDEB
:10422000016A936BC3F3066307EE903AF8EE677A80
:1042300077EEA67AC7EE276AFCEEE66AC0ED026A60
:104240005DF8044B704707EE10CAF8EE476A9FED21
:10425000226A86EE267A1B4B9B6BC3F3080306EE9D
:10426000903AF8EE666A9FED196A67EE867A76EE06
:10427000A77AF7EE006A77EEA67A27EE277AAFE7FD
:1042800007EE10CAF8EE476A9FED126A86EE267AAC
:104290000C4B9B6BC3F3080306EE903AF8EE666A8C
:1042A0009FED0A6A67EE867A76EEA77AF7EE006AE5
:1042B00077EEA67A27EE277A92E700230360436021
:1042C0008360BDE7004402580090D003000000392D
:1042D0000024744C0024744A20BCBE4B10B4794BAB
:1042E0009A6A9C6AC4F3055CD96AC1F300215B6CCD
:1042F000C3F3CC0301FB03F314F07C7F00F0DD80FB
:1043000002F0030207EE903AF8EE677A012A4BD0EA
:10431000022A00F09880002A40F0B280694B1B68A6
:1043200013F0200F23D067490A68C2F3C102664B1D
:10433000D34007EE103AF8EE476A07EE10CAB8EE1F
:10434000476A86EE867A0B6CC3F3080306EE903A52
:10435000F8EE666A9FED5D6A67EE867A76EEA77A7A
:10436000F7EE006A77EEA67A27EE277A38E007EEB6
:1043700010CAF8EE476A9FED566A86EE267A514BD0
:104380001B6CC3F3080306EE903AF8EE666A9FEDE5
:104390004F6A67EE867A76EEA77AF7EE006A77EED6
:1043A000A67A27EE277A1BE007EE10CAF8EE476AD6
:1043B0009FED486A86EE267A424B1B6CC3F30803D6
:1043C00006EE903AF8EE666A9FED406A67EE867AEE
:1043D00076EEA77AF7EE006A77EEA67A27EE277ACE
:1043E000384A136CC3F3462307EE903AF8EE677A27
:1043F000F7EE006A77EEA67A87EE276ABCEEC66A09
:1044000080ED006A136CC3F3064307EE903AF8EEB2
:10441000677A77EEA67A87EE276ABCEEC66A80EDE9
:10442000016A136CC3F3066307EE903AF8EE677AFD
:1044300077EEA67AC7EE276AFCEEE66AC0ED026A5E
:104440005DF8044B704707EE10CAF8EE476A9FED1F
:10445000226A86EE267A1B4B1B6CC3F3080306EE1A
:10446000903AF8EE666A9FED196A67EE867A76EE04
:10447000A77AF7EE006A77EEA67A27EE277AAFE7FB
:1044800007EE10CAF8EE476A9FED126A86EE267AAA
:104490000C4B1B6CC3F3080306EE903AF8EE666A09
:1044A0009FED0A6A67EE867A76EEA77AF7EE006AE3
:1044B00077EEA67A27EE277A92E70023036043601F
:1044C0008360BDE7004402580090D003000000392B
:1044D0000024744C0024744A20BCBE4B034AD2F81A
:1044E000A0300343C2F8A030704700BF0044025818
:1044F000C36B5B09C0680830C00803FB000070474D
:10450000002800F0B78070B5044600238362056878
:104510005C4B5D4E9D4218BFB54214BF012600267C
:1045200007D0A3F574439D4203D0C3680F2B00F25C
:10453000A3802046FFF7DCFF2EB1544B9D4202D0F2
:10454000082800F29B804F4A4F4B9D4218BF95426E
:1045500003D003F580639D4202D1102800F29080C1
:1045600094F88130F3B1022384F881302268136813
:1045700023F00103136023689A6802F4F812A1691A
:10458000B1F1806F14D0636813F4800F23D0E36817
:10459000062B20D921680B6823F48073206D034318
:1045A0000B601DE084F880302046FDF72FF8DAE735
:1045B0006168B1F5800F06D00029E4D1A16BB1F19B
:1045C000805FE0D102E0A06B0028F5D1196841F4CA
:1045D00080511960D7E721680B6823F480730B6062
:1045E000E369A16A0B431343E26B1343E16822685A
:1045F0000B439360636B626A1343A26B1343A2691C
:1046000013432269134362691343226A13436268A6
:104610001343E26C1343A2681343A26C1343A16DCE
:1046200022680B43D36063686BB92268936823F4F4
:10463000C05343F4006393602268936823F4C0631B
:1046400043F4806393602268136D23F001031365C4
:10465000636813F4800F06D02268D36823F0004308
:10466000616D0B43D3600020C4F88400012384F8FB
:10467000813070BD012070470120FAE70120F8E782
:104680000120F6E70030014000380040003C0040C7
:10469000F0B4026A036A23F0010303624668846986
:1046A0001E4B23400D681D4322F002028B6813430A
:1046B0001B4A1C4CA04218BF90420CBF0122002292
:1046C0000CD004F58044A04214BF00240124164FEE
:1046D000B84203D014B9154CA04205D123F0080309
:1046E000CC68234323F004035AB9114A904214BF03
:1046F000002201220C4CA04203D012B90B4A904276
:1047000005D126F440764A6932438E6916434660E5
:1047100085614A6842630362F0BC70478CFFFEFF0C
:1047200000000140000401400040014000480140F9
:104730000044014070B4036A026A22F4807202628B
:104740004568C4691A4A22400E68164323F4007370
:104750008A6843EA0223174A174CA04218BF9042C6
:104760000CBF0122002206D123F40063CC6843EA87
:10477000042323F480635AB9104A904214BF0022E4
:1047800001220F4CA04203D012B90E4A904207D129
:1047900025F440524C6942EA04128C6942EA04153D
:1047A0004560C6614A68C263036270BC704700BF5F
:1047B0008CFFFEFF00000140000401400044014066
:1047C000004001400048014070B4036A026A22F4CC
:1047D000805202624468C569144A2A400D6842EA60
:1047E000052223F400538D6843EA0533104E114D22
:1047F000A84218BFB0420DD005F58045A84214BFAD
:104800000025012506F58046B04203D015B90A4DB2
:10481000A84204D124F480444D6944EA85144460DC
:10482000C2614A680264036270BC7047FF8CFFFE7D
:1048300000000140000401400048014070B4036AD8
:10484000026A22F4803202624268456D144E2E40A4
:104850000D682E4323F400338C6843EA0443114D62
:10486000114CA04218BFA8420DD004F58044A042CC
:1048700014BF0024012405F58045A84203D014B9D3
:104880000A4CA04204D122F480324C6942EA04224C
:10489000426046654A688265036270BC704700BF2B
:1048A0008FFFFEFF0000014000040140004801406E
:1048B00070B4036A026A22F4801202624468456D91
:1048C000144A2A400D6842EA052223F400138D6839
:1048D00043EA0553104E114DA84218BFB0420DD007
:1048E00005F58045A84214BF0025012506F5804640
:1048F000B04203D015B90A4DA84204D124F4802453
:104900004D6944EA8524446042654A68C265036291
:1049100070BC7047FF8FFFFE0000014000040140A3
:104920000048014070B40368394A904214BF002225
:104930000122B0F1804F14BF144642F00104ACB91B
:10494000344DA84214BF00250125334EB0420DD08E
:1049500065B905F1804505F58235A84214BF0025EB
:10496000012506F50066B04200D01DB123F07003AA
:104970004D682B4314BB274CA04214BF00240124D4
:10498000254DA8421AD0CCB904F1804404F58234F4
:10499000A04214BF0024012405F50065A8420DD0F3
:1049A00064B91E4CA04214BF0024012405F59A35B9
:1049B000A84203D014B91A4CA04203D123F4407387
:1049C000CC68234323F080034C6923438C68C46282
:1049D0000C688462134CA04208BF42F0010262B925
:1049E0000E4A904214BF0022012204F57054A042E6
:1049F00003D012B90A4A904201D10A6902630268DF
:104A000042F00402026001224261036070BC704700
:104A10000000014000080040000400400044014044
:104A2000004801400004014060B310B5044690F80E
:104A30003D3013B3022384F83D30214651F8040B76
:104A4000FFF770FF012384F8483084F83E3084F883
:104A50003F3084F8403084F8413084F8423084F8A4
:104A6000433084F8443084F8453084F8463084F884
:104A7000473084F83D30002010BD80F83C30FCF712
:104A80000DFFD7E70120704770B4036A026A22F075
:104A900010020262456884691A4E26400C6846EA94
:104AA000042623F020038A6843EA0213164A174CAF
:104AB000A04218BF90420CBF0122002206D123F071
:104AC0008003CC6843EA041323F040035AB9104A28
:104AD000904214BF002201220E4CA04203D012B912
:104AE0000D4A904207D125F4406C4A694CEA820C89
:104AF0008A694CEA8205456086614A68826303627E
:104B000070BC7047FF8CFFFE0000014000040140B4
:104B100000440140004001400048014038B590F891
:104B20003C30012B00F0958004460D46012380F8AF
:104B30003C30142A00F28880DFE802F00B8686867B
:104B40001F86868634868686488686865D86868625
:104B500071000068FFF79CFD2268936943F0080329
:104B600093612268936923F0040393612268936937
:104B700029690B439361002067E00068FFF784FF19
:104B80002268936943F4006393612268936923F474
:104B90008063936122689369296943EA01239361E1
:104BA000002052E00068FFF7C5FD2268D36943F09A
:104BB0000803D3612268D36923F00403D361226818
:104BC000D36929690B43D36100203EE00068FFF7F9
:104BD000FBFD2268D36943F40063D3612268D36983
:104BE00023F48063D3612268D369296943EA0123EE
:104BF000D361002029E00068FFF720FE2268536D92
:104C000043F0080353652268536D23F00403536592
:104C10002268536D29690B435365002015E0006835
:104C2000FFF746FE2268536D43F400635365226824
:104C3000536D23F4806353652268536D296943EAF9
:104C400001235365002000E00120002384F83C305C
:104C500038BD0220FCE7000090F83C20012A45D036
:104C600070B40346012280F83C20022280F83D20E7
:104C70000268506894681E4E1E4DAA4218BFB24288
:104C800003D120F470004D68284320F070000D68B7
:104C9000284350601A681648B2F1804F18BF82420C
:104CA00017D0A0F57C40824213D000F5806082428C
:104CB0000FD000F5806082420BD000F57840824230
:104CC00007D0A0F56C40824203D000F594308242B8
:104CD00004D124F08004896821439160012283F883
:104CE0003D20002083F83C0070BC704702207047D4
:104CF000000001400004014090F83C30012B3CD002
:104D000030B40246012380F83C30CB6823F4407372
:104D10008868034323F480634868034323F40063F3
:104D20000868034323F480530869034323F40053C2
:104D30004869034323F48043886A034323F47023C0
:104D4000886943EA004310680D4D0E4CA04218BF1D
:104D5000A8420CD123F470034C6A43EA045323F0B5
:104D60008073CC69234323F00073096A0B434364C7
:104D7000002082F83C0030BC70470220704700BF22
:104D80000000014000040140026852E8003F23F4A3
:104D9000907342E800310029F6D1026802F108035D
:104DA00053E8001F0D4B0B40083242E80031002948
:104DB000F3D1C36E012B06D02023C0F88C30002322
:104DC000C36643677047026852E8003F23F0100350
:104DD00042E800310029F6D1EEE700BFFEFFFFEF09
:104DE00070B586B004468368026913434269134371
:104DF000C269134301680868884A02401A430A607E
:104E00002268536823F44053E1680B435360A1695F
:104E10002268834B9A4201D0236A19439068814BE0
:104E200003400B4393602268D36A23F00F03616A47
:104E30000B43D36223687C4A934221D07B4A93423E
:104E400000F08C807A4A934200F0A280794A934223
:104E500000F0B580784A934200F0C880774A9342C8
:104E600000F0F480764A934200F01981754A93422B
:104E700000F02C816A4A934200F03F8180223BE09F
:104E8000714A526D02F03802282A34D8DFE812F055
:104E90002900330033003300330033003300330084
:104EA0004D0133003300330033003300330033004F
:104EB0002B00330033003300330033003300330062
:104EC0002D00330033003300330033003300330050
:104ED0002F0033003300330033003300330033003E
:104EE0003100012208E0082206E0102204E020221E
:104EF00002E0402200E0802249498B4200F02781F5
:104F0000E069B0F5004F00F0A781202A00F2FF8190
:104F1000202A00F24982DFE812F016021C02470242
:104F200047021F0247024702470224024702470284
:104F30004702470247024702470229024702470247
:104F40004702470247024702470247024702470219
:104F50004702470247024702470235023A4A526D6A
:104F600002F00702052A11D8DFE812F00600E1007E
:104F700008000A000C000E000022BDE70822BBE773
:104F80001022B9E72022B7E74022B5E78022B3E735
:104F90002D4A526D02F00702052A0ED8DFE802F012
:104FA00003C90507090B0022A6E70822A4E710227F
:104FB000A2E72022A0E740229EE780229CE7224A27
:104FC000526D02F00702052A0ED8DFE802F003B4A2
:104FD0000507090B00228FE708228DE710228BE7D7
:104FE000202289E7402287E7802285E7164A526D12
:104FF00002F00702052A0ED8DFE802F0039F05073A
:10500000090B002278E7082276E7102274E72022B5
:1050100072E7402270E780226EE700BFF369FFCF9E
:10502000000C0058FFF4FF11001001400044004044
:1050300000480040004C0040005000400014014077
:1050400000780040007C0040004402587D4A526DC8
:1050500002F03802282A20D8DFE802F0151F1F1FAF
:105060001F1F1F1F711F1F1F1F1F1F1F171F1F1F06
:105070001F1F1F1F191F1F1F1F1F1F1F1B1F1F1F4A
:105080001F1F1F1F1D00012236E7082234E71022D0
:1050900032E7202230E740222EE780222CE7694ABF
:1050A000526D02F00702052A0ED8DFE802F0034A2B
:1050B0000507090B00221FE708221DE710221BE746
:1050C000202219E7402217E7802215E75D4A526D3A
:1050D00002F00702052A0ED8DFE802F003350507C3
:1050E000090B002208E7082206E7102204E7202225
:1050F00002E7402200E78022FEE602F50E32926DC2
:1051000002F00702052A0ED8DFE802F0031F0507A8
:10511000090B0222F0E60822EEE61022ECE620223D
:10512000EAE64022E8E68022E6E60422E4E60422FB
:10513000E2E60422E0E60422DEE60422DCE60422C3
:10514000DAE60422D8E60422D6E60422D4E6202AAF
:1051500027D8022AC0F01A81023A1E2A00F21881CA
:10516000DFE812F050001601560016011601160174
:105170005B00160116011601160116011601160133
:10518000600016011601160116011601160116011E
:105190001601160116011601160116011601160157
:1051A0006C00402A2CD14FF40040626A264B33F841
:1051B0001220B0FBF2F3656805EB4501994200F25D
:1051C000E980B3EB053F00F2E78000263346314625
:1051D000FBF7B6F8090241EA106100026B08C0183B
:1051E0002A46334641F10001FBF7AAF8A0F54072C8
:1051F000164B9A4200F2D2802368D8603046D4E041
:105200000120D2E0FEF758FF0028CED10020CCE0EC
:1052100003A8FEF763FF0498F6E76846FFF75EF819
:105220000198F1E7074B1B6813F0200F08D0054BDE
:105230001B68C3F3C1030648D840B6E70548B4E786
:105240000348B2E700440258F08D0008FFFC0F004D
:105250000090D00300093D00202A15D8202A00F232
:105260009F80DFE802F031379D9D3A9D9D9D3F9DD7
:105270009D9D9D9D9D9D449D9D9D9D9D9D9D9D9DB7
:105280009D9D9D9D9D9D5000402A1BD1626A4D4B66
:1052900033F81230B0FBF3F06268530803EB4003BD
:1052A000B3FBF2F3A3F110014FF6EF72914279D8FC
:1052B0009AB222F00F02C3F3420313432268D36071
:1052C000002072E0012070E0FEF76EF80028DDD1CA
:1052D00000206AE0FEF77AF8F8E703A8FEF7FEFE82
:1052E0000498F3E76846FEF7F9FF0198EEE7364BBE
:1052F0001B6813F0200F08D0334B1B68C3F3C103A6
:105300003248D840C2E73248C0E73048BEE7402ABA
:1053100017D14FF40040626A2A4B33F81230B0FBC9
:10532000F3F0636800EB5300B0FBF3F0A0F1100260
:105330004FF6EF739A4242D8236880B2D8600020BB
:1053400033E0012031E0FEF72FF80028E3D1002000
:105350002BE0FEF73BF8F8E703A8FEF7BFFE049842
:10536000F3E76846FEF7BAFF0198EEE7164B1B68B5
:1053700013F0200F08D0144B1B68C3F3C10313486C
:10538000D840C8E71248C6E71048C4E701200CE03F
:1053900001200AE0012008E0012006E0012004E0ED
:1053A000012002E0012000E001200123A4F86A307E
:1053B000A4F8683000236367A36706B070BD0120BE
:1053C000F3E700BFF08D0008004402580090D003BE
:1053D00000093D00836A13F0080F06D00268536885
:1053E00023F40043816B0B435360836A13F0010F76
:1053F00006D00268536823F40033C16A0B4353603C
:10540000836A13F0020F06D00268536823F48033D6
:10541000016B0B435360836A13F0040F06D00268DC
:10542000536823F48023416B0B435360836A13F06A
:10543000100F06D00268936823F48053C16B0B43AE
:105440009360836A13F0200F06D00268936823F4F8
:105450000053016C0B439360836A13F0400F0AD032
:105460000268536823F48013416C0B435360436C10
:10547000B3F5801F0BD0836A13F0800F06D002684B
:10548000536823F40023C16C0B43536070470268D8
:10549000536823F4C003816C0B435360EBE72DE9A1
:1054A000F84305460E4617469946DDF820802B68DE
:1054B000DC6936EA04040CBF01240024BC423AD162
:1054C000B8F1FF3FF3D0FBF711FCA0EB090040451A
:1054D00034D8B8F1000F33D02B681A6812F0040FDB
:1054E000E5D0B6F1400218BF0122802EDFD0002A9D
:1054F000DDD0DA6912F0080F11D1DA6912F4006F09
:10550000D5D04FF400621A622846FFF73DFC2023F5
:10551000C5F89030002385F8843003200CE008247F
:105520001C622846FFF730FCC5F89040002385F840
:105530008430012000E00020BDE8F8830320FBE771
:105540000320F9E730B583B004460023C0F890305B
:10555000FBF7CCFB05462268126812F0080F10D149
:1055600023681B6813F0040F28D12023C4F8883067
:10557000C4F88C300020E066206784F8840003B013
:1055800030BD6FF07E430093034600224FF40011BC
:105590002046FFF784FF0028E2D0226852E8003F4F
:1055A00023F0800342E800310029F6D12023C4F81B
:1055B0008830002384F884300320E0E76FF07E43D6
:1055C00000932B4600224FF480012046FFF767FF2F
:1055D0000028CAD0226852E8003F23F4907342E8C2
:1055E00000310029F6D1226802F1080353E8003F98
:1055F00023F00103083242E800310029F3D12023CF
:10560000C4F88C30002384F884300320B7E778B3E3
:1056100010B50446D0F888300BB32423C4F8883082
:105620002268136823F001031360A36AE3B92046DC
:10563000FFF7D6FB012811D02268536823F490436A
:1056400053602268936823F02A03936022681368EA
:1056500043F0010313602046FFF774FF10BD80F88C
:105660008430FCF763F9D8E72046FFF7B3FEDEE7A6
:1056700001207047002842D070B50E4615460446FA
:10568000D0F8883053B32423C4F8883022681368D4
:1056900023F001031360A36A2BBB2046FFF7A0FB96
:1056A00001281AD02268536823F49043536022687B
:1056B000936823F02A039360B5F5006F17D0226832
:1056C000136823F400632B4313602268136843F0CC
:1056D000010313602046FFF735FF70BD80F884306A
:1056E000FCF724F9CFE72046FFF774FED5E72268E0
:1056F000536823F07F4343EA06635360DFE70120EA
:1057000070470000436E2BB90123A0F86A30A0F85F
:105710006830704730B403689A68C2F3426299688F
:10572000490F094D6B5C1B01084C615C93FBF1F365
:10573000A0F86A30AB5C1B01A25C93FBF2F3A0F80B
:10574000683030BC704700BF108E0008088E00081B
:1057500090F88430012B18D0012380F88430242362
:10576000C0F8883003681A68196821F001011960CF
:1057700022F000520023436601680A602022C0F82C
:10578000882080F88430184670470220704738B56A
:1057900090F88430012B1DD00446012380F884301A
:1057A0002423C0F8883003681D681A6822F00102BB
:1057B0001A600268936823F0604319439160FFF711
:1057C000A1FF23681D602023C4F88830002084F8DE
:1057D000840038BD0220FCE738B590F88430012BF6
:1057E0001DD00446012380F884302423C0F888307B
:1057F00003681D681A6822F001021A600268936843
:1058000023F0606319439160FFF77CFF23681D60FC
:105810002023C4F88830002084F8840038BD02209A
:10582000FCE788B110B50446FCF73CF9E368226850
:1058300043F080031360236962681343A168226800
:105840000B435360002010BD01207047FEE7FEE7C8
:10585000FEE7FEE7FEE770477047704708B5FBF7C5
:1058600039FA08BD08B50248FCF76BFC08BD00BF5B
:10587000701B002082B000230193019B0133019330
:10588000019BB3F1706F15D80369002BF5DA002383
:105890000193036943F001030361019B0133019309
:1058A000019BB3F1706F08D8036913F0010FF4D1B5
:1058B000002000E0032002B070470320FBE7000057
:1058C00084B010B5044603A880E80E009DF811309E
:1058D000012B1FD1A36B23F48033A363E2681F4B1A
:1058E0001340E360E36823F44013E3609DF818304D
:1058F000012B0AD02046FFF7BDFF9DF80E30012B8B
:105900001CD0BDE8104004B07047E36843F4801336
:10591000E360EFE7E36843F04003E3602046FFF70E
:10592000A9FF9DF8153023B9A36B43F48033A3631B
:10593000E3E7A36B23F48033A363DEE7E36D9BB25D
:10594000E365E26D064B1343E365A36843F006038A
:10595000A360A36843F02003A360D2E7BFFFBDFFAD
:105960000000EE03022A0AD00922C36823F4705310
:10597000C360C36843EA8223C36000207047204BA2
:105980000B44204A934229D91F4B0B441F4A934290
:1059900026D91F4B0B441F4A934223D91E4B0B445D
:1059A0001E4A934220D31E4B0B441E4A93421DD9DC
:1059B0001D4B0B441D4A93421AD31D4B0B441D4AE9
:1059C000934217D31C4B0B441C4A934214D31C4BD9
:1059D0000B441C4A934211D20722C6E70F22C4E7A8
:1059E0000E22C2E70D22C0E70C22BEE70B22BCE765
:1059F0000A22BAE70922B8E70822B6E70622B4E786
:105A0000405327FFFF340C00401E1BFF3F420F0096
:105A100000DC0BFF7F4F1200808CF9FE20D61300B4
:105A200060B6E5FE5FE3160000D3CEFE40771B00B4
:105A3000C05BB3FEC091210000CA91FE2075380002
:105A4000E05459FEE09C4100836843F00103836009
:105A500000207047836823F00103836000207047B3
:105A600082B000230193019B01330193019BB3F1A9
:105A7000706F15D80369002BF5DA002301938901B3
:105A800041F020010161019B01330193019BB3F1BE
:105A9000706F08D8036913F0200FF4D1002000E0E4
:105AA000032002B070470320FBE782B0002301937C
:105AB000019B01330193019BB3F1706F13D803690C
:105AC000002BF5DA0023019310230361019B0133BE
:105AD0000193019BB3F1706F08D8036913F0100FA5
