:020000040800F2
:1000000000000220D5A50008538200085582000890
:1000100057820008598200085B8200080000000037
:100020000000000000000000000000005D820008E9
:100030005F820008000000006182000863820008FF
:1000400029A6000829A6000829A6000829A6000854
:1000500029A6000829A6000829A6000829A6000844
:1000600029A6000829A600086B82000829A6000816
:1000700029A6000829A6000829A6000829A6000824
:1000800029A6000829A6000829A6000829A6000814
:1000900029A6000829A6000829A6000829A6000804
:1000A00029A6000829A6000829A6000829A60008F4
:1000B00029A6000829A6000829A6000829A60008E4
:1000C00029A6000829A6000829A6000829A60008D4
:1000D00029A6000829A6000829A6000829A60008C4
:1000E00029A6000829A600080000000029A600088B
:1000F00029A6000829A6000829A6000829A60008A4
:1001000029A6000829A6000829A6000829A6000893
:1001100029A6000829A6000829A6000829A6000883
:1001200029A6000829A6000829A6000829A6000873
:1001300029A6000829A6000829A6000829A6000863
:1001400000000000000000000000000000000000AF
:1001500029A6000829A6000829A6000829A6000843
:1001600029A6000829A6000829A6000829A6000833
:1001700029A6000829A6000829A6000829A6000823
:1001800029A6000829A6000829A6000829A6000813
:1001900029A6000829A6000829A6000829A6000803
:1001A00029A6000829A6000829A6000829A60008F3
:1001B00029A6000829A6000829A6000829A60008E3
:1001C00029A6000829A6000829A6000829A60008D3
:1001D00029A600087982000829A6000829A6000897
:1001E00029A6000829A6000829A6000829A60008B3
:1001F00029A6000829A6000829A6000829A60008A3
:1002000029A6000829A6000829A6000829A6000892
:1002100029A6000829A6000829A6000829A6000882
:1002200029A6000829A6000829A600080000000049
:1002300029A6000829A600080000000029A6000839
:1002400029A6000829A6000829A6000829A6000852
:1002500029A6000829A6000829A6000829A6000842
:1002600029A6000829A6000829A6000829A6000832
:1002700029A6000829A6000829A6000800000000F9
:1002800029A6000829A6000829A6000800000000E9
:080290000000000029A600088F
:1002A00001F0FF01102A2BDB10F0070F08D010F827
:1002B000013B013A8B422DD010F0070F42B3F6D12B
:1002C000F0B441EA012141EA014122F007047FF044
:1002D00000070023F0E80256083C85EA010586EA9B
:1002E000010685FA47F5A3FA87F586FA47F6A5FAD7
:1002F00087F68EB9EED1F0BC01F0FF0102F00702E3
:1003000032B110F8013B013A83EA010313B1F8D18D
:100310000020704701387047002D06BF354603386E
:10032000073815F0010F07D1013015F4807F02BFA7
:10033000013015F4C03F0130F0BC0138704700BFF8
:10034000034613F8012B002AFBD1181A0138704715
:1003500081F0004102E000BF83F0004330B54FEA76
:1003600041044FEA430594EA050F08BF90EA020FE3
:100370001FBF54EA000C55EA020C7FEA645C7FEA76
:10038000655C00F0E2804FEA5454D4EB5555B8BF99
:100390006D420CDD2C4480EA020281EA030382EA0A
:1003A000000083EA010180EA020281EA0303362D9C
:1003B00088BF30BD11F0004F4FEA01314FF4801C6F
:1003C0004CEA113102D0404261EB410113F0004F81
:1003D0004FEA03334CEA133302D0524263EB430338
:1003E00094EA050F00F0A780A4F10104D5F1200ED6
:1003F0000DDB02FA0EFC22FA05F2801841F1000131
:1004000003FA0EF2801843FA05F359410EE0A5F104
:1004100020050EF1200E012A03FA0EFC28BF4CF035
:10042000020C43FA05F3C01851EBE37101F00045EB
:1004300007D54FF0000EDCF1000C7EEB00006EEBF8
:100440000101B1F5801F1BD3B1F5001F0CD3490882
:100450005FEA30004FEA3C0C04F101044FEA4452D9
:1004600012F5800F80F09A80BCF1004F08BF5FEA60
:10047000500C50F1000041EB045141EA050130BD40
:100480005FEA4C0C404141EB0101013C28BFB1F552
:10049000801FE9D291F0000F04BF01460020B1FA9D
:1004A00081F308BF2033A3F10B03B3F120020CDA70
:1004B0000C3208DD02F1140CC2F10C0201FA0CF04E
:1004C00021FA02F10CE002F11402D8BFC2F1200CB3
:1004D00001FA02F120FA0CFCDCBF41EA0C01904069
:1004E000E41AA2BF01EB0451294330BD6FEA0404B2
:1004F0001F3C1CDA0C340EDC04F11404C4F120029D
:1005000020FA04F001FA02F340EA030021FA04F3AE
:1005100045EA030130BDC4F10C04C4F1200220FA05
:1005200002F001FA04F340EA0300294630BD21FA43
:1005300004F0294630BD94F0000F83F4801306BF09
:1005400081F480110134013D4EE77FEA645C18BFFD
:100550007FEA655C29D094EA050F08BF90EA020F94
:1005600005D054EA000C04BF1946104630BD91EA8C
:10057000030F1EBF0021002030BD5FEA545C05D18F
:100580004000494128BF41F0004130BD14F58004CE
:100590003CBF01F5801130BD01F0004545F0FE4142
:1005A00041F470014FF0000030BD7FEA645C1ABF77
:1005B000194610467FEA655C1CBF0B46024650EAAE
:1005C000013406BF52EA033591EA030F41F40021DA
:1005D00030BD00BF90F0000F04BF0021704730B560
:1005E0004FF4806404F132044FF000054FF0000135
:1005F00050E700BF90F0000F04BF0021704730B5F6
:100600004FF4806404F1320410F0004548BF4042CA
:100610004FF000013EE700BF42004FEAE2014FEA1F
:1006200031014FEA02701FBF12F07F4393F07F4FFA
:1006300081F06051704732F07F4208BF704793F0FD
:100640007F4F04BF41F40021704730B54FF4607410
:1006500001F0004521F000411CE700BF50EA010213
:1006600008BF704730B54FF000050AE050EA0102BC
:1006700008BF704730B511F0004502D5404261EB2C
:1006800041014FF4806404F132045FEA915C3FF46D
:10069000D8AE4FF003025FEADC0C18BF03325FEA0A
:1006A000DC0C18BF033202EBDC02C2F1200300FABB
:1006B00003FC20FA02F001FA03FE40EA0E0021FAE0
:1006C00002F11444BDE600BF53B94AB9002908BF7E
:1006D00000281CBF4FF0FF314FF0FF3000F00CB886
:1006E000ADF1080C6DE904CE0CF0E2FDDDF804E09C
:1006F000DDE9022304B07047704700BF10B5054C18
:10070000237833B9044B13B10448AFF300800123BD
:10071000237010BDE002002000000000A8D50008F2
:1007200008B5034B1BB103490348AFF3008008BD74
:1007300000000000E4020020A8D5000810B4064C18
:100740008446BCE80F000FC49CE8030084E8030063
:100750005DF8044B704700BFFC02002010B507286D
:1007600015D8DFE800F00415263748596A7B444C59
:100770000122A188206803F07DF80122A189A068E8
:1007800003F078F80122A18A206903F073F810BD04
:100790003B4C0022A188206803F06CF80122A1895B
:1007A000A06803F067F80122A18A206903F062F8CB
:1007B000EDE7334C0122A188206803F05BF80022AA
:1007C000A189A06803F056F80122A18A206903F0EC
:1007D00051F8DCE72A4C0122A188206803F04AF88E
:1007E0000122A189A06803F045F80022A18A2069AE
:1007F00003F040F8CBE7224C0022A188206803F0E8
:1008000039F80022A189A06803F034F80122A18AF6
:10081000206903F02FF8BAE7194C0122A18820685B
:1008200003F028F80022A189A06803F023F8002231
:10083000A18A206903F01EF8A9E7114C0022A188C3
:10084000206803F017F80122A189A06803F012F8CC
:100850000022A18A206903F00DF898E7084C0022D5
:10086000A188206803F006F80022A189A06803F09F
:1008700001F80022A18A206902F0FCFF87E700BF8F
:10088000FC0200200FB400B5C3B044AB53F8042BF6
:1008900001934FF4807102A80AF070FC431EFE2BF6
:1008A00004D943B05DF804EB04B0704781B202A8EC
:1008B00008F05EFEF5E72DE9F047054688469246CA
:1008C0001E4690F83192B9F1000F16D001F07F0862
:1008D000002416E00134A4B2B44224D208EB04018F
:1008E00001230AEB0402C9B22878D5F81072B84780
:1008F0000028EFD04FF0010915E00024ECE70134A7
:10090000A4B2B4420DD2D5F8203208EB0400012283
:100910000AEB0401C0B298470028F0D04FF001095B
:1009200001E04FF000094846BDE8F08730B50022ED
:10093000B0F832321B02C91A63EB0303B0F834C2B9
:10094000ACFB014E0CFB03EE01FB03FCA1FB01130E
:1009500003EB4C0390F936C24FEAEC750CFB03F342
:1009600001FB0533ACFB01C10B444FEA8E4E4EEA4E
:10097000943EA10411EB0C0143EB0E03C0F8483286
:10098000C0F84C22D8185241C01842F10002D200DF
:1009900042EA5072C000C01842F100021146002A1B
:1009A00004DB800B40EA8140891330BD43F6FF73BE
:1009B000C01842F10001F4E72DE9F04F83B0D0F800
:1009C0004822D0F84C9202FB09F3A2FB025C0CEB2C
:1009D000430C2B466446BCF1000FC0F21D819B09FD
:1009E00043EA8463A41102FB04F403FB0944A2FB61
:1009F00003363444A646002CC0F212811C0A44EA95
:100A00000E644FEA2E2E274690F943324FEAE378E0
:100A100003FB0EF604FB0864A3FB07363444A3462D
:100A2000002CC0F201815B0990F942424FEAE47860
:100A300004FB0CF605FB0866A4FB05842644340180
:100A400044EA187601964FEA08142646B0F8404268
:100A5000A2FB04A804FB09884FEA885848EA9A28B0
:100A60004FEA8A5AB0F83E42E40343EACB6304EB10
:100A70006B149B19019E44EB060413EB0A0344EB31
:100A8000080490F93D624FEAE67806FB0EFE07FB8C
:100A900008EEA6FB0767BE44F046BEF1000FC0F2A9
:100AA000C780760990F93CA24FEAEA770AFB0CFC72
:100AB00005FB07CCAAFB05A5AC444FEA8C0C4CEA1D
:100AC0009A7C4FEA8A0AB0F93AE24FEAEE77BEF52D
:100AD000804E47F1FF3702FB07F70EFB0977A2FBB9
:100AE0000E5E77447F0547EAD5274FEA455EB0F9A9
:100AF0003852B5F580454FEA853B46EAC8650BEBB1
:100B0000681615EB0A0546EB0C0615EB0E0546EBD1
:100B100007063746002EC0F28F802D0E45EA0725C6
:100B20004FEA276C0E46A5FB017501FB0C5590F9A9
:100B300046E24FEAEE7C02FB0CFC0EFB09CCA2FB6A
:100B40000EE29444B0F944224FEAE2784FEA0848B2
:100B500048EA1248120412EB0E024CEB080CA1FBFF
:100B6000022E01FB0CEEF446BEF1000F6ADB520BC5
:100B700042EACC424FEA6C3EA6FB022C01FB0ECCB3
:100B8000E646BCF1000F64DB520A4FEA6E2C42EAE3
:100B9000CE52A1FB018E90F947024FEAE07900FBAB
:100BA0000EFE08FB09EEA0FB0808C644F046BEF1A5
:100BB000000F55DB000C40EA08404FEA2848A6FB2E
:100BC000006001FB08008646002850DBF6094FEA6A
:100BD000EE1146EA4E662046002C4CDB9B0843EAA9
:100BE0008073DB1945EBA0009B1840EB0C009B19B0
:100BF00040EB0100DA1840EB0001D21840EB010194
:100C0000C90041EA5271D200D21840EB0100000A3B
:100C1000002103B0BDE8F08F3F334CF10004DEE665
:100C2000FF3344F1000EE9E61F3344F1000BFAE60E
:100C30001F364EF1000834E76FF07F47ED1946F19B
:100C400000076AE741F6FF7C12EB0C024EF1000C44
:100C50008DE740F2FF1E12EB0E024CF1000E93E7FF
:100C60004FF6FF7810EB08004EF10008A2E77F3640
:100C700040F1000EAAE7033344F10000AEE70000A4
:100C800010B5044690F831325BB9D0F80832984775
:100C9000034620B1D4F82C3208489847012318465F
:100CA00010BDD0F81832984703460028F7D0D4F882
:100CB0002C32034898470123F1E700BF0CD6000807
:100CC00028D60008F8B504460846164694F831229E
:100CD00042B9D4F80C5232462078A847074690B162
:100CE000012710E0B3F5007F28BF4FF400731D46C5
:100CF0005A1C92B2611C40F08000D4F81C32984714
:100D0000074610B101273846F8BD2A46A11C3046D7
:100D10000AF0C1FAF7E7000010B582B004460223DA
:100D200001AA3121FFF7CEFF30B1D4F82C3281482F
:100D30009847012002B010BD9DF805209DF80430B1
:100D400043EA0223A4F83232022301AA33212046C7
:100D5000FFF7B8FF28B1D4F82C3276489847012025
:100D6000E8E79DF805209DF8043043EA0223A4F843
:100D70003432012301AA35212046FFF7A3FF28B111
:100D8000D4F82C326B4898470120D3E79DF9043002
:100D900084F83632022301AA36212046FFF792FF5B
:100DA00028B1D4F82C32634898470120C2E79DF857
:100DB00005209DF8043043EA0223A4F838320223C8
:100DC00001AA38212046FFF77DFF28B1D4F82C3244
:100DD000584898470120ADE79DF805209DF804305C
:100DE00043EA0223A4F83A32012301AA3A21204619
:100DF000FFF768FF28B1D4F82C324E4898470120FD
:100E000098E79DF9043084F83C32012301AA3B2184
:100E10002046FFF757FF28B1D4F82C3245489847B1
:100E2000012087E79DF9043084F83D32022301AAAE
:100E30003C212046FFF746FF28B1D4F82C323D482C
:100E40009847012076E79DF805209DF8043043EA95
:100E50000223A4F83E32022301AA3E212046FFF7D6
:100E600031FF28B1D4F82C3232489847012061E78D
:100E70009DF805209DF8043043EA0223A4F840328F
:100E8000012301AA40212046FFF71CFF28B1D4F816
:100E90002C322848984701204CE79DF9043084F80B
:100EA0004232012301AA41212046FFF70BFF28B15E
:100EB000D4F82C321F48984701203BE79DF90430B5
:100EC00084F84332022301AA42212046FFF7FAFEAA
:100ED00028B1D4F82C321748984701202AE79DF80A
:100EE00005209DF8043043EA0223A4F8443201238C
:100EF00001AA44212046FFF7E5FE28B1D4F82C32A0
:100F00000C489847012015E79DF9043084F84632D3
:100F1000012301AA45212046FFF7D4FE20B99DF9FF
:100F2000043084F8473205E7D4F82C32014898475A
:100F30000120FFE644D60008E0B130B583B0044696
:100F400090F83052012D02D0032003B030BD8DF84F
:100F50000410C1F300218DF80510022301AA152108
:100F6000FFF7A9FC0028F0D0D4F82C3202489847AB
:100F70002846EAE702207047C8D6000870B582B05C
:100F800068B30D46064690F83042012C03D0032486
:100F9000204602B070BD01230DF107021721FFF7B3
:100FA00091FE20B1D6F82C320E489847F0E79DF814
:100FB000073003F0FE038DF807302B438DF8073020
:100FC00001230DF1070217213046FFF774FC08B921
:100FD0000446DDE7D6F82C3203489847D8E70224C8
:100FE000D6E700BFF8D6000824D7000870B582B055
:100FF00070B30D46064690F83042012C03D003240E
:10100000204602B070BD01230DF107021721FFF742
:1010100059FE20B1D6F82C320E489847F0E79DF8DB
:10102000073003F0FD038DF8073043EA45038DF8E0
:10103000073001230DF1070217213046FFF73BFC73
:1010400008B90446DCE7D6F82C3203489847D7E7BE
:101050000224D5E7F8D6000824D7000870B582B07E
:1010600070B30D46064690F83042012C03D003249D
:10107000204602B070BD01230DF107021721FFF7D2
:1010800021FE20B1D6F82C320E489847F0E79DF8A3
:10109000073003F0FB038DF8073043EA85038DF832
:1010A000073001230DF1070217213046FFF703FC3B
:1010B00008B90446DCE7D6F82C3203489847D7E74E
:1010C0000224D5E7F8D6000824D7000870B582B00E
:1010D00070B30D46064690F83042012C03D003242D
:1010E000204602B070BD01230DF107021721FFF762
:1010F000E9FD20B1D6F82C320E489847F0E79DF86C
:10110000073003F0F7038DF8073043EAC5038DF885
:10111000073001230DF1070217213046FFF7CBFB03
:1011200008B90446DCE7D6F82C3203489847D7E7DD
:101130000224D5E7F8D6000824D7000870B582B09D
:1011400070B30D46064690F83042012C03D00324BC
:10115000204602B070BD01230DF107021721FFF7F1
:10116000B1FD20B1D6F82C320E489847F0E79DF833
:10117000073003F0EF038DF8073043EA05138DF8CD
:10118000073001230DF1070217213046FFF793FBCB
:1011900008B90446DCE7D6F82C3203489847D7E76D
:1011A0000224D5E7F8D6000824D7000870B582B02D
:1011B00088B30C46064690F83052012D2DD10729F0
:1011C0000BD801230DF107021821FFF77BFD50B169
:1011D000D6F82C321348984720E0D0F82C32124829
:1011E000984704251AE09DF8073003F0F8038DF8BE
:1011F000073023438DF8073001230DF10702182132
:101200003046FFF758FB08B9054607E0D6F82C3200
:101210000648984702E0022500E00325284602B070
:1012200070BD00BF74D7000850D70008A0D70008D1
:1012300070B582B070B30D46064690F83042012C6E
:1012400003D00324204602B070BD01230DF1070234
:101250001821FFF737FD20B1D6F82C320E489847F9
:10126000F0E79DF8073003F0E7038DF8073043EA15
:10127000C5038DF8073001230DF107021821304610
:10128000FFF719FB08B90446DCE7D6F82C3203480F
:101290009847D7E70224D5E774D70008A0D70008FD
:1012A00070B582B068B30D46064690F83042012C06
:1012B00003D00324204602B070BD01230DF10702C4
:1012C0001921FFF7FFFC20B1D6F82C320E489847C1
:1012D000F0E79DF8073003F0FE038DF807302B434D
:1012E0008DF8073001230DF1070219213046FFF771
:1012F000E2FA08B90446DDE7D6F82C3203489847ED
:10130000D8E70224D6E700BFCCD70008F4D70008FE
:1013100070B582B070B30D46064690F83042012C8D
:1013200003D00324204602B070BD01230DF1070253
:101330001921FFF7C7FC20B1D6F82C320E48984788
:10134000F0E79DF8073003F0FD038DF8073043EA1E
:1013500045038DF8073001230DF1070219213046AE
:10136000FFF7A9FA08B90446DCE7D6F82C3203489F
:101370009847D7E70224D5E7CCD70008F4D7000870
:1013800070B582B070B30D46064690F83042012C1D
:1013900003D00324204602B070BD01230DF10702E3
:1013A0001921FFF78FFC20B1D6F82C320E48984750
:1013B000F0E79DF8073003F0FB038DF8073043EAB0
:1013C00085038DF8073001230DF1070219213046FE
:1013D000FFF771FA08B90446DCE7D6F82C32034867
:1013E0009847D7E70224D5E7CCD70008F4D7000800
:1013F00070B582B070B30D46064690F83042012CAD
:1014000003D00324204602B070BD01230DF1070272
:101410001921FFF757FC20B1D6F82C320E48984717
:10142000F0E79DF8073003F0F7038DF8073043EA43
:10143000C5038DF8073001230DF10702192130464D
:10144000FFF739FA08B90446DCE7D6F82C3203482E
:101450009847D7E70224D5E7CCD70008F4D700088F
:1014600070B582B070B30D46064690F83042012C3C
:1014700003D00324204602B070BD01230DF1070202
:101480001921FFF71FFC20B1D6F82C320E489847DF
:10149000F0E79DF8073003F0EF038DF8073043EADB
:1014A00005138DF8073001230DF10702192130468D
:1014B000FFF701FA08B90446DCE7D6F82C320348F6
:1014C0009847D7E70224D5E7CCD70008F4D700081F
:1014D00070B582B070B30D46064690F83042012CCC
:1014E00003D00324204602B070BD01230DF1070292
:1014F0001921FFF7E7FB20B1D6F82C320E489847A8
:10150000F0E79DF8073003F0BF038DF8073043EA9A
:1015100085138DF8073001230DF10702192130469C
:10152000FFF7C9F908B90446DCE7D6F82C320348BE
:101530009847D7E70224D5E7CCD70008F4D70008AE
:1015400070B582B068B30D46064690F83042012C63
:1015500003D00324204602B070BD01230DF1070221
:101560001A21FFF7AFFB20B1D6F82C320E4898476E
:10157000F0E79DF8073003F0FE038DF807302B43AA
:101580008DF8073001230DF107021A213046FFF7CD
:1015900092F908B90446DDE7D6F82C32034898479B
:1015A000D8E70224D6E700BF1CD8000844D80008BA
:1015B00070B582B070B30D46064690F83042012CEB
:1015C00003D00324204602B070BD01230DF10702B1
:1015D0001A21FFF777FB20B1D6F82C320E48984736
:1015E000F0E79DF8073003F0FD038DF8073043EA7C
:1015F00045038DF8073001230DF107021A2130460B
:10160000FFF759F908B90446DCE7D6F82C3203484D
:101610009847D7E70224D5E71CD8000844D800082B
:1016200070B582B070B30D46064690F83042012C7A
:1016300003D00324204602B070BD01230DF1070240
:101640001A21FFF73FFB20B1D6F82C320E489847FD
:10165000F0E79DF8073003F0FB038DF8073043EA0D
:1016600085038DF8073001230DF107021A2130465A
:10167000FFF721F908B90446DCE7D6F82C32034815
:101680009847D7E70224D5E71CD8000844D80008BB
:1016900070B582B068B30D46064690F83042012C12
:1016A00003D00324204602B070BD01230DF10702D0
:1016B0001B21FFF707FB20B1D6F82C320E489847C4
:1016C000F0E79DF8073003F0FE038DF807302B4359
:1016D0008DF8073001230DF107021B213046FFF77B
:1016E000EAF808B90446DDE7D6F82C3203489847F3
:1016F000D8E70224D6E700BF6CD8000894D80008C9
:1017000070B582B070B30D46064690F83042012C99
:1017100003D00324204602B070BD01230DF107025F
:101720001B21FFF7CFFA20B1D6F82C320E4898478C
:10173000F0E79DF8073003F0FD038DF8073043EA2A
:1017400045038DF8073001230DF107021B213046B8
:10175000FFF7B1F808B90446DCE7D6F82C320348A5
:101760009847D7E70224D5E76CD8000894D800083A
:1017700070B582B070B30D46064690F83042012C29
:1017800003D00324204602B070BD01230DF10702EF
:101790001B21FFF797FA20B1D6F82C320E48984754
:1017A000F0E79DF8073003F0CF038DF8073043EAE8
:1017B00005138DF8073001230DF107021B21304678
:1017C000FFF779F808B90446DCE7D6F82C3203486D
:1017D0009847D7E70224D5E76CD8000894D80008CA
:1017E00070B582B068B30D46064690F83042012CC1
:1017F00003D00324204602B070BD01230DF107027F
:101800001C21FFF75FFA20B1D6F82C320E4898471A
:10181000F0E79DF8073003F0F8038DF807302B430D
:101820008DF8073001230DF107021C213046FFF728
:1018300042F808B90446DDE7D6F82C320348984749
:10184000D8E70224D6E700BFBCD80008E0D80008DB
:1018500070B582B070B30D46064690F83042012C48
:1018600003D00324204602B070BD01230DF107020E
:101870001C21FFF727FA20B1D6F82C320E489847E2
:10188000F0E79DF8073003F0C7038DF8073043EA0F
:10189000C5038DF8073001230DF107021C213046E6
:1018A000FFF709F808B90446DCE7D6F82C320348FC
:1018B0009847D7E70224D5E7BCD80008E0D800084D
:1018C00070B582B068B30D46064690F83042012CE0
:1018D00003D00324204602B070BD01230DF107029E
:1018E0001D21FFF7EFF920B1D6F82C320E489847AA
:1018F000F0E79DF8073003F0E0038DF807302B4345
:101900008DF8073001230DF107021D213046FEF747
:10191000D2FF08B90446DDE7D6F82C3203489847D1
:10192000D8E70224D6E700BF04D9000828D9000868
:1019300070B582B070B30D46064690F83042012C67
:1019400003D00324204602B070BD01230DF107022D
:101950001F21FFF7B7F920B1D6F82C320E4898476F
:10196000F0E79DF8073003F0F1038DF8073043EA04
:1019700045038DF8073001230DF107021F21304682
:10198000FEF799FF08B90446DCE7D6F82C32034885
:101990009847D7E70224D5E74CD9000874D9000846
:1019A000002800F0CD8010B582B00446D0F82C326B
:1019B000002B00F0C780D0F80422002A3CD0D0F8D9
:1019C000081200293CD0D0F80C1200293CD0D0F8E5
:1019D000101200293CD0D0F8141200293CD0D0F8C5
:1019E000180200283CD0D4F81C0200283CD0D4F8BF
:1019F000200200283CD0D4F8280200283CD094F8DB
:101A00003132002B42D19047002839D101230DF10A
:101A1000070200212046FFF755F900283FD19DF825
:101A20000730502B44D0D4F82C32484898472046F1
:101A3000FFF726F9042086E045489847032082E016
:101A40004448984703207EE04348984703207AE0C3
:101A500042489847032076E041489847032072E0C7
:101A60004048984703206EE03F48984703206AE0CB
:101A70003E489847032066E03D489847032062E0CF
:101A8000D4F82C323B48984701205CE08847002876
:101A9000BCD0D4F82C3238489847012053E0D4F811
:101AA0002C32364898472046FFF7EAF804204AE0EF
:101AB000B6238DF8063001230DF106027E21204663
:101AC000FEF7F9FEC0B9D4F828320A20984701235E
:101AD0000DF1060202212046FFF7F4F8A8B99DF89F
:101AE000063013F0070F19D12046FFF715F9F0B9AA
:101AF000012384F8303226E0D4F82C32204898476D
:101B00002046FFF7BDF805201DE0D4F82C321D4813
:101B100098472046FFF7B4F8052014E0D4F82C329B
:101B2000194898472046FFF7ABF805200BE0D4F89A
:101B30002C32164898472046FFF7A2F8062002E00C
:101B400002207047032002B010BD00BFF8DA000881
:101B50009CD90008B8D90008D8D90008F4D90008E1
:101B600010DA00082CDA00084CDA000868DA0008FD
:101B700084DA0008A0DA0008BCDA0008D8DA000825
:101B800010DB00082CDB00084CDB00086CDB0008D5
:101B900030B583B0B8B3054690F83042012C03D07D
:101BA0000324204603B030BD01230DF107021B21A1
:101BB000FFF788F8D8B99DF8073023F003028DF8B5
:101BC000072023F033038DF8073001230DF10702BE
:101BD0001B212846FEF76FFE78B92846FFF750F81C
:101BE0000028DED1002285F830220446D9E7D5F856
:101BF0002C32064898470424D3E7D5F82C32044801
:101C000098470424CDE70224CBE700BF6CD8000836
:101C100094D8000870B582B0A8B3054690F8304259
:101C2000012C03D00324204602B070BD01230DF126
:101C300007021121FFF746F80646F8B99DF807306C
:101C400013F0020F04D0D5F824320BB102209847CC
:101C50009DF8073013F0010F04D0D5F824320BB1F2
:101C6000012098479DF8074014F00804DBD0D5F810
:101C7000243253B1082098473446D4E7D5F82C32A3
:101C800003489847CFE70224CDE73446CBE700BFAF
:101C90006CD6000810B10170002070470220704718
:101CA00018B180F831120020704702207047000000
:101CB000F0B583B000284AD00F461646054690F886
:101CC0003042012C03D00324204603B0F0BD012391
:101CD0000DF107021721FEF7F5FF48B99DF807300F
:101CE00013F0010F09D1D5F82C321B489847EBE7C8
:101CF000D5F82C3219489847E6E7022301AA1221A9
:101D00002846FEF7DFFFE8B99DF80520120202F42D
:101D100080729DF804301A439DF8073013F0040FC9
:101D200000D004323388934228BF134633803A46AA
:101D300014212846FEF7C6FF58B1D5F82C320848C2
:101D40009847C1E7D5F82C3206489847BCE70224EB
:101D5000BAE70446B8E700BFB4DB0008F8D60008CD
:101D600094DB00089CD600082DE9F04F83B00028D2
:101D700000F0DC800F469246984690F8303201938E
:101D8000012B40F0D680BAF1000F04D000252C467C
:101D9000A9460646A9E0D0F82C3271489847DDF8EC
:101DA0000490C8E0942B4AD0A02B40F0B3800C9B49
:101DB0001B88AB4240F2CC8005EB450308EB830166
:101DC000032208F82320009B3B44D8789A7812021B
:101DD00042EA00425B7813434B6000238B6001357D
:101DE000ADB20434A4B27DE00C9B1B88AB4240F240
:101DF000A68005EB450308EB830B012208F823209E
:101E0000009B3B44DA789978090241EA02415B7809
:101E10001943CBF804103046FEF788FDFEF726FC88
:101E200041EC150B9FED4C6B85EE067BB7EEC77B47
:101E30008BED027A0135ADB20434A4B252E00C9BB2
:101E40001B88AB427ED905EB450308EB830B0122CF
:101E500008F82320009BFB18DA789978090241EAF8
:101E600002415B781943CBF804103046FEF75EFD63
:101E7000FEF7FCFB41EC150B9FED376B85EE067B07
:101E8000B7EEC77B8BED027A6B1C9BB20C9A128863
:101E90009A425AD903EB430308EB830B022208F85A
:101EA0002320009B3B449A795979090241EA024177
:101EB0001B791943CBF804103046FEF77DFDFEF781
:101EC000D5FB41EC150B9FED246B85EE067BB7EE41
:101ED000C77B8BED027A0235ADB20734A4B201E0C4
:101EE0000234A4B2B9F1010F25D0544519D200949F
:101EF0003B5D902B3FF478AF3FF654AF482B06D0B4
:101F0000802BEDD0442B05D10234A4B2EAE7023491
:101F1000A4B2E7E7D6F82C3212489847DDF80490CF
:101F2000E0E70C9B1D804FF0000904E04FF0020930
:101F300001E04FF00309484603B0BDE8F08F4FF0D1
:101F40000009F8E74FF00009F5E74FF00009F2E764
:101F50004FF00009EFE700BF00000000000059400B
:101F6000F4DB000818DC000808B50348FFF752FE50
:101F700000B1012008BD00BF18030020F8B50546D8
:101F80000F461646BC4C4FF414720021204609F04F
:101F900003F9BA4BC4F80432B94BC4F80832B94B50
:101FA000C4F80C32B84BC4F81032B84BC4F8143231
:101FB000B74BC4F81832B74BC4F81C32B64BC4F850
:101FC0002032B64BC4F82832B54BC4F82C32C4F8D2
:101FD000246229462046FFF763FE002840F0BC80BB
:101FE0003946A548FFF756FE002840F0BA80A248BF
:101FF000FFF7D6FC002840F0B98000219E48FFF78B
:102000009FFA002840F0B78001219B48FFF7D0FAE3
:10201000002840F0B88001219748FFF701FB002815
:1020200040F0B98001219448FEF7A8FF002840F055
:10203000BA8000219048FEF7D9FF002840F0BB800D
:102040004FF480718C48FEF777FF002840F0BB808A
:1020500001218948FFF702F8002840F0BC800121E7
:102060008548FFF733F8002840F0BD800121824801
:10207000FFF764F8002840F0BE8000217E48FFF79B
:1020800095F8002840F0BF8001217B48FFF7D0F889
:10209000002840F0C08000217748FFF701F90028B0
:1020A00040F0C18001217448FFF732F9002840F068
:1020B000C28000217048FFF763F9002840F0C38018
:1020C00001216D48FFF794F9002840F0C4800021F9
:1020D0006948FFF7C5F9002840F0C580002166482F
:1020E000FFF7F6F9002840F0038101216248FFF76D
:1020F000CFFA002840F0048101215F48FFF700FB80
:10210000002840F0058105215B48FFF769FB0028A6
:1021100040F0068101215848FFF79AFB002840F063
:10212000078104215448FFF7CBFB002840F00881C9
:1021300004215148FFF7FCFB002840F009810321EE
:102140004D48FFF715FB58B1564800F015FA4A48BC
:10215000FFF71EFD012003E0534800F00DFA0120B7
:10216000F8BD524800F008FA0120F9E7504800F0A5
:1021700003FA0120F4E74F4800F0FEF93E48FFF76C
:1021800007FD0120ECE74C4800F0F6F93A48FFF76C
:10219000FFFC0120E4E7494800F0EEF93648FFF77C
:1021A000F7FC0120DCE7464800F0E6F93248FFF78B
:1021B000EFFC0120D4E7434800F0DEF92E48FFF79A
:1021C000E7FC0120CCE7404800F0D6F92A48FFF7A9
:1021D000DFFC0120C4E73D4800F0CEF92648FFF7B8
:1021E000D7FC0120BCE7394800F0C6F92248FFF7C8
:1021F000CFFC0120B4E7364800F0BEF91E48FFF7D7
:10220000C7FC0120ACE7334800F0B6F91A48FFF7E5
:10221000BFFC0120A4E7304800F0AEF91648FFF7F4
:10222000B7FC01209CE72D4800F0A6F91248FFF703
:10223000AFFC012094E72A4800F09EF90E48FFF712
:10224000A7FC01208CE7274800F096F90A48FFF721
:102250009FFC012084E7244800F08EF90648FFF730
:1022600097FC01207CE7214800F086F90248FFF73F
:102270008FFC012074E700BF18030020C123000871
:10228000C5230008C9230008CD230008D123000876
:102290000524000839240008ED24000871250008F1
:1022A0007925000810E0000834DC000854DC000840
:1022B00074DC00088CDC0008ACDC0008D4DC00080E
:1022C00000DD00081CDD000844DD000868DD0008B2
:1022D00094DD0008C0DD0008E8DD000810DE00081D
:1022E00038DE000864DE0008A4DE0008D4DE000842
:1022F0001B4800F041F91B48FFF74AFC01202FE77B
:10230000194800F039F91748FFF742FC012027E788
:10231000164800F031F91348FFF73AFC01201FE797
:10232000134800F029F90F48FFF732FC012017E7A6
:10233000104800F021F90B48FFF72AFC01200FE7B5
:102340000D4800F019F90748FFF722FC012007E7C4
:102350000A4800F011F90348FFF71AFC0120FFE6D4
:1023600000DF0008180300202CDF00084CDF000805
:1023700070DF00089CDF0008CCDF0008E8DF000801
:1023800070B584B0044615461E46ADF80E100DF12A
:102390000E0201460948FFF78BFC10B1012004B082
:1023A00070BD00962B46BDF80E2021460348FFF76E
:1023B000DBFC0028F3D00120F1E700BF1803002068
:1023C00000207047002070470020704700207047B1
:1023D00030B591B0EC460A4C0FCCACE80F00236846
:1023E0002CF8023B1B0C8CF800306846FDF7A8FF68
:1023F00081B2684607F0BCF8002011B030BD00BFC4
:102400002CE0000830B591B0EC460A4C0FCCACE89B
:102410000F0094E803004CF8040B8CF80010684699
:10242000FDF78EFF81B2684607F0A2F8002011B0D8
:1024300030BD00BF40E0000870B592B004460E46C3
:10244000154660F07F038DF84730002208212248AE
:1024500001F010FA642301220DF147011F4804F036
:1024600025FB80B964232A4631461C4804F07EFCD3
:10247000054601220821184801F0FCF96DB9DCB1CC
:10248000284612B070BD1648FEF7FCF9012208215B
:10249000114801F0EFF90125F2E701AD224611499B
:1024A000284608F0D7FD2846FDF74AFF81B22846A6
:1024B00007F05EF80125E3E701AD32780A492846C6
:1024C00008F0C8FD2846FDF73BFF81B2284607F01B
:1024D0004FF82546D4E700BF000C0258FC15002039
:1024E00058E0000878E00008A0E0000870B592B05D
:1024F00004460D46164600F07F038DF84730002253
:102500000821184801F0B6F9642301220DF14701B2
:10251000154804F0CBFA78B96423324629461248AC
:1025200004F0C4FA0546012208210E4801F0A2F980
:102530004DB9284612B070BD01220821094801F0AA
:1025400099F90125F5E701AD22460849284608F02A
:1025500081FD2846FDF7F4FE81B2284607F008F811
:102560000125E6E7000C0258FC150020D0E0000829
:1025700008B500F05DFD08BD0FB410B5C2B044ABA6
:1025800053F8042B019302AC4FF48071204608F0FD
:10259000F5FD2046FDF7D4FE81B2204606F0E8FFA7
:1025A00042B0BDE8104004B07047000030B583B0C1
:1025B000012803D0022864D003B030BD4FF48073EB
:1025C000ADF806300DF106035F4A4FF400715F4825
:1025D000FFF7D6FE08B9002438E05D48FFF7CCFFCE
:1025E000EAE7611C5B48FFF7C7FF04EB4402564B68
:1025F00003EB8203D3ED027AB7EEE77A53EC172BA5
:102600005548FFF7B9FF1FE0611C5248FFF7B4FFC0
:1026100004EB44054C4B03EB8503D3ED027AB7EE94
:10262000E77A53EC172B4D48FFF7A6FF0CE0611C2F
:102630004848FFF7A1FF04EB4405434B03EB850338
:1026400059684748FFF798FF0134A4B2BDF8062047
:10265000A24212D904EB44033B4911F82330012B69
:10266000BFD0022BD0D0032BE1D0611C3948FFF73B
:1026700083FF3C48FFF780FFE6E73B4B01221A70DF
:102680009AE74FF48073ADF806300DF106032E4A39
:102690004FF400712D48FFF773FE08B9002438E0AD
:1026A0002B48FFF769FF87E7611C2A48FFF764FFA3
:1026B00004EB4402244B03EB8203D3ED027AB7EE22
:1026C000E77A53EC172B2448FFF756FF1FE0611CF5
:1026D0002048FFF751FF04EB44051B4B03EB850338
:1026E000D3ED027AB7EEE77A53EC172B1B48FFF7CE
:1026F00043FF0CE0611C1748FFF73EFF04EB440565
:10270000114B03EB850359681548FFF735FF01347A
:10271000A4B2BDF80620A24212D904EB44030A4930
:1027200011F82330012BBFD0022BD0D0032BE1D0E6
:10273000611C0848FFF720FF0A48FFF71DFFE6E786
:102740000A4B01221A7037E7680500206811002043
:10275000F8E0000814E100082CE100084CE1000852
:102760006CE1000888E1000868130020691300206C
:1027700030B585B00024009401940294039400F0D5
:10278000EBFC01238DF800308DF8014001941F22ED
:102790008DF8082087228DF809208DF80A408DF8E1
:1027A0000B408DF80C308DF80D308DF80E408DF803
:1027B0000F40684600F0EEFC042000F0DBFC05B0A2
:1027C00030BD00002DE9F04F8DB007AD0024079417
:1027D000089409940A940B94594BD3F8E02042F0E2
:1027E0001002C3F8E020D3F8E02002F010020192BA
:1027F000019AD3F8E02042F00402C3F8E020D3F8B5
:10280000E02002F004020292029AD3F8E02042F0A3
:102810008002C3F8E020D3F8E02002F080020392A7
:10282000039AD3F8E02042F00102C3F8E020D3F885
:10283000E02002F001020492049AD3F8E02042F072
:102840000202C3F8E020D3F8E02002F00202059271
:10285000059AD3F8E02042F00802C3F8E020D3F84C
:10286000E03003F008030693069BDFF8DCB0224655
:102870001021584600F0FEFFDFF8D090224647F2C4
:102880000221484600F0F6FFDFF8C48022464FF4EC
:10289000E051404600F0EEFF2A4E224644213046E9
:1028A00000F0E8FF01222821304600F0E3FF4FF05E
:1028B000100ACDF81CA00127089709940A9429460C
:1028C000584600F0C7FE47F2022307930897099481
:1028D0000A942946484600F0BDFE4FF4E0530793A2
:1028E000089709940A942946404600F0B3FE4FF435
:1028F000604307934FF48819CDF820900994294636
:10290000404600F0A7FE6C230793089709940A94A9
:102910002946304600F09EFECDF81CA0CDF8209050
:1029200009942946304600F095FE224621460A20A9
:1029300000F0EAFB0A2000F0F7FB0DB0BDE8F08FD5
:1029400000440258000C02580008025800040258C3
:102950000010025872B6FEE708B51348134B036027
:102960004FF480034360002383600322C26003614D
:1029700043614FF080628261C3610362436283629C
:10298000C3624FF0804242638363C3630364436462
:102990008364C36403654365836503F0BFFF00B9C7
:1029A00008BDFFF7D7FF00BF0C1700200030014023
:1029B00008B51348134B03604FF4800343600023B2
:1029C00083600322C260036143614FF080628261D1
:1029D000C361036243628362C3624FF08042426319
:1029E0008363C363036443648364C36403654365AF
:1029F000836503F093FF00B908BDFFF7ABFF00BF8D
:102A000084160020003C004008B51348134B0360B7
:102A10004FF480034360002383600722C260036198
:102A200043614FF080628261C361036243628362EB
:102A3000C3624FF0804242638363C36303644364B1
:102A40008364C36403654365836503F067FF00B96E
:102A500008BDFFF77FFF00BFFC15002000340140D8
:102A600008B51348134B03604FF480034360002301
:102A700083600322C260036143614FF08062826120
:102A8000C361036243628362C3624FF08042426368
:102A90008363C363036443648364C36403654365FE
:102AA000836503F03BFF00B908BDFFF753FF00BF8C
:102AB000741500200014005808B51648164B036022
:102AC0004FF4E133436000218160C16001610C2358
:102AD00043618161C1610162416281620A4605F020
:102AE000E1FA70B900210B4805F069FB58B90021E3
:102AF000084805F089FB40B9064805F041FB30B9AC
:102B000008BDFFF727FFFFF725FFFFF723FFFFF7BC
:102B100021FF00BF00140020007C004008B51648CB
:102B2000164B03604FF4E133436000218160C160C4
:102B300001610C2343618161C16101624162816273
:102B40000A4605F0AFFA70B900210B4805F037FBD3
:102B500058B90021084805F057FB40B9064805F070
:102B60000FFB30B908BDFFF7F5FEFFF7F3FEFFF7E7
:102B7000F1FEFFF7EFFE00BF94140020004C004070
:102B800008B51448144B036000238360C3600374CA
:102B9000437483741022426101228261C261026225
:102BA00042628262C262026343638363C3630364FB
:102BB000042242648364C264036542658365C3651D
:102BC00003664366826600F0FBFB00B908BDFFF7B1
:102BD000C1FE00BF9417002000A0004008B51548B2
:102BE000154B03604FF4E133436000238360C360FF
:102BF00003610C2242618361C361036243628362A9
:102C000005F01DFA70B900210A4805F0D8FA58B944
:102C10000021084805F0F8FA40B9064805F0B0FA76
:102C200030B908BDFFF796FEFFF794FEFFF792FE5E
:102C3000FFF790FE6C1300200010014010B596B015
:102C400000241394149415940C940D940E940F94E2
:102C50001094119412942C22214601A808F09CFA99
:102C60002448254B0360446084604FF6FF73C360C3
:102C700004614461846104F0EFFB002831D100233A
:102C800013931493159313A91A4804F0FDFC00281C
:102C900029D160230C9300220D920E920F92109274
:102CA000119212920CA9134804F050FCE8B90023C9
:102CB000019302930393049305934FF400520692F9
:102CC000079308934FF0007209920A930B9301A99E
:102CD000084804F029FD50B9064800F0A5FF16B0D9
:102CE00010BDFFF737FEFFF735FEFFF733FEFFF7A6
:102CF00031FE00BF281500200000014000B59DB046
:102D00004C22002109A808F047FA2022002101A83E
:102D100008F042FA022001F0E3FE00230093274B63
:102D2000DA6A22F00102DA62DB6A03F0010300933F
:102D3000234A936923F4404343F4804393619369A6
:102D400003F440430093009B1D4B9B6913F4005F09
:102D5000FAD02223099301230C9340220D920F9362
:102D60000223129300221392042114910A21159137
:102D700016931221179118930C2119911A931B92F3
:102D800009A801F0DFFEA8B93F23019303230293B2
:102D90000023039304930593402306934FF480622A
:102DA00007920893012101A802F020FB20B91DB071
:102DB0005DF804FBFFF7CEFDFFF7CCFD00040058E3
:102DC0000048025830B591B0584AD2F8883043F4E0
:102DD0007003C2F88830FFF7CBFC00F0E9F8FFF78A
:102DE0008DFF5348FDF7AAFCFFF7ECFCFFF7B4FD9D
:102DF000FFF7DEFDFFF708FEFFF732FEFFF75CFE90
:102E0000FFF78CFEFFF7BCFEFFF7E8FEFFF716FFAB
:102E100006F0DEF84FF4FA6000F00AF9454AEC21BA
:102E20000120FFF7ABF8044648B102464249684624
:102E300008F010F981B2684606F09AFB2BE02721D2
:102E40003E4806F095FB26E0BDF800103C48FDF733
:102E500019FDBDF80030DBB13A4B1B78012B34D0A3
:102E6000022B3DD0BDF80030012B07D95A1E02EBD2
:102E70004200344911F8201001293CD0012B07D918
:102E8000013B03EB43012F4A12F82120022A3FD0D5
:102E90000320FDF763FC0220FDF760FC4FF47A701D
:102EA00000F0C6F8002CF3D14FF48073ADF8003079
:102EB0006B46244A4FF400712348FFF761FA00285B
:102EC000C2D02248FDF7DEFCE2E71E4BD3ED027ACA
:102ED000B7EEE77A53EC172B1D48FDF7D3FCC1E79B
:102EE000184BD3ED027AB7EEE77A53EC172B19485B
:102EF000FDF7C8FCB6E7134B03EB8003D3ED027A72
:102F0000B7EEE77A53EC172B1348FDF7BBFCBFE78E
:102F10000C4A02EB8103D3ED027AB7EEE77A53EC69
:102F2000172B0E48FDF7AEFCB2E700BF00ED00E046
:102F300000000020AD250008A0E10008D0E1000855
:102F400014E200086805002068110020F8E100087C
:102F500038E2000858E200087CE200089CE2000821
:102F6000104B1B780BB90120704710B504464FF485
:102F70007A70B0FBF3F30C4A1068B0FBF3F000F08A
:102F8000D7F868B90F2C01D901200AE000222146A8
:102F90004FF0FF3000F0B8F8044B1C60002000E058
:102FA000012010BD18000020240000201C0000207B
:102FB00010B5032000F096F802F01CF90F498B6958
:102FC000C3F303230E4AD35C03F01F03D8408B697D
:102FD00003F00F03D35C03F01F0320FA03F3094A45
:102FE0001360094B18600F20FFF7BAFF10B10124DE
:102FF000204610BD044600F053FCF9E70044025897
:1030000068E300082000002024000020034B1B7808
:10301000034A11680B441360704700BF180000207A
:1030200034180020014B1868704700BF3418002086
:1030300038B50446FFF7F6FF0546B4F1FF3F02D06E
:10304000044B1B781C44FFF7EDFF401BA042FAD352
:1030500038BD00BF18000020014B1868000C7047F5
:103060000010005C002807DB00F01F02400901236C
:103070009340024A42F82030704700BF00E100E070
:10308000002804DB0901C9B2044B1954704700F051
:103090000F000901C9B2024B1954704700E400E067
:1030A00014ED00E000B500F00700C0F1070CBCF122
:1030B000040F28BF4FF0040C031D062B0FD9C31EAD
:1030C0004FF0FF3E0EFA0CF021EA000199400EFA93
:1030D00003FE22EA0E0241EA02005DF804FB00232F
:1030E000EEE700000649CB6823F4E0631B041B0CE9
:1030F000000200F4E0600343024A1A43CA607047CA
:1031000000ED00E00000FA0510B50446054BD86854
:10311000C0F30220FFF7C6FF01462046FFF7B0FFCD
:1031200010BD00BF00ED00E008B5FFF79BFF08BD34
:103130000138B0F1807F0BD24FF0E0235861054A8F
:10314000F02182F823100020986107221A6170474D
:103150000120704700ED00E0BFF35F8F044B5A6A17
:1031600022F480325A620022C3F89420704700BFD4
:1031700000ED00E040F00100054BC3F894005A6AEE
:1031800042F480325A62BFF34F8FBFF36F8F7047A4
:1031900000ED00E04378144AC2F89830D2F8A0302D
:1031A00023F00103C2F8A0304368C2F89C30017BD1
:1031B000C37A1B0643EA0173817A43EAC143417B28
:1031C00043EA8143817B43EA4143C17B43EA0143B4
:1031D000417A43EA0123017A43EA410301780B4330
:1031E000C2F8A030704700BF00ED00E030B4416B82
:1031F0000468D4F884306F4A134043EA8103C4F86A
:1032000084300468D4F8843023F47F03856B43EA68
:103210000543C4F88430836B0B440468D4F88810E9
:10322000114041EA8301C4F888100468D4F888107A
:1032300021F4FE01C56B41EA0541C4F88810C16B59
:1032400003EB41030468D4F8A010114041EA830164
:10325000C4F8A0100468D4F8A01021F4FE01056C95
:1032600041EA0541C4F8A010016C446C04FB013331
:103270000468D4F8B010114041EA8301C4F8B010DA
:103280000468D4F8B01021F4FE01856C41EA0541D0
:10329000C4F8B010816CC46C04FB01330468D4F82A
:1032A000AC10114041EA8301C4F8AC10016D446DCB
:1032B00004FB01330468D4F8F010114041EA8301A3
:1032C000C4F8F0100468D4F8F01021F47C11856D76
:1032D00041EA0541C4F8F010816D03EB4103046835
:1032E000D4F8C0100A4042EA8303C4F8C030026830
:1032F000D2F8C03023F47C13C16D43EA0143C2F815
:10330000C0300268D2F8C03023F07C53016E43EA2B
:103310000163C2F8C030436B274A1A449200C26668
:10332000836B02EB83030367C16B03EBC10343674A
:10333000016C446C04FB01F103EB81038367816C36
:10334000C46C04FB01F103EB8103C367016D446DA1
:1033500004FB01F103EB8103C0F88030816D03EBC6
:10336000C103C0F88430816EC46D01FB04FC03EB23
:103370008C03C0F88830046E04FB01F103EB810379
:10338000C0F890300D498B420DD9D0F89C3043F0F5
:103390002003C0F89C30032380F89830012007E018
:1033A000002342F8043BD0F890309342F8D8002034
:1033B00030BC70470300FFFF002B0010FCD300401F
:1033C00030B595B004464C22A04901A807F063FF30
:1033D000002C00F0388123689D4A934220D094F855
:1033E00098300BB32268936923F010039361FFF7C1
:1033F00019FE054623689A6912F0080F1AD0FFF7E4
:1034000011FE431B0A2BF5D9D4F89C3043F001037D
:10341000C4F89C30032384F89830012015B030BDE7
:1034200003F580736360DAE784F89930204600F092
:1034300049FAD7E79A6942F001029A61FFF7F2FD73
:10344000054623689A6912F0010F0FD1FFF7EAFDD4
:10345000401B0A28F5D9D4F89C3043F00103C4F886
:103460009C30032384F898300120D7E79A6942F012
:1034700002029A61237C012B40D02268936943F0B9
:1034800040039361637C012B3ED02268936923F44F
:1034900080439361A37C012B3CD02268936943F461
:1034A000805393612268936923F44073A1680B43AE
:1034B00093612268936923F0A403936122681369DE
:1034C00023F010031361E368012B29D0002B2CD0CB
:1034D000022B00F09B802268936943F08003936184
:1034E0002268136943F010031361E368032B1CD1B6
:1034F0002268936943F02003936116E02268936980
:1035000023F040039361BDE72268936943F480434D
:103510009361BFE72268936923F480539361C1E705
:103520002268936943F004039361A3695A1EE36917
:10353000013B1B0243EA4263226A013A1343626978
:10354000013A216843EA0243CB61A368B3F5407FA7
:1035500062D0236E33B12268D2F8C030616E0B4363
:10356000C2F8C030E36D226ED3420DD02168D1F88D
:10357000C83023F00703A26E14A800EB820252F8B1
:103580004C2C1343C1F8C830236C6BB12168D1F8BF
:10359000BC3023F00703626C14A800EB820252F8DF
:1035A0004C2C1343C1F8BC30A36C73B12168D1F823
:1035B000BC3023F07003E26C14A800EB820252F8D6
:1035C0004C2C43EA0213C1F8BC30236D73B121685F
:1035D000D1F8BC3023F4E063626D14A800EB8202E2
:1035E00052F84C2C43EA0223C1F8BC302268184B35
:1035F0009A4222D00023C4F89430C4F89C300123AE
:1036000084F898302046FFF7F1FD07E722689369B8
:1036100043F02003936188E7A36A013BE26A013A21
:1036200043EA0223226B013A43EA0213626A013A37
:10363000216843EA0243CB608BE76268936823F01A
:1036400003039360D6E70120E8E600BFC0D5000879
:1036500000A00040F0B583B000236BE085685E00F9
:103660000324B44025EA0405CC68B4402C438460AC
:10367000456825EA0C054C68C4F300149C402C43B3
:10368000446069E0DD08083550F8254003F0070C78
:103690004FEA8C0C4FF00F0E0EFA0CFE24EA0E0EC1
:1036A0000C6904FA0CF444EA0E0440F825406BE07F
:1036B000092400E0002404FA0EF42C430CF1020C5F
:1036C000694D45F82C404FF0B0442568D44325EAB5
:1036D00002064F6817F4801F01D042EA05064FF03A
:1036E000B0452E606D6804EA05064F6817F4001FA8
:1036F00001D042EA05064FF0B0456E60D5F884501F
:1037000004EA05064F6817F4003F01D042EA0506B7
:103710004FF0B045C5F88460D5F880502C404E6815
:1037200016F4803F01D042EA05044FF0B042C2F8DF
:10373000804001330A6832FA03F400F092804FF0BF
:10374000010C0CFA03FC1CEA0202F2D04C6804F0F3
:103750000304013C012C81D94C6804F00304032CC0
:103760000CD0C4685D004FF0030C0CFA05FC24EA91
:103770000C0C8C68AC4044EA0C04C4604C6804F047
:103780000304022C3FF47EAF04684FEA430E4FF06F
:10379000030C0CFA0EFC24EA0C0C4C6804F0030435
:1037A00004FA0EF444EA0C0404604C6814F4403F3C
:1037B000BFD02E4CD4F8F45045F00205C4F8F450B4
:1037C000D4F8F44004F002040194019C4FEA930CF5
:1037D0000CF10205244C54F8255003F0030E4FEA77
:1037E0008E0E0F2404FA0EF425EA0405204CA042A4
:1037F0003FF460AF04F58064A04222D004F58064F9
:10380000A04220D004F58064A0421ED004F580645C
:10381000A0421CD004F58064A0421AD004F5806454
:10382000A04218D004F58064A04216D004F580644C
:10383000A04214D004F58064A0423FF439AF0A24BA
:1038400039E7012437E7022435E7032433E704246A
:1038500031E705242FE706242DE707242BE708246A
:1038600029E703B0F0BD00BF00040058004402582F
:10387000000002580AB181617047090481617047F4
:10388000704708B54FF0B043D3F88830034200D1F9
:1038900008BD4FF0B043C3F88800FFF7F1FFF7E72A
:1038A00082B0074BD3F8F42042F00202C3F8F420B0
:1038B000D3F8F43003F002030193019B02B0704788
:1038C0000044025810B5B8B0044600213391349139
:1038D000359136913791C02202A807F05DFC22682D
:1038E0001D4B9A4201D038B010BD4FF40042002366
:1038F000CDE902234FF080531E9302A802F00EF888
:1039000030BB164BD3F8EC2042F48072C3F8EC20A5
:10391000D3F8EC2002F480720092009AD3F8E020F1
:1039200042F00802C3F8E020D3F8E03003F00803C7
:103930000193019B03233393022334930023359394
:1039400036930923379333A90548FFF783FECAE767
:10395000FFF700F8D5E700BF00A000400044025880
:10396000000C0258F0B5C3B0044600213D913E91D1
:103970003F9140914191C0220CA807F00DFC2368B3
:10398000924A93420CD0924A934254D0914A934225
:1039900000F09E80904A934200F0CD8043B0F0BD8D
:1039A0004FF480520023CDE90C230CA801F0B6FFA0
:1039B00000283DD1894BD3F8F02042F48052C3F85F
:1039C000F020D3F8F02002F480520192019AD3F84B
:1039D000E02042F00102C3F8E020D3F8E02002F03A
:1039E00001020292029AD3F8E02042F00802C3F8E2
:1039F000E020D3F8E03003F008030393039B602337
:103A00003D9302273E9700243F944094052641961B
:103A10003DAD29467248FFF71DFE80233D933E973A
:103A20003F944094419629466E48FFF713FEB5E750
:103A3000FEF790FFBEE74FF480520023CDE90C2340
:103A40000CA801F06BFF00283FD1644BD3F8E820AD
:103A500042F40042C3F8E820D3F8E82002F4004220
:103A60000492049AD3F8E02042F00202C3F8E02066
:103A7000D3F8E02002F002020592059AD3F8E02084
:103A800042F00402C3F8E020D3F8E03003F004036E
:103A90000693069B04233D9302263E9600243F9402
:103AA0004094072341933DAD29464F48FFF7D2FD8F
:103AB0004FF440633D933E963F94409406234193D8
:103AC00029464A48FFF7C6FD68E7FEF743FFBCE713
:103AD0004FF400520023CDE90C230CA801F01EFF87
:103AE00030BB3E4BD3F8F02042F40052C3F8F02034
:103AF000D3F8F02002F400520792079AD3F8E0209E
:103B000042F01002C3F8E020D3F8E03003F01003D5
:103B10000893089B64233D9302233E9300233F9325
:103B20004093052341933DA93148FFF793FD35E7C5
:103B3000FEF710FFD5E74FF480420023CDE90C23B8
:103B40000CA801F0EBFE00283DD1244BD3F8F42063
:103B500042F02002C3F8F420D3F8F42002F020024F
:103B60000992099AD3F8E02042F00102C3F8E0205C
:103B7000D3F8E02002F001020A920A9AD3F8E0207A
:103B800042F00202C3F8E020D3F8E03003F0020371
:103B90000B930B9B80233D9302273E9700243F9479
:103BA0004094082641963DAD29460D48FFF752FD49
:103BB00018233D933E973F944094419629460A48E6
:103BC000FFF748FDEAE6FEF7C5FEBEE7003001401C
:103BD000003C0040003401400014005800440258EA
:103BE00000000258000C0258000402580008025855
:103BF0000010025802680A4B9A4200D0704782B007
:103C0000084BD3F8F02042F00102C3F8F020D3F8BB
:103C1000F03003F001030193019B02B0704700BF35
:103C2000000001400044025800B587B00023019312
:103C3000029303930493059302680F4B9A4202D0B8
:103C400007B05DF804FB0D4BD3F8E02042F0100202
:103C5000C3F8E020D3F8E03003F010030093009B9A
:103C60004FF400730193022302930123059301A9EA
:103C70000348FFF7EFFCE3E700000140004402586F
:103C80000010025810B5BCB004460021379138919D
:103C900039913A913B91C02206A807F07DFA23683A
:103CA000504A934207D0504A934236D04F4A9342EB
:103CB00065D03CB010BD02220023CDE9062306A842
:103CC00001F02CFE30BB4A4BD3F8E82042F400222E
:103CD000C3F8E820D3F8E82002F400220092009A0A
:103CE000D3F8E02042F00102C3F8E020D3F8E0303E
:103CF00003F001030193019B0323379312233893AD
:103D0000002339933A9308233B9337A93948FFF7A7
:103D1000A1FCCEE7FEF71EFED5E702220023CDE987
:103D2000062306A801F0FAFD30BB314BD3F8E8209A
:103D300042F00042C3F8E820D3F8E82002F0004245
:103D40000292029AD3F8E02042F01002C3F8E02079
:103D5000D3F8E03003F010030393039B032337935E
:103D600012233893002339933A9308233B9337A9BE
:103D70002148FFF76FFC9CE7FEF7ECFDD5E7012239
:103D80000023CDE9062306A801F0C8FD38BB184B77
:103D9000D3F8F02042F01002C3F8F020D3F8F0205E
:103DA00002F010020492049AD3F8E02042F00102DB
:103DB000C3F8E020D3F8E03003F001030593059B3E
:103DC0004FF4C063379302233893002339933A9317
:103DD00007233B9337A90748FFF73CFC69E7FEF749
:103DE000B9FDD4E7004C0040007C004000100140C9
:103DF0000044025800000258001002582DE9F04318
:103E000083B0D0F8008001EBC10300EB83039A6A12
:103E10005B6A9A4254D807460C469B1A01EBC102D2
:103E200000EB8202D2699A4200D31A4602F10309DA
:103E30004FEA990915E006F103094FEA9909BB79A0
:103E400004EBC40507EB8505296A0093B3B2E2B21F
:103E5000404604F054FD2B6A33442B62AB6A334472
:103E6000AB6208EB441303F510639B699BB24B45AF
:103E700012D304EBC40307EB83039A6A5B6A9A428A
:103E80000AD24BB19B1A04EBC40207EB8202D6693B
:103E90009E42D0D31E46CEE704EBC40307EB830754
:103EA0007A6ABB6A9A420FD804F00F040122A2403A
:103EB000D8F8343823EA0203C8F83438002000E088
:103EC000012003B0BDE8F0830020FAE730B583B0ED
:103ED00000287AD0044690F89534ABB1032384F8D7
:103EE0009534206804F0C0FA237C8DF80030231D3F
:103EF0000ECB206804F0EEF958B1022384F8953413
:103F00000125284603B030BD80F8943405F046FB07
:103F1000E4E70021206804F008FF0246B8B9034630
:103F20002079984218D903EBC30104EB81010120E9
:103F300048750B75CB8500200876C861086203EBD5
:103F4000C30104EB810148620133DBB2E8E70223DD
:103F500084F895340125D4E7904217D902EBC203C7
:103F600004EB8303002183F8551283F8542283F86D
:103F70005812C3F85C12C3F8601202EBC20304EBE0
:103F80008303C3F864120132D2B2E5E7237C8DF8D3
:103F90000030231D0ECB206804F0BCFA054658B94A
:103FA00000236374012384F89534237B012B08D00C
:103FB000206804F079FEA4E7022384F895340125F3
:103FC0009FE7204600F076FDF2E7012599E70368B8
:103FD00090F89424012A1AD010B50446012280F8E2
:103FE0009424DA6812F0400F02D0427B012A09D0F3
:103FF000206804F033FA206804F048FE002084F8BA
:10400000940410BD9A6B42F480329A63F0E7022068
:104010007047000070B504460D460068066C00EB62
:10402000411303F530639A68A179012911D0384909
:104030008E4256D03DB905EBC50304EB8303D3F89C
:104040006432002B5ED0E9B2204605F009FB002067
:1040500070BD12F0080F09D02E498E42F7D912F424
:10406000004FF4D04FF400429A60F0E712F0200FB6
:1040700002D020229A60EAE712F0280FE7D1254902
:104080008E4206D912F4004F03D04FF400429A60DA
:10409000DDE705EBC50204EB8202D2F874121B695E
:1040A000C3F31203CB1AC2F868327DB905EBC5021F
:1040B00004EB8202D2F864226AB105EBC50204EB7C
:1040C0008202D2F860121944C2F86012E9B22046A6
:1040D00005F0C6FABBE704F29C42012104F064FE3D
:1040E000F4E712F4004F03D04FF400429A60AEE7B9
:1040F00012F0200F01D020229A60E9B2204605F08C
:10410000AFFAA4E704F29C42002104F04DFE9AE7C6
:104110000A31544F0A30544F38B5044603681D6CB9
:1041200003EB4113D3F8081B0E4A954207D903F558
:10413000306311F4004F02D04FF400429A602046E1
:1041400005F086FA074B9D4202D9A379012B01D0D5
:10415000002038BD04F29C420121206804F024FEB6
:10416000F6E700BF0A30544F90F89434012B0CD07E
:1041700010B50446012380F894344174006804F0BB
:1041800075FD002084F8940410BD0220704738B5F6
:1041900005468C4611F0800F2BD101F00F0E0EEB6F
:1041A000CE04A40004F514740444211D0EEBCE0EBD
:1041B00000EB8E0E00208EF855020CF00F0C81F8EB
:1041C00000C0C2F30A028A600B714A780AB1A1F8F2
:1041D0001AC0022B1CD095F89434012B1BD001235C
:1041E00085F89434286804F06FFA002085F8940468
:1041F00038BD01F00F0000EBC001890010312944E7
:10420000043100EBC00005EB800001244475D4E7C5
:1042100000234B71DFE70220EAE710B504460A46A7
:1042200011F0800F20D101F00F0000EBC0039B00C4
:1042300003F514732344191D00EBC00004EB800048
:10424000002380F8553202F00F020A7094F894347B
:10425000012B18D0012384F89434206804F080FAEC
:10426000002084F8940410BD01F00F0000EBC0039F
:104270009B0010332344191D00EBC00004EB8000A9
:1042800001234375DFE70220EDE710B5144601F086
:104290000F0C0CEBCC01890001F5147101440431C1
:1042A0000CEBCC0E00EB8E0ECEF86022CEF8643212
:1042B0000023CEF868328EF855328EF854C28279D7
:1042C000012A04D0006804F031FB002010BDCEF8B4
:1042D0007042F7E701F00F0101EBC10100EB810033
:1042E000D0F86802704710B5144601F00F0C0CEBC3
:1042F000CC0189001031014404310CEBCC0E00EBF1
:104300008E0ECEF82020CEF824300023CEF82830B0
:1043100001238EF815308EF814C082799A4204D0A9
:10432000006804F003FB002010BDCEF83040F7E732
:1043300038B501F00F050279AA4238D304460B467E
:1043400011F0800F1FD101EBC101890001F514713B
:104350000144043103EBC30300EB8303002283F821
:10436000552201238B700D7094F89434012B20D0CA
:10437000012384F89434206804F01DFC85B10020EA
:1043800084F8940438BD05EBC5018900103101445F
:10439000043105EBC50300EB830301225A75E0E706
:1043A00004F29C42A179206804F0FEFCE7E70120BA
:1043B000E8E70220E6E701F00F0302799A4230D3E2
:1043C00010B5044611F0800F1ED103EBC301890024
:1043D00001F514710144043103EBC30200EB8202C6
:1043E000002082F8550200228A700B7094F89434F1
:1043F000012B18D0012384F89434206804F008FCC1
:10440000002084F8940410BD03EBC301890010312F
:104410000144043103EBC30200EB8202012050751A
:10442000E1E7012070470220EDE708B511F0800FA9
:104430000CD101F00F0101EBC101890001F51471EC
:1044400001440431006804F0FBF908BD01F00F01DC
:1044500001EBC1018900103101440431F2E72DE97B
:10446000F04F83B004460568284604F05AFC10B1AA
:1044700003B0BDE8F08F0646206804F023FC002856
:10448000F6D005F50067BB68C3F30D23C4F8D43438
:10449000206804F017FC10F0020F04D02268536962
:1044A00003F002035361206804F00CFC10F0100FBD
:1044B00016D02268936923F010039361D5F8208009
:1044C00008F00F0908F4F013B3F5802F6AD0B3F5A4
:1044D000402F00F08D802268936943F010039361B0
:1044E000206804F0EFFB10F4002F40F09380206868
:1044F00004F0E8FB10F4802F40F0FC80206804F00A
:10450000E1FB0028C0F27D81206804F0DBFB10F4A1
:10451000006F09D0BB6813F0010F40F08A81226858
:10452000536903F400635361206804F0CBFB10F07F
:10453000006F15D02268536903F00063536194F84B
:10454000CC34002B40F07981012184F8CC1423680D
:104550005B6DC3F38303C4F8D034204600F0BEFA89
:10456000206804F0AFFB10F4805F40F06A8120689F
:1045700004F0A8FB10F4005F40F0B681206804F05E
:10458000A1FB10F0080F40F0C781206804F09AFBEF
:1045900010F0800F00F0DA81AB6923F08003AB618B
:1045A0000126C3E147F6F07318EA030F93D04FEAF0
:1045B000181A4FEAC903019309EBC90B04EB8B0BE3
:1045C000C8F30A12DBF86012284604F0D1FADBF8CF
:1045D0006032CAF30A0A5344CBF86032DBF868321F
:1045E000019A4A4404EB82025344C2F8683272E7EB
:1045F000082204F29C41284604F0BAFA09EBC903E8
:1046000004EB8303D3F86822C8F30A184244C3F8C2
:10461000682260E7206804F059FB8046B14635E027
:1046200005EB49130122C3F8082B49462046FFF742
:10463000F1FC3CE005EB49130822C3F8082B49467E
:104640002046FFF769FD35E009EBC90304EB83035E
:1046500093F85732012B41D005EB49130222C3F8DE
:10466000082B1AF0200F04D005EB49132022C3F8C1
:10467000082B1AF4005F05D005EB49134FF40052E4
:10468000C3F8082B09F101094FEA5808B8F1000FE7
:104690003FF42DAF18F0010FF4D05FFA89FB5946B3
:1046A000206804F023FB824610F0010FB8D11AF005
:1046B000080FBFD11AF0100F04D005EB49131022D8
:1046C000C3F8082B1AF0020FCBD06B6913F0800FE0
:1046D000BAD07B6843F480637B60B5E709EBC9031C
:1046E00004EB8303002283F857225946204605F045
:1046F00007F8B1E7206804F0F1FA8046B14625E0FA
:104700005946204604F0B8FF1AF0080F04D005EB14
:1047100049130822C3F808291AF0100F04D005EB3A
:1047200049131022C3F808291AF0400F04D005EBF2
:1047300049134022C3F808291AF0020F40D11AF099
:10474000800F59D109F101094FEA5808B8F1000F5B
:104750003FF4D4AE18F0010FF4D05FFA89FB59464C
:10476000206804F0CCFA824610F0010FCCD009F09A
:104770000F02012101FA02F27B6B23EA02037B6341
:1047800005EB4913C3F80819A3798B42B8D109EB9B
:10479000C90304EB83031A6AD9690A441A62B9F19E
:1047A000000FADD109EBC90304EB83035B6A002B57
:1047B000A6D104F29C420121206804F0F5FA9FE79B
:1047C0004946284603F056FE09EBC90304EB830370
:1047D000DB7D012B05D005EB49130222C3F8082924
:1047E000ADE709EBC90304EB83030022DA755946F0
:1047F000204604F08BFFEEE749462046FFF7FEFA1D
:10480000A0E77B6823F001037B6094F8CC34012B94
:1048100008D0204604F06EFF2268536903F000437D
:10482000536171E6002184F8CC14204600F056F95B
:10483000F2E7204604F046FF71E6204604F042FF0E
:104840008EE67B6823F001037B601021206803F073
:1048500011FE1AE005EB46134FF67F31C3F8081935
:10486000D3F8002922F40012C3F80029C3F8081B6A
:10487000D3F8002B22F40012C3F8002BD3F8002B3E
:1048800042F00062C3F8002B01362379B342E1D82D
:10489000FB6943F00113FB61E37BDBB1D7F88430A4
:1048A00043F00B03C7F884307B6C43F00B037B644D
:1048B000D5F8003823F4FE63C5F8003804F29C42B2
:1048C000A179206804F070FA2268536903F48053D8
:1048D00053614CE67A6942F22B0313437B613B69D7
:1048E00043F00B033B61E3E7206804F04FFA2068D4
:1048F00003F0D8FEE071266800F0C2FE0146E279BE
:10490000304603F039FD204604F0C7FE22685369A3
:1049100003F40053536131E6204604F0B8FE2268E8
:10492000536903F0080353612FE601362379B3423C
:104930000CD906EBC60304EB830393F85732012B23
:10494000F3D1F1B22046FFF770FDEEE7206804F0E6
:10495000B9F910F4801F25D1206804F0B3F910F4E0
:10496000001F58D0012326E001362379B3421BD91A
:1049700005EB4613D3F8002906EBC60304EB8303CB
:104980001B7E012BF0D1002AEEDA06EBC60304EB06
:1049900083030122DA7566F07F01C9B22046FFF772
:1049A00044FDE1E70126E0E72268536903F4801340
:1049B0005361D1E7013322799A4227D905EB43129B
:1049C000D2F8001B03EBC30204EB820292F85822D8
:1049D000012AEFD10029EDDAD4F8D42482EA114279
:1049E00012F0010FE6D103EBC30204EB82020121B6
:1049F00082F85712AA6942F08002AA616A6912F02D
:104A0000800FD7D17B6843F400737B6022685369C1
:104A100003F400135361206804F054F910F0804F40
:104A200010D1206804F04EF910F0040F3FF420ADCF
:104A300023685D6815F0040F0DD1226853682B437D
:104A4000536015E5204604F067FE2268536903F0C1
:104A500080435361E5E7204604F064FEEDE710B4BF
:104A60000468606A31B940EA0240A06200205DF843
:104A7000044B70478C46A36A00EB1340002308E008
:104A800003F1400104EB8101496800EB114001335F
:104A9000DBB20CF1FF318B42F2D340EA02400CF161
:104AA0003F0104EB81046060E0E703685962002085
:104AB00070470000034602680121C0F8D8140020A6
:104AC00083F8CC04936943F000639361516D024B0A
:104AD0000B435365704700BF030000107047000090
:104AE000134BDB6813F0040F07D1114BDB6803F0A5
:104AF000070383421AD00120704710B50C4AD368CF
:104B000023F007030343D360FEF78CFA0446084BF7
:104B10005B6813F4005F07D1FEF784FA001BB0F561
:104B20007A7FF4D9012000E0002010BD00207047FA
:104B300000480258024AD36843F08073D36070473C
:104B400000480258002800F0398338B5044603684D
:104B500013F0010F25D0944A136903F03803926AC9
:104B6000102B15D0182B0FD06368B3F5803F3FD0C2
:104B7000002B53D18C4B1A6822F480321A601A68C9
:104B800022F480221A6038E002F00302022AEBD1FC
:104B9000854B1B6813F4003F03D06368002B00F0C3
:104BA0000F83236813F0020F00F0A1807E4A13697F
:104BB000926A13F038035AD0182B55D0E368002BB3
:104BC00000F0DE8078490A6822F0190213430B6076
:104BD000FEF728FA0546744B1B6813F0040F40F0EB
:104BE000AD80FEF71FFA401B0228F4D90320EEE245
:104BF0006D4A136843F48033136063682BB3FEF788
:104C000011FA0546684B1B6813F4003FC9D1FEF743
:104C100009FA401B6428F5D90320D8E2B3F5A02F88
:104C200009D0614B1A6822F480321A601A6822F4A3
:104C300080221A60E1E75C4B1A6842F480221A6015
:104C40001A6842F480321A60D7E7FEF7EBF905469E
:104C5000554B1B6813F4003FA3D0FEF7E3F9401B4C
:104C60006428F5D90320B2E212F0030FA6D14E4B0F
:104C70001B6813F0040F03D0E368002B00F0A2823E
:104C8000494A136823F01903E1680B431360FEF7E8
:104C9000C9F90546444B1B6813F0040F06D1FEF713
:104CA000C1F9401B0228F5D9032090E2FEF7D4F9A0
:104CB00041F20303984212D82269402A07D03A49A8
:104CC0004B6823F47C3343EA02334B600FE0364AEF
:104CD000536823F47C3343F40033536007E0324AD3
:104CE000536823F0FE43216943EA0163536023685C
:104CF00013F0100F00F088802B4A136903F038037B
:104D0000926A082B56D0182B50D0E369002B00F084
:104D1000B880254A136843F080031360FEF782F9D8
:104D20000546214B1B6813F4807F40F08880FEF716
:104D300079F9401B0228F4D9032048E2FEF78CF9E8
:104D400041F20303984212D82269402A07D016493B
:104D50004B6823F47C3343EA02334B60C7E7124AC3
:104D6000536823F47C3343F400335360BFE70E4AA7
:104D7000536823F0FE43216943EA01635360B6E7B9
:104D8000094A136823F001031360FEF74BF9054647
:104D9000054B1B6813F0040FA9D0FEF743F9401B25
:104DA0000228F5D9032012E20044025802F003025F
:104DB000012AAAD1A14B1B6813F4807F03D0E369B9
:104DC000802B40F00182FEF747F941F2030398423D
:104DD00012D8226A202A07D098494B6823F0F8435A
:104DE00043EA82634B600FE0944A536823F0F84330
:104DF00043F08043536007E0904AD36823F07C532C
:104E0000216A43EA0163D360236813F0080F60D07E
:104E10006369002B49D0894A536F43F001035367FC
:104E2000FEF700F90546854B5B6F13F0020F50D17A
:104E3000FEF7F8F8401B0228F5D90320C7E1FEF77A
:104E40000BF941F20303984212D8226A202A07D0B4
:104E50007A494B6823F0F84343EA82634B60D3E717
:104E6000764A536823F0F84343F080435360CBE71E
:104E7000724AD36823F07C53216A43EA0163D3600A
:104E8000C2E76E4A136823F080031360FEF7CAF886
:104E900005466A4B1B6813F4807FB5D0FEF7C2F855
:104EA000401B0228F5D9032091E1644A536F23F097
:104EB00001035367FEF7B6F80546604B5B6F13F0CE
:104EC000020F06D0FEF7AEF8401B0228F5D90320EA
:104ED0007DE1236813F0200F29D0A3699BB1574AC5
:104EE000136843F480531360FEF79CF80546534B58
:104EF0001B6813F4005F1AD1FEF794F8401B0228D8
:104F0000F5D9032063E14D4A136823F480531360FD
:104F1000FEF788F80546494B1B6813F4005F06D07E
:104F2000FEF780F8401B0228F5D903204FE12368E3
:104F300013F0040F21D1636A002B00F047813F4A30
:104F4000126902F03802182A00F0EE80022B79D0A4
:104F50003A4A136823F080731360FEF763F804463F
:104F6000364B1B6813F0007F00F0DC80FEF75AF828
:104F7000001B0228F4D9032029E1314A136843F4C5
:104F800080731360FEF74EF805462D4B1B6813F433
:104F9000807F06D1FEF746F8401B6428F5D9032030
:104FA00015E1A368012B0AD00BBB244B1A6F22F02A
:104FB00001021A671A6F22F004021A6704E01F4AFE
:104FC000136F43F001031367A36833B3FEF72AF8A6
:104FD00005461A4B1B6F13F0020FACD1FEF722F8F7
:104FE000401B41F288339842F3D90320EFE0052BB0
:104FF00009D0124B1A6F22F001021A671A6F22F0C1
:1050000004021A67E0E70D4B1A6F42F004021A67B8
:105010001A6F42F001021A67D6E7FEF703F8054659
:10502000064B1B6F13F0020F85D0FDF7FBFF401BF3
:1050300041F288339842F3D90320C8E00044025873
:1050400000480258694A136823F080731360FDF723
:10505000E9FF0546654B1B6813F0007F06D0FDF79E
:10506000E1FF401B0228F5D90320B0E05F4B996AAD
:105070005F4A0A40A16AE06A41EA00110A439A6263
:10508000226B013AC2F30802616B0139490289B20D
:105090000A43A16B0139090401F4FE010A43E16BE3
:1050A0000139090601F0FE410A431A63DA6A22F067
:1050B0000102DA625A6B6FF3CF02A16C42EAC102BD
:1050C0005A63DA6A22F00C02216C0A43DA62DA6A65
:1050D00022F00202616C0A43DA62DA6A42F4803238
:1050E000DA62DA6A42F40032DA62DA6A42F4802280
:1050F000DA62DA6A42F00102DA621A6842F0807219
:105100001A60FDF78FFF0446384B1B6813F0007FD1
:1051100006D1FDF787FF001B0228F5D9032056E0D2
:10512000002054E0002052E0304A916A106B012BBD
:105130004ED001F00303A26A93424BD1C1F3051193
:10514000E36A994248D1C0F30802236B013B9A42BB
:1051500044D1C0F34622636B013B9A4240D1C0F375
:105160000642A36B013B9A423CD1C0F30660E36B5D
:10517000013B984238D11D4B5B6BC3F3CC03A26C4F
:105180009A4201D1002022E0184AD36A23F0010399
:10519000D362FDF747FF0546FDF744FFA842FBD069
:1051A000124A536B6FF3CF03A16C43EAC1035363FD
:1051B000D36A43F00103D362002008E00120704766
:1051C000012004E0012002E0012000E0002038BDC1
:1051D0000120FCE70120FAE70120F8E70120F6E7CB
:1051E0000120F4E70120F2E70120F0E70044025833
:1051F0000CFCFFFF754B1B6903F03803102B00F00C
:10520000DE80182B0FD0002B40F0DB806F4B1B682B
:1052100013F0200F00F0D7806C4B1B68C3F3C10361
:105220006B48D840704710B4684B9A6A02F003028A
:105230009C6AC4F30510D96A01F001015B6BC3F3EA
:10524000CC0301FB03F307EE903AF8EE677A14F40F
:105250007C7F77D0012A4AD0022A76D0002A40F0FB
:1052600091805A4B1B6813F0200F23D057490A68CE
:10527000C2F3C102564BD34007EE103AF8EE476A2C
:1052800007EE100AB8EE476A86EE867A0B6BC3F318
:10529000080306EE903AF8EE666A9FED4E6A67EEF6
:1052A000867A76EEA77AF7EE006A77EEA67A27EE90
:1052B000277A38E007EE100AF8EE476A9FED466A53
:1052C00086EE267A414B1B6BC3F3080306EE903A39
:1052D000F8EE666A9FED3F6A67EE867A76EEA77A09
:1052E000F7EE006A77EEA67A27EE277A1BE007EE44
:1052F000100AF8EE476A9FED396A86EE267A334B3C
:105300001B6BC3F3080306EE903AF8EE666A9FED56
:10531000316A67EE867A76EEA77AF7EE006A77EE64
:10532000A67A27EE277A294B1B6BC3F3462301335A
:1053300007EE903AF8EE677AC7EE276AFCEEE67A57
:1053400017EE900A5DF8044B704707EE100AF8EE6E
:10535000476A9FED236A86EE267A1C4B1B6BC3F3CC
:10536000080306EE903AF8EE666A9FED1A6A67EE59
:10537000867A76EEA77AF7EE006A77EEA67A27EEBF
:10538000277AD0E707EE100AF8EE476A9FED136A16
:1053900086EE267A0D4B1B6BC3F3080306EE903A9C
:1053A000F8EE666A9FED0B6A67EE867A76EEA77A6C
:1053B000F7EE006A77EEA67A27EE277AB3E7094878
:1053C0007047094870470248704700BF00440258C0
:1053D0000090D003000000390024744C0024744A6B
:1053E00020BCBE4B40787D0100093D00002800F044
:1053F000328170B50D4604469B4B1B6803F00F03CA
:105400008B420BD2984A136823F00F030B431360AF
:10541000136803F00F038B4240F01F81236813F0E1
:10542000040F0CD02269914B9B6903F070039A42E0
:1054300005D98E498B6923F070031A438A6123686A
:1054400013F0080F0CD06269884BDB6903F070031E
:105450009A4205D98549CB6923F070031A43CA6182
:10546000236813F0100F0CD0A269804BDB6903F4A2
:10547000E0639A4205D97D49CB6923F4E0631A437E
:10548000CA61236813F0200F0CD0E269774B1B6AC6
:1054900003F070039A4205D974490B6A23F0700334
:1054A0001A430A62236813F0020F0CD0E2686F4BB4
:1054B0009B6903F00F039A4205D96C498B6923F06D
:1054C0000F031A438A61236813F0010F41D0674A22
:1054D000936923F47063A1680B4393616368022BA3
:1054E0000AD0032B27D0012B2CD0604A126812F06F
:1054F000040F06D10120ADE0126812F4003F00F065
:10550000AE805A490A6922F0070213430B61FDF786
:1055100089FD0646554B1B6903F038036268B3EBFF
:10552000C20F16D0FDF77EFD801B41F288339842F2
:10553000F0D903208EE04D4A126812F0007FE0D1CE
:10554000012087E0494A126812F4807FD9D10120F6
:1055500080E0236813F0020F0CD0E268434B9B6994
:1055600003F00F039A4205D240498B6923F00F03E1
:105570001A438A613C4B1B6803F00F03AB420AD904
:10558000394A136823F00F032B431360136803F0A9
:105590000F03AB4265D1236813F0040F0CD02269CE
:1055A000324B9B6903F070039A4205D22F498B69F5
:1055B00023F070031A438A61236813F0080F0CD09C
:1055C00062692A4BDB6903F070039A4205D22749CE
:1055D000CB6923F070031A43CA61236813F0100FDC
:1055E0000CD0A269214BDB6903F4E0639A4205D237
:1055F0001E49CB6923F4E0631A43CA61236813F0A0
:10560000200F0CD0E269194B1B6A03F070039A4219
:1056100005D216490B6A23F070031A430A62FFF79A
:10562000E9FD12498B69C3F30323114AD35C03F0EC
:105630001F03D8408B6903F00F03D35C03F01F03F3
:1056400020FA03F30B4A13600B4B18600B4B1868DE
:10565000FDF786FC70BD012070470120FAE70120AC
:10566000F8E70120F6E700BF00200052004402588E
:1056700068E3000820000020240000201C00002017
:1056800008B5FFF7B7FD0B4A9369C3F303230A4933
:10569000CB5C03F01F0320FA03F3926902F00F02C0
:1056A000885C00F01F0023FA00F0044A1060044AEE
:1056B000136008BD0044025868E300082000002081
:1056C0002400002008B5FFF7DBFF054BDB69C3F3BF
:1056D0000213044AD35C03F01F03D84008BD00BF87
:1056E0000044025868E3000808B5FFF7C9FF054BFE
:1056F000DB69C3F30223044AD35C03F01F03D840E1
:1057000008BD00BF0044025868E30008404B9B6A94
:1057100003F00303032B79D070B505460E463C4ACF
:10572000136823F080631360FDF77CFC0446384B5C
:105730001B6813F0006F06D0FDF774FC031B022BEF
:10574000F5D9032070BD324B9A6A22F47C32296865
:1057500042EA01329A626A68013AC2F30802A96811
:105760000139490289B20A43E9680139090401F49F
:10577000FE010A4329690139090601F0FE410A4385
:105780009A63DA6A22F0C00269690A43DA62DA6A65
:1057900022F02002A9690A43DA62DA6A22F01002D2
:1057A000DA62DA6B6FF3CF02E96942EAC102DA63C7
:1057B000DA6A42F01002DA62C6B91A46DB6A43F4CA
:1057C0000023D362124A136843F080631360FDF72D
:1057D00029FC04460E4B1B6813F0006F14D1FDF733
:1057E00021FC001B0228F5D90320ABE7012E05D0D0
:1057F000074AD36A43F40013D362E3E7044AD36A47
:1058000043F48013D362DDE700209BE7012070475B
:1058100000440258404B9B6A03F00303032B79D0EA
:1058200070B505460E463C4A136823F0805313605A
:10583000FDF7F8FB0446384B1B6813F0005F06D0F9
:10584000FDF7F0FB031B022BF5D9032070BD324B93
:105850009A6A22F07C72296842EA01529A626A6866
:10586000013AC2F30802A9680139490289B20A4320
:10587000E9680139090401F4FE010A432969013983
:10588000090601F0FE410A431A64DA6A22F4406212
:1058900069690A43DA62DA6A22F40072A9690A4382
:1058A000DA62DA6A22F48072DA625A6C6FF3CF023B
:1058B000E96942EAC1025A64DA6A42F48072DA6241
:1058C000C6B91A46DB6A43F48003D362124A1368EE
:1058D00043F080531360FDF7A5FB04460E4B1B6895
:1058E00013F0005F14D1FDF79DFB001B0228F5D9D2
:1058F0000320ABE7012E05D0074AD36A43F080733B
:10590000D362E3E7044AD36A43F40003D362DDE7DA
:1059100000209BE70120704700440258F8B5044678
:10592000036813F0006F30D0836EB3F5001F26D0EC
:105930000ED8ABB1B3F5801F07D102210830FFF7B5
:10594000E5FE054695B12E4621E0012635461EE0CE
:10595000B3F5401F01D1002508E00126354616E0C9
:105960009A4AD36A43F40033D3620025974A136DF1
:1059700023F44013A16E0B431365002607E00221B8
:105980002830FFF747FF0546DCE700263546236849
:1059900013F4807F14D0A36D042B31D8DFE803F01B
:1059A000032229080800894AD36A43F40033D362EA
:1059B0004DBB864A136D23F00703A16D0B4313659E
:1059C000236813F4007F3FD0E36D802B2ED01FD8C7
:1059D00033B3402B19D1002104F10800FFF796FEE4
:1059E000054629E0002104F10800FFF78FFE054677
:1059F000DEE7002104F12800FFF70CFF0546D7E79A
:105A000001263546DCE72E46DAE7012635461BE05F
:105A1000C02B11D0B3F5807F0ED00126354613E0A0
:105A20006A4AD36A43F40033D36205E0002104F1EB
:105A30002800FFF7EFFE0546DDB9644A136D23F435
:105A4000E073E16D0B431365236813F4806F33D06B
:105A5000D4F8A830B3F5800F1FD00FD8BBB1B3F581
:105A6000001F08D1002104F10800FFF74FFE054692
:105A700019E02E46E8E7012635461DE0B3F5C00FD4
:105A800011D0B3F5000F0ED00126354614E04F4A71
:105A9000D36A43F40033D36205E0002104F1280007
:105AA000FFF7B8FE0546E5B9484A936D23F4600355
:105AB000D4F8A8100B439365236813F4006F34D017
:105AC000D4F8AC30B3F1007F1FD00FD8BBB1B3F125
:105AD000807F08D1002104F10800FFF717FE05467A
