:020000040800F2
:1000000000000220915F00081B3F00081D3F000810
:100010001F3F0008213F0008233F000800000000A8
:10002000000000000000000000000000253F000864
:10003000273F000800000000293F00082B3F000870
:10004000E15F0008E15F0008E15F0008E15F000890
:10005000E15F0008E15F0008E15F0008E15F000880
:10006000E15F0008E15F0008E15F0008E15F000870
:10007000E15F0008E15F0008E15F0008E15F000860
:10008000E15F0008E15F0008E15F0008E15F000850
:10009000353F0008E15F0008E15F0008E15F00080C
:1000A000E15F0008E15F0008E15F0008E15F000830
:1000B000E15F0008E15F0008E15F0008E15F000820
:1000C000E15F0008E15F0008E15F0008E15F000810
:1000D000E15F0008E15F0008E15F0008E15F000800
:1000E000E15F0008E15F0008E15F0008E15F0008F0
:1000F000E15F0008E15F0008E15F0008E15F0008E0
:10010000E15F0008E15F0008E15F0008E15F0008CF
:10011000E15F0008E15F0008E15F0008E15F0008BF
:10012000E15F0008E15F0008E15F0008E15F0008AF
:10013000E15F0008E15F0008E15F0008E15F00089F
:10014000E15F0008E15F0008E15F0008E15F00088F
:10015000E15F0008E15F0008E15F0008E15F00087F
:10016000E15F0008E15F0008E15F0008E15F00086F
:10017000E15F0008E15F0008E15F0008E15F00085F
:10018000E15F0008E15F0008E15F0008E15F00084F
:10019000E15F000800000000E15F0008E15F000887
:1001A000E15F0008E15F0008E15F0008E15F00082F
:1001B000E15F0008E15F0008E15F0008E15F00081F
:1001C000E15F0008E15F0008E15F0008E15F00080F
:0801D000E15F0008E15F000897
:1001D80053B94AB9002908BF00281CBF4FF0FF31A6
:1001E8004FF0FF3000F00CB8ADF1080C6DE904CE0B
:1001F80005F020FFDDF804E0DDE9022304B07047D4
:10020800704700BF10B5054C237833B9044B13B1C0
:100218000448AFF300800123237010BD9C01002027
:10022800000000003463000808B5034B1BB1034904
:100238000348AFF3008008BD00000000A0010020C3
:100248003463000810B4064C8446BCE80F000FC4A1
:100258009CE8030084E803005DF8044B704700BF86
:10026800B80100202DE9F0418AB005AD00240594BD
:100278000694079408940994404BDA6C42F00402FF
:10028800DA64DA6C02F004020092009ADA6C42F046
:100298002002DA64DA6C02F020020192019ADA6C28
:1002A80042F00102DA64DA6C02F001020292029A68
:1002B800DA6C42F00202DA64DA6C02F002020392AB
:1002C800039ADA6C42F00802DA64DB6C03F0080384
:1002D8000493049B22464FF4E3614FF0904000F0F2
:1002E8001FFDDFF8A08022464CF29F01404600F037
:1002F80017FD01224FF46851404600F011FD204ED1
:1003080022464FF4F861304600F00AFD4FF4E363EB
:100318000593012706970794089429464FF09040C3
:1003280000F014FC4FF69F23059306970794089452
:100338002946404600F00AFC4FF4F86305930697F7
:10034800079408942946304600F000FC4FF4004317
:1003580005934FF488130693079429464FF090406D
:1003680000F0F4FB4FF400630593069407942946C4
:10037800304600F0EBFB0AB0BDE8F0810010024007
:10038800000800480004004872B6FEE708B51348A4
:10039800134B036003F10453A3F50F03A3F28B334C
:1003A8004360002383600122C2600361436183616B
:1003B800C361036200F0B9FC50B90021074800F09E
:1003C80018FD38B90021054800F040FD20B908BDE6
:1003D800FFF7DAFFFFF7D8FFFFF7D6FFF403002097
:1003E8000054004008B50D480D4B036000234360DE
:1003F80083604FF44072C260036143614FF400723E
:1004080082610362436283620722C26203634363B9
:1004180002F05AFD00B908BDFFF7B6FF90030020AF
:100428000030014010B598B0002415941694179424
:100438000E940F94109411941294139414943422DB
:10044800214601A805F0C9FD3248334B03604460DA
:1004580084604FF6FF73C36004614461846102F0F5
:1004680083FF002847D1002315931693179315A9E6
:10047800284803F095F800283FD160230E93002206
:100488000F92109211921292139214920EA921486F
:1004980002F0E8FF002832D104220EA91D4802F01C
:1004A800E1FF00282DD108220EA91A4802F0DAFF30
:1004B80048BB0C220EA9174802F0D4FF28BB002322
:1004C800019302930393049305934FF40052069209
:1004D8000793089309934FF000720A920B930C93B9
:1004E8000D9301A90B4803F0B1F880B9094800F051
:1004F800D9FD18B010BDFFF747FFFFF745FFFFF71D
:1005080043FFFFF741FFFFF73FFFFFF73DFFFFF70F
:100518003BFF00BF44030020002C014000B58BB016
:10052800002307930893099300930193029303937D
:100538000493059306931A484FF080420260436083
:1005480083604FF0FF32C2600361836102F00CFFE9
:10055800F0B900230793099307A9114803F020F87D
:10056800C0B9602300930022019202920492694666
:100578000B4802F077FF78B904226946084802F070
:1005880071FF58B9064800F08DFD0BB05DF804FB0B
:10059800FFF7FAFEFFF7F8FEFFF7F6FEFFF7F4FEA7
:1005A800F802002008B51648164B03604FF4E133F3
:1005B800436000218160C16001610C234361816156
:1005C800C1610162416281620A4603F0CBFB70B9E6
:1005D80000210B4803F053FC58B90021084803F0E8
:1005E80073FC40B9064803F02BFC30B908BDFFF78F
:1005F800CBFEFFF7C9FEFFF7C7FEFFF7C5FE00BF3A
:10060800640200200050004008B50E480E4B0360FD
:10061800002343608360C3600374437483741022AF
:10062800426101228261C261026242628262C262E6
:10063800026343638363C36300F09EF900B908BD96
:10064800FFF7A2FE480400200068004008B51548DE
:10065800154B03604FF4E133436000238360C360AC
:1006680003610C2242618361C36103624362836256
:1006780003F045FB70B900210A4803F000FC58B9A3
:100688000021084803F020FC40B9064803F0D8FBD5
:1006980030B908BDFFF778FEFFF776FEFFF774FE66
:1006A800FFF772FED00100200038014010B594B069
:1006B80006AC38220021204605F08FFC0023019368
:1006C80002930393049305934FF4007001F0AAFD7D
:1006D800012306934FF48033079302230D930322DB
:1006E8000E9209220F926C221092119306221292F6
:1006F8001393204601F050FE78B90F23019303238A
:100708000293002303930493059304210DEB010046
:1007180002F0F8F818B914B010BDFFF735FEFFF76E
:1007280033FE000008B500F043F8FFF7BFFF0B48A1
:10073800FFF788FDFFF796FDFFF728FEFFF752FE4B
:10074800FFF770FEFFF7EAFEFFF72CFFFFF75CFFED
:10075800FFF77CFF04F010FBFEE700BF000000205D
:10076800104B1B680BB90120704710B504464FF4B5
:100778007A70B0FBF3F30C4A1068B0FBF3F000F0AA
:10078800A1F868B90F2C01D901200AE000222146FE
:100798004FF0FF3000F082F8044B1C60002000E0AE
:1007A800012010BD18000020200000201C0000209F
:1007B80010B5032000F060F80F20FFF7D1FF10B14B
:1007C8000124204610BD044600F06CFBF9E7000048
:1007D800034A1368034909680B441360704700BF54
:1007E800AC04002018000020014B1868704700BFB7
:1007F800AC040020002807DB00F01F024009012399
:100808009340024A42F82030704700BF00E100E000
:10081800002808DB0901C9B200F1604000F5614019
:1008280080F80013704700F00F000901C9B2014BAE
:100838001954704714ED00E000B500F00700C0F14E
:10084800070CBCF1040F28BF4FF0040C031D062B46
:100858000FD9C31E4FF0FF3E0EFA0CF021EA00013B
:1008680099400EFA03FE22EA0E0241EA02005DF800
:1008780004FB0023EEE70000074AD36823F4E06393
:100888001B041B0C000200F4E060034343F0BF6349
:1008980043F40033D360704700ED00E010B5044620
:1008A800054BD868C0F30220FFF7C6FF0146204673
:1008B800FFF7AEFF10BD00BF00ED00E008B5FFF781
:1008C80099FF08BD0138B0F1807F0BD24FF0E023CB
:1008D8005861054AF02182F8231000209861072208
:1008E8001A6170470120704700ED00E010B40268FB
:1008F8001D4B9A4228D01D491D4B9A4226D00164AF
:10090800D2F8803023F4F813446B43EA0443C2F866
:10091800803001F1700343640268D2F8803023F01C
:100928007063846B43EA0463C2F8803001F1B0035A
:10093800836401F5C473C36401F51873036501F595
:100948001E7343650B4607E00A49D5E701F5D461F4
:10095800D5E7002243F8042B01F554729A42F8D8DF
:100968005DF8044B704700BF0068004000A40040D9
:10097800006C004050A70040002800F0E38038B524
:10098800044690F85C30D3B12268936923F01003D1
:100998009361FFF729FF054623689A6912F0080F4B
:1009A80012D0FFF721FF401B0A28F5D9236E43F028
:1009B80001032366032384F85C30012038BD80F8E6
:1009C8005D3000F08BFADFE79A6942F001029A6124
:1009D800FFF70AFF054623689A6912F0010F0DD147
:1009E800FFF702FF401B0A28F5D9236E43F00103E5
:1009F8002366032384F85C300120DFE79A6942F01C
:100A080002029A612268504B9A4242D0237C012B01
:100A180045D02268936943F040039361637C012BBE
:100A280043D02268936923F480439361A37C012B0C
:100A380041D02268936943F4805393612268936993
:100A480023F44073A1680B4393612268936923F0F0
:100A5800A40393612268136923F010031361E36808
:100A6800012B2ED0002B31D0022B54D02268936951
:100A780043F0800393612268136943F01003136104
:100A8800E368032B22D12268936943F02003936122
:100A98001CE06268A3F58063C3F80025B6E7226806
:100AA800936923F040039361B8E72268936943F49C
:100AB80080439361BAE72268936923F48053936172
:100AC800BCE72268936943F004039361A3695A1E43
:100AD800E369013B1B0243EA4263226A013A13437A
:100AE8006269013A216843EA0243CB61A368B3F51E
:100AF800407F16D02268D2F8C030E16B0B43C2F8B1
:100B0800C0302046FFF7F2FE0020A06520660123D2
:100B180084F85C3052E72268936943F020039361BC
:100B2800D4E7A36A013BE26A013A43EA0223226B53
:100B3800013A43EA0213626A013A216843EA02432E
:100B4800CB60D7E70120704700640040F0B583B060
:100B5800002362E085685E000324B44025EA0405AA
:100B6800CC68B4402C438460456825EA0C054C6881
:100B7800C4F300149C402C4344605FE0DD08083552
:100B880050F8254003F0070C4FEA8C0C4FF00F0E7D
:100B98000EFA0CFE24EA0E0E0C6904FA0CF444EA70
:100BA8000E0440F8254060E0052400E0002404FA23
:100BB8000EF42C430CF1020C554D45F82C40554CC5
:100BC800A568D44325EA02064F6817F4801F01D0B0
:100BD80042EA05064F4DAE60ED6804EA05064F6827
:100BE80017F4001F01D042EA05064A4DEE606D6811
:100BF80004EA05064F6817F4003F01D042EA0506EB
:100C0800444D6E602D682C404E6816F4803F01D02C
:100C180042EA05043F4A146001330A6832FA03F4D1
:100C280074D04FF0010C0CFA03FC1CEA0202F3D05A
:100C38004C6804F00304013C012C8BD94C6804F087
:100C48000304032C0CD0C4685D004FF0030C0CFAAD
:100C580005FC24EA0C0C8C68AC4044EA0C04C46023
:100C68004C6804F00304022C88D004684FEA430E51
:100C78004FF0030C0CFA0EFC24EA0C0C4C6804F040
:100C8800030404FA0EF444EA0C0404604C6814F4F7
:100C9800403FC1D0204C256E45F001052566246EE5
:100CA80004F001040194019C4FEA930C0CF1020535
:100CB800174C54F8255003F0030E4FEA8E0E0F24FC
:100CC80004FA0EF425EA0405B0F1904F3FF46EAF34
:100CD800124CA04212D004F58064A04210D004F552
:100CE8008064A0420ED004F58064A0420CD004F5C4
:100CF8008064A0423FF458AF062458E7012456E721
:100D0800022454E7032452E7042450E703B0F0BD5B
:100D180000000140000401400010024000040048A7
:100D28000AB1816170478162704700285FD010B5B1
:100D3800044690F84130002B48D0242384F84130F1
:100D48002268136823F0010313606368226823F0A4
:100D5800706313612268936823F400439360E36827
:100D6800012B38D0A368226843F404439360E368F6
:100D7800022B36D02268536823F40063536022683C
:100D8800536843F0007343F4004353602268D36808
:100D980023F40043D360236962691343A16922687D
:100DA80043EA0123D360E369216A22680B43136095
:100DB8002268136843F00103136000206064202355
:100DC80084F84130206384F8420010BD80F8403038
:100DD80000F0CCF8B1E7A368226843F400439360BD
:100DE800C5E72268536843F400635360C7E70120EE
:100DF8007047034690F84120202A23D190F84020DC
:100E0800012A21D0012280F84020242280F84120A4
:100E18000068026822F0010202601868026822F481
:100E280080520260186802680A43026019680A68FA
:100E380042F001020A60202283F84120002083F852
:100E4800400070470220704702207047034690F820
:100E58004120202A21D190F84020012A1FD00122C8
:100E680080F84020242280F841200068026822F09F
:100E7800010202601868026822F4706242EA0122E4
:100E8800026019680A6842F001020A60202283F8A9
:100E98004120002083F8400070470220704702205C
:100EA8007047000000B583B00B4B1A6E42F0010288
:100EB8001A661A6E02F001020092009A9A6D42F0C8
:100EC80080529A659B6D03F080530193019B01F05A
:100ED8002FFA03B05DF804FB0010024010B59CB077
:100EE800044600211791189119911A911B915422C7
:100EF80002A805F072F82268194B9A4201D01CB07A
:100F080010BD4FF4805302934FF00073109302A862
:100F180001F01EFE00BB134B9A6D42F000729A65F9
:100F28009A6D02F000720092009ADA6C42F00202A6
:100F3800DA64DB6C03F002030193019B60231793CF
:100F480002231893002319931A9309231B9317A9B3
:100F58000548FFF7FBFDD2E7FFF716FADBE700BF0E
:100F680000680040001002400004004810B59CB022
:100F7800044600211791189119911A911B91542236
:100F880002A805F02AF82268184B9A4201D01CB032
:100F980010BD4023029302A801F0DAFD10BB144CE7
:100FA800E36C43F00103E364E36C03F00103009393
:100FB800009B4FF4C04317931223189300231993EF
:100FC8001A9304231B9317A94FF09040FFF7BEFD17
:100FD800A36D43F40013A365A36D03F400130193F9
:100FE800019BD4E7FFF7D0F9D9E700BF00540040D0
:100FF8000010024000B589B00023039304930593C1
:10100800069307930268134B9A4202D009B05DF821
:1010180004FB03F560431A6E42F480521A661A6E96
:1010280002F480520192019ADA6C42F00102DA6409
:10103800DB6C03F001030293029BE023039302237A
:1010480004930523079303A94FF09040FFF77EFD13
:10105800DCE700BF0030014082B003680F4A9342CA
:1010680004D0B3F1804F0CD002B070470C4B1A6E0D
:1010780042F400621A661B6E03F400630093009B3F
:10108800F2E703F504339A6D42F001029A659B6D0D
:1010980003F001030193019BE6E700BF002C014028
:1010A8000010024000B589B0002303930493059310
:1010B8000693079303681A4A934205D0B3F1804F09
:1010C80016D009B05DF804FB164BDA6C42F0040246
:1010D800DA64DB6C03F004030193019B0F23039391
:1010E80002230493079303A90F48FFF72FFDE8E7AE
:1010F80003F50433DA6C42F00102DA64DB6C03F0C6
:1011080001030293029B0323039302230493012305
:10111800079303A94FF09040FFF718FDD1E700BFF0
:10112800002C01400010024000080048F0B5A1B0B2
:10113800044600211B911C911D911E911F91542260
:1011480006A804F04AFF2368384A934204D0384A74
:10115800934241D021B0F0BD1023069306A801F0B8
:10116800F7FC002835D1334B9A6D42F480129A650A
:101178009A6D02F480120192019ADA6C42F004022C
:10118800DA64DA6C02F004020292029ADA6C42F033
:101198000802DA64DB6C03F008030393039B4FF443
:1011A80080531B9312271C9700241D941E94052618
:1011B8001F961BAD29462048FFF7C8FC04231B9344
:1011C8001C971D941E941F9629461C48FFF7BEFCC9
:1011D800C0E7FFF7D9F8C6E70123069306A801F090
:1011E800B7FC00BB134B1A6E42F480421A661A6EA3
:1011F80002F480420492049ADA6C42F00402DA643F
:10120800DB6C03F004030593059B30231B93022337
:101218001C9300231D931E9307231F931BA90648A5
:10122800FFF794FC96E7FFF7AFF8DBE700500040C4
:10123800003801400010024000080048000C004837
:1012480038B512F4804F43D00468B4F8503091F8A0
:1012580000C04FEACC0E1EFA83F32344B3F80244CD
:10126800C4F309048B69A34228D31B1B8B618B69C8
:101278007BB9056835F82C309BB223F4804323F002
:10128800700383F4005343F4004343F0800325F8CC
:101298002C3012F0400F0ED002680D7832F825304D
:1012A8009BB223F4E04323F0700343F4004343F07C
:1012B800C00322F8253024B9204638BD00238B61AD
:1012C800D5E723460A894969006803F032FDF3E748
:1012D8000468B4F8503091F800C04FEACC0E1EFAFA
:1012E80083F32344B3F80644C4F309048B69A34287
:1012F8002FD31B1B8B618B697BB9056835F82C30A4
:101308009BB223F4804323F0700383F4005343F427
:10131800004343F0800325F82C3012F0400F0FD122
:10132800026891F800C032F82C309BB223F4E043F5
:1013380023F0700343F4004343F0C00322F82C3039
:10134800002CB9D023464A894969006803F0F1FCAA
:10135800B2E700238B61CEE7002856D010B50446CB
:1013680090F891323BB1032384F89132206802F05F
:10137800EEFD002315E080F8903203F00BFFF2E752
:1013880003EB830204EBC2020121517413740021A0
:10139800D17411625162013303EB8302D200A15070
:1013A800DBB220799842EBD8002316E003EB8302E6
:1013B80004EBC202002182F8511182F8503182F800
:1013C8005311C2F86011C2F8641103EB830204EBF5
:1013D800C202C2F868110133DBB29842E6D823464C
:1013E80053F8040B93E8060002F0BBFD00232373B7
:1013F800012384F89132A37A012B01D0002010BD7B
:10140800204600F0F9FE0020F9E70120704790F827
:101418009032012B0ED010B50446012380F890328B
:10142800006802F08BFD206803F09DF9002084F825
:10143800900210BD0220704770B505460C4616464E
:1014480012F0400F00F020810268B2F8503009789D
:101458004FEAC10C1CFA83F31344B3F80224C2F315
:101468000902A36993422CD99B1AA361A06958B3B6
:1014780016F4804F0DD0286830F821309BB223F441
:10148800E04323F0700343F4404343F0800320F823
:10149800213094F82430012B00F08D802A682178BF
:1014A80032F821309BB223F4E04323F0400383F069
:1014B800300343F4004343F0800322F82130002036
:1014C80070BD0023A361D1E76378002B48D12A6857
:1014D800B2F8503012FA83F36344B3F80224C2F32B
:1014E8000902A3F80224B3F802246FEA42426FEA21
:1014F800524292B2A3F802242A686378002B3BD1A7
:10150800B2F8503012FA83F3227803EBC203B3F82F
:101518000624C2F30902A3F80624B3F806246FEAE6
:1015280042426FEA524292B2A3F80624E378022BB1
:101538002FD02178284603F073FE16F4804FBED0D2
:101548002A68217832F821309BB223F4E04323F053
:10155800700343F4404343F0800322F82130AEE7A0
:10156800012BC9D12A68B2F8503012FA83F36344C8
:101578000022A3F80224BFE7012BD7D1B2F85030DC
:1015880012FA83F3227803EBC2030022A3F806249D
:10159800CCE72A68217832F821309BB223F4E04363
:1015A80023F0400383F0200343F4004343F0800317
:1015B80022F82130BDE7636913446361E36913448A
:1015C800E361216A236999421DD3C91A21626278AD
:1015D800002A44D12968B1F8502011FA82F2217802
:1015E80002EBC102B2F80214C1F30901A2F8021415
:1015F800ABB9B2F802146FEA41416FEA514189B2BE
:10160800A2F802142DE021B9002384F824301346EF
:10161800DDE7002384F8243023620B46D7E73E2B0E
:101628000DD8590813F0010F00D00131B2F80204A7
:1016380080B2890289B20143A2F8021411E0580964
:1016480013F01F0F00D10138B2F8021489B28002DA
:1016580080B2014341F40041A2F8021401E0012ADA
:1016680006D09BB222896169286803F08BF815E7D8
:101678002968B1F8502011FA82F2217802EBC102F0
:1016880099B2A2F80214ECE70268B2F8503009786F
:10169800C80010FA83F31344B3F80624C2F309020E
:1016A800A369934246D39B1AA361A369002B44D034
:1016B80016F4804F0DD1286830F821309BB223F4FE
:1016C800E04323F0700343F4404343F0800320F8E1
:1016D800213094F82430012B7FF4E0AE6369134481
:1016E8006361E3691344E361216A23699942C0F0A5
:1016F8009C80C91A216229686278002A40F0C1805A
:10170800B1F8502011FA82F2217802EBC102B2F846
:101718000614C1F30901A2F80614002B40F09180C9
:10172800B2F806146FEA41416FEA514189B2A2F852
:101738000614A8E00023A361B7E76378002B49D11A
:101748002A68B2F8503012FA83F30344B3F802243B
:10175800C2F30902A3F80224B3F802246FEA424252
:101768006FEA524292B2A3F802242A686378002BE7
:101778003CD1B2F8503012FA83F3227803EBC2035B
:10178800B3F80624C2F30902A3F80624B3F8062422
:101798006FEA42426FEA524292B2A3F80624E37813
:1017A800022B30D02178284603F03AFD16F4804FFA
:1017B8007FF485AE2A68217832F821309BB223F471
:1017C800E04323F0700343F4404343F0800322F8DE
:1017D800213074E6012BC8D12A68B2F8503012FAC9
:1017E80083F303440022A3F80224BEE7012BD6D1D9
:1017F800B2F8503012FA83F3227803EBC2030022C6
:10180800A3F80624CBE72A68217832F821309BB266
:1018180023F4E04323F0400383F0200343F4004320
:1018280043F0800322F82130BCE721B9002384F873
:10183800243013465FE70023236284F824300B46E4
:1018480059E73E2B0DD8590813F0010F00D001318C
:10185800B2F8060480B2890289B20143A2F80614DC
:1018680011E0580913F01F0F00D10138B2F806141F
:1018780089B2800280B2014341F40041A2F8061403
:1018880001E0012A06D09BB262896169286802F0EA
:1018980079FF03E6B1F8502011FA82F2217802EBC1
:1018A800C10299B2A2F80614EDE72DE9F041054608
:1018B8002868B0F8443013F4004F00F05582B0F8AF
:1018C8004440A3B214F00F0440F09F8013F0100FAF
:1018D8004AD003889AB213F4006F75D112F4004FFE
:1018E800E6D0038823F070031B051B0D43F080032B
:1018F80003802868B0F8503095F85021D20012FAC9
:1019080083F30344B3F80634C3F30903C5F86C3111
:101918008BB1D5F8641171B1B5F8562103F009FA05
:10192800D5F86431D5F86C211344C5F86431002129
:10193800284603F069FC2A68138899B213F4006FEB
:10194800B6D101F44051B1F5405FB1D013889BB2D4
:1019580023F4804323F0700383F4405343F400439B
:1019680043F080031380A3E703889BB223F4E14389
:1019780023F070036FEA43436FEA53439BB203803B
:101988002968B1F850302A7CD20012FA83F30B444C
:10199800B3F80234C3F30903EB626A6A1A446A6251
:1019A8000021284603F03CFC2B7B002B80D0AB6A3F
:1019B800002B7FF47DAF2B7B2A6843F08003A2F8CD
:1019C8004C3000232B7373E7B0F8503095F8502152
:1019D800D20012FA83F30344B3F80634C3F30903BD
:1019E800C5F86C31B5F8562105F5267103F0A1F953
:1019F8002A68138823F070031B051B0D43F080032E
:101A08001380284603F0F8FB52E730F824309EB2E2
:101A180013F4004F4ED116F0800F3FF449AF04EB9A
:101A28008401C900103129442A6832F824309BB255
:101A380023F4E14323F070036FEA43436FEA53430F
:101A48009BB222F8243004EB840305EBC303DB7C50
:101A5800012B00F0E98016F4807F40F0808128682F
:101A6800B0F8503004EB840205EBC202167CF20099
:101A780012FA83F30344B3F80234C3F30903621C74
:101A880002EB820255F832209A4240F24B81671CE1
:101A980007EB8707D21A45F83720621C02EB82024F
:101AA80055F83220002A40F044813146284603F098
:101AB800B7FBFDE630F8243023F070031B051B0D3F
:101AC80043F0800320F8243004EB8401C90001F5B9
:101AD800A87105EB010804EB840305EBC30393F835
:101AE8005C31002B40D12868B0F8503004EB8402F8
:101AF80005EBC20292F85021D20012FA83F3034494
:101B0800B3F80674C7F3090717BB04EB840305EBA6
:101B1800C303D3F86C213A44C3F86C21D3F8642189
:101B28003A44C3F86421D3F868313BB104EB840329
:101B380005EBC303D3F860319F4270D204EB8403F2
:101B480005EBC30393F85011284603F05DFB62E7E9
:101B580004EB840105EBC1013B46B1F85621D1F8ED
:101B6800641103F0E6F8D0E704EB840305EBC30344
:101B780093F85331022B33D0296804EB840205EB28
:101B8800C20292F8500131F820309BB223F4E043AE
:101B980023F0700343F4004343F0C00321F82030DE
:101BA800286892F8503130F8232012F4804F1ED064
:101BB800B0F85020DB0013FA82F30344B3F8027440
:101BC800C7F30907002FA0D004EB840105EBC1017E
:101BD8003B46B1F85821D1F8641103F0AAF894E70C
:101BE800324641462846FFF72BFB07468DE7B0F8FB
:101BF8005020DB0013FA82F30344B3F80674C7F3EA
:101C08000907002F81D004EB840105EBC1013B4695
:101C1800B1F85A21D1F8641103F08BF875E7414601
:101C2800286802F0C1FDF6E6631C03EB8303DB00C2
:101C38000022EA5004EB840305EBC3031B7F1BB3AC
:101C480016F0400F3BD004EB840305EBC3035B7C29
:101C58001BBB2A68B2F8503012FA83F304EB8402F3
:101C680005EBC202127C03EBC203B3F80224C2F3F1
:101C78000902A3F80224B3F802246FEA42426FEA89
:101C8800524292B2A3F8022404EB840405EBC40484
:101C9800217C284603F0C4FA0AE6012BF4D12A680D
:101CA800B2F8503012FA83F304EB840205EBC20257
:101CB800127C03EBC2030022A3F80224E4E72A689B
:101CC80004EB840305EBC3035B7CD3B9B2F8503053
:101CD80012FA83F304EB840205EBC202127C03EBD5
:101CE800C203B3F80624C2F30902A3F80624B3F822
:101CF80006246FEA42426FEA524292B2A3F80624DF
:101D0800C2E7012BC0D1B2F8503012FA83F304EBCA
:101D1800840205EBC202127C03EBC2030022A3F883
:101D28000624B1E7621C02EB8202D2000027AF5002
:101D3800B3E604EB840205EBC202566A1E445662FF
:101D4800013404EB840205EBC202526804EB8404FC
:101D580005EBC4041344636002F026FDA8E532468F
:101D68002846FFF769FBA3E50020BDE8F08190F85D
:101D78009032012B0CD010B50446012380F8903224
:101D88000173006802F0E9FC002084F8900210BD9D
:101D98000220704710B50446006802F0EFFC10F40A
:101DA800004F23D110F4806F24D110F4804F32D12A
:101DB80010F4005F39D110F4805F40D110F4006F47
:101DC80067D110F0800F40F0818010F4007F40F060
:101DD800AD8010F4807F27D02268B2F844309BB2DF
:101DE80023F480739BB2A2F844301DE02046FFF72D
:101DF8005CFD19E02268B2F844309BB223F480639A
:101E08009BB2A2F84430204603F01BFA002120467A
:101E1800FFF7ADFF08E02268B2F844309BB223F424
:101E280080439BB2A2F8443010BD2268B2F8443017
:101E38009BB223F400539BB2A2F84430F4E7226823
:101E4800B2F840309BB223F004039BB2A2F84030B2
:101E58002268B2F840309BB223F008039BB2A2F884
:101E6800403094F8C832012B0CD0204603F00CFA0D
:101E78002268B2F844309BB223F480539BB2A2F894
:101E88004430D1E7002184F8C812204603F0B4FAA0
:101E9800EBE72268B2F840309BB243F00803A2F89F
:101EA80040302268B2F844309BB223F400639BB2FE
:101EB800A2F844302268B2F840309BB243F00403E1
:101EC800A2F84030204603F0CFF9ADE72268B2F817
:101ED80044309BB223F080039BB2A2F8443094F8BC
:101EE800C832FBB92268B2F840309BB243F0040311
:101EF800A2F840302268B2F840309BB243F00803A1
:101F0800A2F84030012184F8C8122368B3F854308D
:101F1800C3F38D0303F03C03C4F8CC32204603F02E
:101F28006BFA81E7204603F09FF97DE72268B2F853
:101F380044309BB223F400739BB2A2F8443020468D
:101F480003F079F970E710B50446084611F0800FE0
:101F580027D101F0070C0CEB8C01C90001F5A87E14
:101F680004EB0E010CEB8C0C04EBCC0C4FF0000EC8
:101F78008CF851E100F007000870C2F30A020A6108
:101F8800CB70022B1DD094F89032012B1CD001236A
:101F980084F89032206801F0F5FF002084F8900260
:101FA80010BD01F0070C0CEB8C01C9001031214465
:101FB8000CEB8C0C04EBCC0C4FF0010E8CF811E000
:101FC800D8E700230B71DEE70220E9E710B50446E5
:101FD8000A4611F0800F1FD101F0070000EB8003C3
:101FE800DB0003F5A873E11800EB800004EBC000E8
:101FF800002380F8513102F007020A7094F89032F9
:10200800012B17D0012384F89032206802F047FA98
:10201800002084F8900210BD01F0070000EB800357
:10202800DB001033E11800EB800004EBC000012353
:102038004374E0E70220EEE710B501F0070C0CEB63
:102048008C01C90001F5A8710CEB8C0E00EBCE0ECB
:10205800CEF86421CEF868310024CEF86C418EF8B1
:1020680051418EF850C10144006802F09DFB2046A2
:1020780010BD01F0070101EB810100EBC100D0F8B0
:102088006C01704738B501F0070C0CEB8C01C900E6
:1020980010310CEB8C0E00EBCE0ECEF824200CF198
:1020A800010202EB820440F8343001258EF83450E6
:1020B800CEF8303000EBC402002454608EF8115082
:1020C8008EF810C00144006802F06EFB204638BD4F
:1020D8000B4601F00702017991422ED310B5044650
:1020E80013F0800F1DD103EB8301C90001F5A8711E
:1020F800014403EB830300EBC303002083F8510181
:1021080001238B700A7094F89032012B17D00123A9
:1021180084F89032206802F0ADFA002084F890022A
:1021280010BD02EB8201C9001031014402EB8203A9
:1021380000EBC30301205874E2E701207047022036
:10214800EEE70B46017903F00F02914234D310B544
:10215800044613F0800F21D103F0070202EB82013D
:10216800C90001F5A871014402EB820200EBC2022A
:10217800002082F8510100228A7003F007030B70D7
:1021880094F89032012B19D0012384F890322068FA
:1021980002F095FA002084F8900210BD03F00702BF
:1021A80002EB8201C9001031014402EB820200EB0C
:1021B800C20201205074DEE7012070470220ECE7DC
:1021C80011F0800F0BD001F0070101EB8101C9006C
:1021D8001031084452B90273C3800020704701EBE4
:1021E8008101C90001F5A8710844F3E701220273CF
:1021F80003811B0C4381F0E7034602680121C0F804
:10220800D012002083F8C802B2F854309BB20B43B6
:10221800A2F85430B2F854309BB243F00203A2F84B
:1022280054307047002836D13E4B1B6803F4C06316
:10223800B3F5806F08D03B4AD2F8803023F480731E
:10224800C2F8803000207047364AD2F8803023F434
:102258008073C2F88030136823F4C06343F40073BA
:102268001360314B1B68322202FB03F32F4AA2FB97
:1022780003239B0C013300E0013B2A4A526912F404
:10228800806F01D0002BF7D1264B5B6913F4806F68
:1022980044D100207047B0F5007F08D0214A136868
:1022A80023F4C06343F480631360002070471D4B20
:1022B8001B6803F4C063B3F5806F08D0194AD2F8DD
:1022C800803043F48073C2F8803000207047154A8C
:1022D800D2F8803043F48073C2F88030136823F456
:1022E800C06343F4007313600F4B1B68322202FB78
:1022F80003F30E4AA2FB03239B0C013300E0013BCE
:10230800084A526912F4806F01D0002BF7D1054BAF
:102318005B6913F4806F03D1002070470320704776
:1023280003207047007000402000002083DE1B431C
:10233800024A936843F480439360704700700040FA
:10234800124BDA6802F00302DB68C3F303130133AC
:10235800032A11D00E48B0FBF3F00C4BDB68C3F333
:10236800062303FB00F0094BDB68C3F34163013329
:102378005B00B0FBF3F070470648B0FBF3F0034B8B
:10238800DB68C3F3062303FB00F0ECE70010024010
:102398000024F40000366E01002800F04F8270B56A
:1023A80082B00446036813F0010F37D0A44A93683B
:1023B80003F00C03D26802F003020C2B23D0082B85
:1023C80023D06368B3F5803F4ED0B3F5A02F51D02A
:1023D8009B4B1A6822F480321A601A6822F4802211
:1023E8001A606368002B52D0FEF7FEF90546944B3D
:1023F8001B6813F4003F11D1FEF7F6F9401B64285F
:10240800F5D9032023E2032AD9D18D4B1B6813F495
:10241800003F03D06368002B00F01282236813F09A
:10242800020F5DD0864A936803F00C03D26802F06D
:1024380003020C2B3AD0042B3AD0E368002B75D05A
:102448007F4A136843F480731360FEF7CDF905469D
:102458007B4B1B6813F4806F5FD1FEF7C5F9401BF7
:102468000228F5D90320F2E1754A136843F4803352
:102478001360B6E703F18043A3F53C331A6842F4CE
:1024880080221A601A6842F480321A60A9E7FEF7BF
:10249800ABF905466A4B1B6813F4003FBED0FEF744
:1024A800A3F9401B6428F5D90320D0E1022AC2D140
:1024B800634B1B6813F4806F03D0E368002B00F0B4
:1024C800C1815F4A536823F0FE43216943EA0163EF
:1024D80053605C4B1868FEF743F9002840F0B4815C
:1024E800236813F0080F4CD063699BB3544AD2F8A1
:1024F800943043F00103C2F89430FEF775F90546AD
:102508004F4BD3F8943013F0020F3AD1FEF76CF921
:10251800401B0228F4D9032099E1494A536823F063
:10252800FE43216943EA01635360D9E7444A1368CB
:1025380023F480731360FEF757F90546404B1B6878
:1025480013F4806FCCD0FEF74FF9401B0228F5D961
:1025580003207CE13A4AD2F8943023F00103C2F810
:102568009430FEF741F90546354BD3F8943013F013
:10257800020F06D0FEF738F9401B0228F4D90320D1
:1025880065E1236813F0040F00F081802C4B9B6DEC
:1025980013F0805F36D12A4B9A6D42F080529A65CB
:1025A8009B6D03F080530193019B0125264B1B680B
:1025B80013F4807F28D0A368012B39D0052B45D090
:1025C8001F4BD3F8902022F00102C3F89020D3F8D3
:1025D800902022F00402C3F89020A368002B43D077
:1025E800FEF702F90646164BD3F8903013F0020FA7
:1025F8004CD1FEF7F9F8801B41F288339842F2D9A2
:10260800032024E10025D1E70F4A136843F48073BF
:102618001360FEF7E9F806460B4B1B6813F4807F3E
:10262800C9D1FEF7E1F8801B0228F5D903200EE195
:10263800034AD2F8903043F00103C2F89030CCE757
:10264800001002401C00002000700040884BD3F8A6
:10265800902042F00402C3F89020D3F8902042F072
:102668000102C3F89020B8E7FEF7BEF80646804B93
:10267800D3F8903013F0020F08D0FEF7B5F8801B9E
:1026880041F288339842F2D90320E0E0E5B92368A3
:1026980013F0200F35D0A369E3B1754AD2F898300A
:1026A80043F00103C2F89830FEF79EF80546704BD8
:1026B800D3F8983013F0020F23D1FEF795F8401B9A
:1026C8000228F4D90320C2E0694A936D23F08053AD
:1026D8009365DCE7664AD2F8983023F00103C2F824
:1026E8009830FEF781F80546614BD3F8983013F01F
:1026F800020F06D0FEF778F8401B0228F4D9032011
:10270800A5E0E369002B00F0A180594A926802F025
:102718000C020C2A64D0022B13D0554A136823F0FC
:1027280080731360FEF760F80446514B1B6813F082
:10273800007F4ED0FEF758F8001B0228F5D9032079
:1027480085E04B4A136823F080731360FEF74CF85A
:102758000546474B1B6813F0007F06D0FEF744F888
:10276800401B0228F5D9032071E0414AD36841494A
:102778001940236A606A013843EA0013A06A43EAF1
:102788000023206B4008013843EA4053606B40083F
:10279800013843EA4063E06A43EAC0631943D16001
:1027A800136843F080731360D36843F08073D36079
:1027B800FEF71AF804462E4B1B6813F0007F06D16B
:1027C800FEF712F8001B0228F5D903203FE000208D
:1027D8003DE0274AD168284B0B40D360002036E003
:1027E800012B36D0224BDB6803F00301226A9142A9
:1027F80031D103F0F002616A0139B2EB011F2CD12B
:1028080003F4FE42A16AB2EB012F28D103F078420B
:10281800E16AB2EBC16F24D103F4C001226B520804
:10282800013AB1EB425F1ED103F0C063626B5208FC
:10283800013AB3EB426F18D1002008E0012070473D
:10284800012004E0012002E0012000E0002002B0A5
:1028580070BD0120FBE70120F9E70120F7E701201F
:10286800F5E70120F3E70120F1E70120EFE700BFDA
:10287800001002400C809F01FCFFEEFE1E4B9B687F
:1028880003F00C03042B33D01B4B9B6803F00C03A1
:10289800082B2FD0184B9B6803F00C030C2B01D08E
:1028A80000207047144BDA6802F00302DB68C3F3B8
:1028B80003130133032A11D01048B0FBF3F00E4B79
:1028C800DB68C3F3062303FB00F00B4BDB68C3F3A1
:1028D800416301335B00B0FBF3F070470848B0FB7D
:1028E800F3F0054BDB68C3F3062303FB00F0ECE7CA
:1028F8000248704702487047001002400024F40064
:1029080000366E01002800F0E680F8B50C46054652
:10291800744B1B6803F00F038B420BD2714A136888
:1029280023F00F030B431360136803F00F038B426C
:1029380040F0D3802E6816F001065FD06B68032B39
:102948002FD0022B4DD0684B1B6813F4806F00F01A
:10295800C680FFF793FF654B98424DD9624A93684A
:1029680023F0F00343F08003936080265E4A936867
:1029780023F0030369680B439360FDF735FF0746AF
:10298800594B9B6803F00C036A68B3EB820F35D090
:10299800FDF72AFFC01B41F288339842F0D9032083
:1029A80078E0514B1B6813F0007F01D1012071E0E2
:1029B800FFF7C6FC4D4B98421AD94B4B9B6813F056
:1029C800F00F05D02E6816F00206CFD0AB688BB991
:1029D800454A936823F0F00343F080039360802610
:1029E800C4E7414B1B6813F4003FB2D1012051E00A
:1029F8000026BBE70026B9E70026B7E72B6813F0E7
:102A0800020F48D013F0040F04D0374A936843F4F8
:102A1800E06393602B6813F0080F06D0324A93687E
:102A280023F47C5343F4E06393602F4A936823F0C4
:102A3800F003A9680B4393602A4B1B6803F00F034C
:102A4800A34230D82B6813F0040F06D0264A9368A7
:102A580023F4E063E9680B4393602B6813F0080FD5
:102A680007D0214A936823F46053296943EAC103D4
:102A78009360FFF703FF1C4B9B68C3F303131C4AC7
:102A8800D35C03F01F03D8401A4B18601A4B186820
:102A9800FDF766FEF8BD802ECED1134A936823F069
:102AA800F0039360C8E70F4A136823F00F0323432A
:102AB8001360FDF799FE06460A4B1B6803F00F03E7
:102AC800A342BFD0FDF790FE801B41F288339842A5
:102AD800F2D90320DEE7012070470120DAE7012060
:102AE800D8E700BF002002400010024000B4C40430
:102AF8007C630008200000201C000020014B18689F
:102B0800704700BF2000002008B5FFF7F7FF054B0E
:102B18009B68C3F30223044AD35C03F01F03D84025
:102B280008BD00BF001002407463000808B5FFF735
:102B3800E5FF054B9B68C3F3C223044AD35C03F04B
:102B48001F03D84008BD00BF00100240746300088E
:102B5800F0B583B00446036813F4002F6ED0354BEC
:102B68009B6D13F0805F1ED1324B9A6D42F08052FC
:102B78009A659B6D03F080530193019B01262E4AB1
:102B8800136843F480731360FDF72EFE05462A4B45
:102B98001B6813F4807F08D1FDF726FE401B02282E
:102BA800F5D9032502E00026E9E7002545BB214BBE
:102BB800D3F8903013F4407318D0226D9A4212D093
:102BC8001C4AD2F8903023F44073D2F8901041F4A4
:102BD8008031C2F89010D2F8901021F48031C2F8F8
:102BE8009010C2F8903013F0010F10D145B9114A76
:102BF800D2F8903023F44073216D0B43C2F8903023
:102C0800EEB10C4A936D23F08053936517E0FDF7FE
:102C1800EBFD0746074BD3F8903013F0020FE5D1D0
:102C2800FDF7E2FDC01B41F288339842F2D9032533
:102C3800DCE700BF00100240007000400025236858
:102C480013F0010F08D09F4AD2F8883023F003030D
:102C580061680B43C2F88830236813F0020F08D06C
:102C6800984AD2F8883023F00C03A1680B43C2F8C5
:102C78008830236813F0040F08D0924AD2F88830BD
:102C880023F03003E1680B43C2F88830236813F05F
:102C9800080F08D08B4AD2F8883023F0C003216986
:102CA8000B43C2F88830236813F0100F08D0854A08
:102CB800D2F8883023F4407361690B43C2F8883036
:102CC800236813F0200F08D07E4AD2F8883023F406
:102CD8004063A1690B43C2F88830236813F0400FA2
:102CE80008D0784AD2F8883023F44053E1690B437E
:102CF800C2F88830236813F0800F08D0714AD2F8E0
:102D0800883023F44043216A0B43C2F88830236893
:102D180013F4807F08D06B4AD2F8883023F440330C
:102D2800616A0B43C2F88830236813F4003F08D067
:102D3800644AD2F89C3023F00303A16A0B43C2F81B
:102D48009C30236813F4007F08D05E4AD2F888309C
:102D580023F44023E16A0B43C2F88830236813F454
:102D6800806F0CD0574AD2F8883023F44013216B77
:102D78000B43C2F88830236BB3F5801F79D02368E2
:102D880013F4006F0CD04F4AD2F8883023F4400374
:102D9800616B0B43C2F88830636BB3F5800F6DD05D
:102DA800236813F4805F0CD0464AD2F8883023F0A9
:102DB8004073A16B0B43C2F88830A36BB3F1807FDB
:102DC80061D0236813F4005F0CD03E4AD2F88830F3
:102DD80023F04063E16B0B43C2F88830E36BB3F137
:102DE800006F55D0236813F4804F0CD0354AD2F8C1
:102DF800883023F04063216C0B43C2F88830236C81
:102E0800B3F1006F49D0236813F4004F0CD02D4A5A
:102E1800D2F8883023F04053616C0B43C2F88830F5
:102E2800636CB3F1805F3DD0236813F4803F0CD00E
:102E3800244AD2F8883023F04043A16C0B43C2F8EF
:102E48008830A36CB3F1804F31D0236813F4802FFE
:102E58000CD01C4AD2F89C3023F44013E16C0B438D
:102E6800C2F89C30E36CB3F5001F25D0284603B0A8
:102E7800F0BDD36843F48013D36080E7D36843F48C
:102E88008013D3608CE7D36843F48013D36098E74A
:102E9800D36843F48013D360A4E7D36843F4801362
:102EA800D360B0E7D36843F48033D360BCE7D3681A
:102EB80043F48033D360C8E7D36843F48013D36006
:102EC800D4E700BF0010024000286FD010B50446B8
:102ED800436A33B94368B3F5827F05D00023C361E1
:102EE80002E00023036143610023A36294F85D308C
:102EF800002B52D0022384F85D302268136823F037
:102F080040031360E368B3F5E06F4CD90022B3F5D2
:102F1800706F04D0B3F5E06F01D00023A36263683B
:102F280003F48273A16801F404410B43216901F0A1
:102F380002010B43616901F001010B43A16901F42E
:102F480000710B43E16901F038010B43216A01F07C
:102F580080010B43A16A01F4005120680B43036010
:102F6800638B03F00403616A01F010010B43616B8A
:102F780001F008010B43E16801F470610B4321681B
:102F880013434B602268D36923F40063D3610020A4
:102F98002066012384F85D3010BD84F85C3020463B
:102FA800FEF728F8A6E74FF48052B0E701207047F3
:102FB80030B4026A036A23F0010303624468836938
:102FC80023F4803323F073030D681D4322F00202BB
:102FD8008B681343204A904213D002F50062904256
:102FE8000FD002F5406290420BD002F58062904209
:102FF80007D002F58062904203D002F50062904249
:1030080005D123F00803CA681A4322F00403124AC0
:10301800904213D002F5006290420FD002F5406250
:1030280090420BD002F58062904207D002F5806290
:10303800904203D002F50062904205D124F4407416
:103048004A6922438C691443446085614A68426333
:10305800036230BC704700BF002C014030B4036AE3
:10306800026A22F4807202624468C26922F48032E1
:1030780022F073020D68154323F400738A6843EA4B
:1030880002231C4A904207D002F50062904203D006
:1030980002F5E052904206D123F40063CA6843EA7D
:1030A800022323F48063134A904213D002F500628E
:1030B80090420FD002F5406290420BD002F5806238
:1030C800904207D002F58062904203D002F5006278
:1030D800904207D124F440524C6942EA04128C69A8
:1030E80042EA04144460C5614A68C263036230BCA2
:1030F800704700BF002C014030B4036A026A22F412
:10310800805202624468C26922F0807222F4E64268
:103118000D6842EA052223F400538D6843EA05331B
:103128001B4DA84207D005F50065A84203D005F558
:10313800E055A84206D123F40043CD6843EA05339D
:1031480023F48043124DA84213D005F50065A84228
:103158000FD005F54065A8420BD005F58065A8425B
:1031680007D005F58065A84203D005F50065A8429B
:1031780007D124F4404C4C694CEA841C8C694CEA15
:1031880084144460C2614A680264036230BC7047B8
:10319800002C014030B4036A026A22F480320262D1
:1031A8004468026D22F4803222F070020D681543E3
:1031B80023F400338A6843EA0243114A904213D049
:1031C80002F5006290420FD002F5406290420BD0A7
:1031D80002F58062904207D002F58062904203D0E7
:1031E80002F50062904204D124F480344A6944EA2A
:1031F8000224446005654A688264036230BC7047F3
:10320800002C014030B4036A026A22F48012026280
:103218004468026D22F0807222F4E0420D6842EAAE
:10322800052223F400138D6843EA0553114DA84283
:1032380013D005F50065A8420FD005F54065A842F2
:103248000BD005F58065A84207D005F58065A84232
:1032580003D005F50065A84204D124F480244D6903
:1032680044EA8524446002654A68C264036230BC4B
:10327800704700BF002C014003683A4A904216D0BC
:10328800B0F1804F13D0A2F5943290420FD002F5DE
:10329800806290420BD002F58062904207D002F51E
:1032A8009432904203D002F5E052904203D123F0C9
:1032B80070034A6813432B4A904222D0B0F1804FE2
:1032C8001FD0A2F5943290421BD002F58062904242
:1032D80017D002F58062904213D002F594329042E2
:1032E8000FD002F5406290420BD002F58062904206
:1032F80007D002F58062904203D002F50062904246
:1033080003D123F44073CA68134323F080034A6946
:10331800134303608B68C3620B688362114B984246
:1033280013D003F5006398420FD003F54063984229
:103338000BD003F58063984207D003F58063984269
:1033480003D003F50063984201D10B69036301239D
:103358004361036913F0010F03D0036923F00103EC
:1033680003617047002C014060B310B5044690F823
:103378003D3013B3022384F83D30214651F8040B45
:10338800FFF77AFF012384F8483084F83E3084F848
:103398003F3084F8403084F8413084F8423084F873
:1033A800433084F8443084F8453084F8463084F853
:1033B800473084F83D30002010BD80F83C30FDF7E0
:1033C8004BFED7E70120704730B4036A026A22F047
:1033D800100202624468826922F0807222F4E64296
:1033E8000D6842EA052223F020038D6843EA05139D
:1033F8001B4DA84207D005F50065A84203D005F586
:10340800E055A84206D123F08003CD6843EA0513AE
:1034180023F04003124DA84213D005F50065A842D9
:103428000FD005F54065A8420BD005F58065A84288
:1034380007D005F58065A84203D005F50065A842C8
:1034480007D124F4406C4C694CEA840C8C694CEA32
:103458008404446082614A688263036230BC7047B6
:10346800002C014038B590F83C30012B00F09580D5
:1034780004460D46012380F83C30142A00F2888067
:10348800DFE802F00B8686861F8686863486868667
:10349800488686865D86868671000068FFF788FD07
:1034A8002268936943F0080393612268936923F0C3
:1034B800040393612268936929690B43936100208F
:1034C80067E00068FFF780FF2268936943F40063B0
:1034D80093612268936923F48063936122689369F6
:1034E800296943EA01239361002052E00068FFF74D
:1034F800B5FD2268D36943F00803D3612268D36914
:1035080023F00403D3612268D36929690B43D3618B
:1035180000203EE00068FFF7EFFD2268D36943F41E
:103528000063D3612268D36923F48063D36122687E
:10353800D369296943EA0123D361002029E000689F
:10354800FFF728FE2268136D43F00803136522680D
:10355800136D23F0040313652268136D29690B4367
:103568001365002015E00068FFF74CFE2268136D14
:1035780043F4006313652268136D23F480631365B5
:103588002268136D296943EA01231365002000E0CE
:103598000120002384F83C3038BD0220FCE70000FD
:1035A80090F83C20012A4CD030B40346012280F820
:1035B8003C20022280F83D20006842688468224D41
:1035C800A84207D005F50065A84203D005F5E055E7
:1035D800A84203D122F470024D682A4322F00072F7
:1035E80022F070020D682A4342601A681648824227
:1035F8001AD0B2F1804F17D0A0F59430824213D080
:1036080000F5806082420FD000F5806082420BD0C6
:1036180000F59430824207D000F54060824203D022
:1036280000F58050824204D124F080048968214347
:103638009160012283F83D20002083F83C0030BCD3
:1036480070470220704700BF002C014090F83C30C2
:10365800012B4AD010B40246012380F83C30CB68D5
:1036680023F440738868034323F480634868034362
:1036780023F400630868034323F480530869034371
:1036880023F400534869034323F48043086B03433E
:1036980023F47023886943EA004323F08053C86900
:1036A80003431068124CA04207D004F50064A042FE
:1036B80003D004F5E054A04210D123F470038C6ABF
:1036C80043EA045323F080730C6A234323F0007306
:1036D8004C6A234323F00053C96A0B434364002018
:1036E80082F83C005DF8044B70470220704700BF29
:1036F800002C0140026852E8003F23F4907342E82E
:1037080000310029F6D1026802F1080353E8003FAE
:1037180023F0805323F00103083242E800310029E6
:10372800F1D1C36E012B06D02023C0F88C300023C2
:10373800C36643677047026852E8003F23F01003EE
:1037480042E800310029F6D1EEE7000070B50446E2
:1037580083680269134342691343C26913430168CA
:103768000868954A02401A430A602268536823F49D
:103778004053E1680B435360A16922688F4B9A421A
:1037880001D0236A1943936823F06E4323F430630E
:103798000B4393602268D36A23F00F03616A0B43DB
:1037A800D3622368864A934210D0864A934221D036
:1037B800854A93424DD0854A93425DD0844A9342CC
:1037C8006CD07E4A93427ED010222BE002F55842FC
:1037D800D2F8882002F00302032A09D8DFE802F0B1
:1037E8000204880601221DE004221BE0082219E0D9
:1037F800102217E002F5E632D2F8882002F00C0217
:103808000C2A0ED8DFE802F0070D0D0D090D0D0D7D
:10381800760D0D0D0B00002204E0042202E00822C0
:1038280000E0102265498B4200F08680E069B0F51F
:10383800004F00F0D580082A00F23581DFE812F049
:1038480003011C01010133011F013301330133015D
:10385800220102F5E432D2F8882002F03002202A50
:103868004AD005D8002A49D0102A49D10422D9E7DC
:10387800302A47D10822D5E702F5E232D2F888206B
:1038880002F0C002802A3FD004D8FAB3402A3FD1C0
:103898000422C7E7C02A3DD10822C3E702F5E03277
:1038A800D2F8882002F44072B2F5007F34D005D8EF
:1038B800A2B3B2F5807F33D10422B3E7B2F5407FDB
:1038C80030D10822AEE702F5C832D2F8882002F4D7
:1038D8004062B2F5006F27D005D83AB3B2F5806FD1
:1038E80026D104229EE7B2F5406F23D1082299E73A
:1038F800022297E7022295E7022293E7002291E746
:1039080010228FE710228DE702228BE7002289E739
:10391800102287E7102285E7022283E7002281E749
:1039280010227FE710227DE702227BE7002279E759
:10393800102277E7102275E7082A00F2A680DFE850
:1039480002F008A410A40DA4A4A405004FF400409C
:1039580008E0FFF7D9F828B90020A5E0FEF78EFFA8
:10396800F9E71C48626A1C4B33F81220B0FBF2F3EB
:10397800656805EB4501994200F28980B3EB053F84
:1039880000F28780002633463146FCF721FC090205
:1039980041EA106100026B08C0182A46334641F11B
:1039A8000001FCF715FCA0F540720C4B9A4272D846
:1039B8002368D860304677E0F369FFCF0080004085
:1039C800003801400044004000480040004C0040DE
:1039D800005000400024F4004C630008FFFC0F0076
:1039E800082A5AD8DFE802F0072705592A595959F1
:1039F8000B00344803E0FFF787F800284FD0626ACD
:103A0800314B33F81230B0FBF3F06268530803EB24
:103A18004003B3FBF2F3A3F110014FF6EF729142AA
:103A28003FD89AB222F00F02C3F34203134322682D
:103A3800D360002038E0FFF779F8DEE7FEF71EFFD5
:103A4800DBE7204802E0FFF75FF8B0B3626A1E4B7D
:103A580033F81230B0FBF3F0636800EB5300B0FBAF
:103A6800F3F0A0F110024FF6EF739A4227D82368BB
:103A780080B2D860002017E0FFF758F8E5E7FEF7B6
:103A8800FDFEE2E74FF40040E0E701200CE00120F2
:103A98000AE0012008E0012006E0012004E00020FF
:103AA80002E0012000E001200123A4F86A30A4F814
:103AB800683000236367A36770BD0020F4E7012026
:103AC800F2E700BF0024F4004C630008836A13F097
:103AD800080F06D00268536823F40043816B0B4338
:103AE8005360836A13F0010F06D00268536823F409
:103AF8000033C16A0B435360836A13F0020F06D088
:103B08000268536823F48033016B0B435360836A64
:103B180013F0040F06D00268536823F48023416B26
:103B28000B435360836A13F0100F06D00268936842
:103B380023F48053C16B0B439360836A13F0200F07
:103B480006D00268936823F40053016C0B4393601A
:103B5800836A13F0400F0AD00268536823F4801375
:103B6800416C0B435360436CB3F5801F0BD0836AE1
:103B780013F0800F06D00268536823F40023C16C49
:103B88000B43536070470268536823F4C003816C89
:103B98000B435360EBE72DE9F84305460E461746FD
:103BA8009946DDF820802B68DC6936EA04040CBFEE
:103BB80001240024BC4236D1B8F1FF3FF3D0FCF712
:103BC80013FEA0EB0900404530D8B8F1000F2FD004
:103BD8002B681A6812F0040FE5D0802EE3D0402E2F
:103BE800E1D0DA6912F0080F11D1DA6912F4006F26
:103BF800D9D04FF400621A622846FFF77BFD2023D4
:103C0800C5F89030002385F8843003200CE00824A0
:103C18001C622846FFF76EFDC5F89040002385F822
:103C28008430012000E00020BDE8F8830320FBE792
:103C38000320F9E730B583B004460023C0F890307C
:103C4800FCF7D2FD05462268126812F0080F10D161
:103C580023681B6813F0040F28D12023C4F8883088
:103C6800C4F88C300020E066206784F8840003B034
:103C780030BD6FF07E430093034600224FF40011DD
:103C88002046FFF788FF0028E2D0226852E8003F6C
:103C980023F0800342E800310029F6D12023C4F83C
:103CA8008830002384F884300320E0E76FF07E43F7
:103CB80000932B4600224FF480012046FFF76BFF4C
:103CC8000028CAD0226852E8003F23F4907342E8E3
:103CD80000310029F6D1226802F1080353E8003FB9
:103CE80023F00103083242E800310029F3D12023F0
:103CF800C4F88C30002384F884300320B7E778B305
:103D080010B50446D0F888300BB32423C4F88830A3
:103D18002268136823F001031360A36AE3B92046FD
:103D2800FFF714FD012811D02268536823F490434B
:103D380053602268936823F02A039360226813680B
:103D480043F0010313602046FFF774FF10BD80F8AD
:103D58008430FDF7EBF9D8E72046FFF7B7FEDEE73A
:103D680001207047002842D070B50E46154604461B
:103D7800D0F8883053B32423C4F8883022681368F5
:103D880023F001031360A36A2BBB2046FFF7DEFC78
:103D980001281AD02268536823F49043536022689C
:103DA800936823F02A039360B5F5006F17D0226853
:103DB800136823F400632B4313602268136843F0ED
:103DC800010313602046FFF735FF70BD80F884308B
:103DD800FDF7ACF9CFE72046FFF778FED5E7226874
:103DE800536823F07F4343EA06635360DFE701200B
:103DF80070470000436E2BB90123A0F86A30A0F881
:103E08006830704730B403689A68C2F342629968B0
:103E1800490F094D6B5CDB00084C615C93FBF1F3C7
:103E2800A0F86A30AB5CDB00A25C93FBF2F3A0F86D
:103E3800683030BC704700BF6C63000864630008DA
:103E480090F88430012B18D0012380F88430242383
:103E5800C0F8883003681A68196821F001011960F0
:103E680022F000520023436601680A602022C0F84D
:103E7800882080F88430184670470220704738B58B
:103E880090F88430012B1DD00446012380F884303B
:103E98002423C0F8883003681D681A6822F00102DC
:103EA8001A600268936823F0604319439160FFF732
:103EB800A1FF23681D602023C4F88830002084F8FF
:103EC800840038BD0220FCE738B590F88430012B17
:103ED8001DD00446012380F884302423C0F888309C
:103EE80003681D681A6822F001021A600268936864
:103EF80023F0606319439160FFF77CFF23681D601E
:103F08002023C4F88830002084F8840038BD0220BB
:103F1800FCE7FEE7FEE7FEE7FEE7FEE770477047CF
:103F2800704708B5FCF754FC08BD000008B5024806
:103F3800FDF730FF08BD00BFA01900200346002090
:103F4800A3F844004BF68072A3F840207047B0F8FD
:103F5800403023F47E535B045B0CA0F84030002013
:103F6800704782B0034602A800E906000122A3F8C0
:103F780040200020A3F84000A3F84400A3F8500014
:103F880002B0704710B5034691F800C030F82C20F5
:103F980092B222F4EC4222F0700292B2C87803285E
:103FA80061D8DFE800F0555C0258002048F2800E26
:103FB80042EA0E0223F82C2091F800C033F82C2096
:103FC80092B222F4E04222F070024CEA020242EA83
:103FD8000E0223F82C200A7B002A40F0DC804A7865
:103FE800002A51D0B3F8502013FA82F20C7802EB71
:103FF800C402B1F806C04FEA5C0C4FEA4C0CA2F8B8
:1040080000C40C7833F8242012F0400F0CD033F899
:10401800242092B222F4E04222F0700242F40042DC
:1040280042F0C00223F82420CA78012A1DD009785A
:1040380033F8212092B222F4E04222F0400282F0CA
:10404800200242F4004242F0800223F82120C3E11A
:1040580042F40072AAE742F4C0620020A6E742F4E4
:1040680080620020A2E70120A0E7097833F8212028
:1040780092B222F4E04222F0400242F4004242F0BE
:10408800800223F82120A7E1B3F8502013FA82F226
:104098000C7802EBC402B1F806C04FEA5C0C4FEA98
:1040A8004C0CA2F804C4B3F8502013FA82F20C782E
:1040B80002EBC402B2F806C4CCF3090CA2F806C499
:1040C8000C6974BBB2F806C46FEA4C4C6FEA5C4CDE
:1040D8001FFA8CFCA2F806C40C7833F8242012F4DA
:1040E800804F0CD033F8242092B222F4E04222F020
:1040F800700242F4404242F0800223F824200978FA
:10410800C9BB33F8212092B222F4804222F0700217
:1041180082F4405242F4004242F0800223F8212007
:104128005AE13E2C12D84FEA540C14F0010F01D07A
:104138000CF1010CB2F80644A4B24FEA8C2C1FFA19
:104148008CFC44EA0C04A2F80644C5E74FEA541C68
:1041580014F01F0F01D10CF1FF3CB2F80644A4B2D1
:104168004FEA8C2C1FFA8CFC44EA0C0444F40044FB
:10417800A2F80644B0E733F8212092B222F4804234
:1041880022F0700282F4005242F4004242F08002AF
:1041980023F8212020E1CA78022A74D091F800C0BF
:1041A80033F82C2092B222F4E24222F0700242F458
:1041B800004242F0800223F82C20B3F8502013FA72
:1041C80082F291F800C002EBCC02B1F808C04FEAC5
:1041D8005C0C4FEA4C0CA2F800C4B3F8502013FA58
:1041E80082F291F800C002EBCC02B1F80AC04FEAA3
:1041F8005C0C4FEA4C0CA2F804C44A78002A40F040
:10420800F7800C7833F8242012F4804F0CD033F860
:10421800242092B222F4E04222F0700242F440429A
:1042280042F0800223F824200C7833F8242012F07E
:10423800400F0CD033F8242092B222F4E04222F04E
:10424800700242F4004242F0C00223F824204A7867
:10425800002A51D1B3F8502013FA82F20C7802EBFD
:10426800C402B2F80244C4F30904A2F802440C6977
:10427800C4B9B2F802446FEA44446FEA5444A4B2A1
:10428800A2F802443AE00C7833F8242092B222F4DF
:10429800E04222F0700242F4014242F0800223F828
:1042A80024208AE73E2C12D84FEA540C14F0010F50
:1042B80001D00CF1010CB2F80244A4B24FEA8C2CE4
:1042C8001FFA8CFC44EA0C04A2F8024416E04FEAF8
:1042D800541C14F01F0F01D10CF1FF3CB2F802443A
:1042E800A4B24FEA8C2C1FFA8CFC44EA0C0444F468
:1042F8000044A2F8024401E0012A1BD04A78002AAF
:104308004DD1B3F8502013FA82F20C7802EBC402B4
:10431800B2F80644C4F30904A2F806440C69A4B927
:10432800B2F806446FEA44446FEA5444A4B2A2F8CF
:10433800064436E0B3F8502013FA82F20C7802EB08
:10434800C4020C8AA2F80244D8E73E2C12D84FEADD
:10435800540C14F0010F01D00CF1010CB2F8064412
:10436800A4B24FEA8C2C1FFA8CFC44EA0C04A2F885
:10437800064416E04FEA541C14F01F0F01D10CF14B
:10438800FF3CB2F80644A4B24FEA8C2C1FFA8CFC0E
:1043980044EA0C0444F40044A2F8064401E0012A6B
:1043A8001BD091F800C033F82C2092B222F480423E
:1043B80022F0700282F4405248F28004224323F82B
:1043C8002C20097833F8212092B222F4E04222F01E
:1043D8004002224323F8212010BDB3F8502013FADD
:1043E80082F20C7802EBC4020C8AA2F80644D8E7E1
:1043F8000C7833F8242012F4804F0CD033F82420A2
:1044080092B222F4E04222F0700242F4404242F0BA
:10441800800223F824200C7833F8242012F0400F6F
:104428000CD033F8242092B222F4E04222F0700239
:1044380042F4004242F0C00223F82420CA78012A3C
:104448001ED00C7833F8242092B222F4E04222F0F5
:10445800400282F0200242F4004242F0800223F837
:104468002420097833F8212092B222F4804222F0E5
:10447800700242F4004242F0800223F82120ABE7A8
:104488000C7833F8242092B222F4E04222F0400261
:1044980042F4004242F0800223F82420E1E70B7B3B
:1044A800002B46D14B7813B30A7830F8223013F03A
:1044B800400F0CD030F822309BB223F4E04323F0B5
:1044C800700343F4004343F0C00320F822300A7815
:1044D80030F822309BB223F4E04323F0400343F446
:1044E800004343F0800320F82230002070470A7808
:1044F80030F8223013F4804F0CD030F822309BB2C1
:1045080023F4E04323F0700343F4404343F0800373
:1045180020F822300A7830F822309BB223F4804306
:1045280023F0700343F4004343F0800320F8223063
:10453800DBE74B78002B4ED10A7830F8223013F4A1
:10454800804F0CD030F822309BB223F4E04323F0A4
:10455800700343F4404343F0800320F822300A7884
:1045680030F8223013F0400F0CD030F822309BB2D4
:1045780023F4E04323F0700343F4004343F0C00303
:1045880020F822300A7830F822309BB223F4E04336
:1045980023F0700343F4004343F0C00320F82230B3
:1045A8000A7830F822309BB223F4804323F070035A
:1045B80048F2800C43EA0C0320F822300A7830F8DD
:1045C80022309BB223F4E04323F0400343EA0C0378
:1045D80020F8223089E70A7830F8223013F4804F27
:1045E8000CD030F822309BB223F4E04323F0700360
:1045F80043F4404343F0800320F822300A7830F82F
:10460800223013F0400F0CD030F822309BB223F444
:10461800E04323F0700343F4004343F0C00320F861
:1046280022300A7830F822309BB223F4E04323F09A
:10463800700343F4404343F0800320F822300A78A3
:1046480030F822309BB223F4E04323F0400348F2D1
:10465800800C43EA0C0320F822300A7830F8223024
:104668009BB223F4804323F0700343EA0C0320F841
:1046780022303AE74B788BB10A7830F822309BB277
:1046880023F4E04323F0400383F0100343F4004392
:1046980043F0800320F82230002070470A7830F871
:1046A80022309BB223F4804323F0700383F48053B9
:1046B80043F4004343F0800320F82230ECE74B78C2
:1046C80033B30A7830F8223013F0400F0CD030F8AA
:1046D80022309BB223F4E04323F0700343F40043F9
:1046E80043F0C00320F82230CB78012B33D00A786E
:1046F80030F822309BB223F4E04323F0400383F0E8
:10470800200343F4004343F0800320F8223022E0E2
:104718000A7830F8223013F4804F0CD030F8223069
:104728009BB223F4E04323F0700343F4404343F087
:10473800800320F822300A7830F822309BB223F424
:10474800804323F0700383F4405343F4004343F061
:10475800800320F822300020704711B98023A0F888
:104768004C3000207047B0F858306FEA43436FEA86
:1047780053439BB2A0F8583000207047B0F844006B
:1047880080B2704701335B08024402F5806208E09A
:10479800087891F801C040EA0C2022F8020B023197
:1047A800013B002BF4D1704770B505460C464B7899
:1047B800012B1AD00B7B002B40F092828B69002BC7
:1047C80040F06582CB78002B40F061820A7830F89F
:1047D80022309BB223F4E04323F0700343F40143F7
:1047E80043F0800320F822305FE28E690A6996421E
:1047F80000D91646217B41B3E178022947D0226AC5
:10480800921B2262227835F8221011F0400F00F036
:10481800F681002B40F0E381B5F8503015FA83F3A8
:1048280003EBC202B2F80634C3F30903A2F8063454
:10483800002E40F0B481B2F806346FEA43436FEAC1
:1048480053439BB2A2F80634D2E1B6B23346E288AB
:1048580061692846FFF796FFB5F8503015FA83F3DB
:10486800227803EBC203A3F80264227835F82230D9
:104878009BB223F4E04323F0400383F0300343F476
:10488800004343F0800325F82230002024E2236A05
:104898009A4280F06681227835F822309BB223F460
:1048A800E04323F0700343F4014343F0800325F809
:1048B8002230236A9B1B2362237835F8232012F0C9
:1048C800400F00F0A7806278B2BBB5F8502015FA07
:1048D80082F202EBC303B3F80624C2F30902A3F879
:1048E80006244EB9B3F806246FEA42426FEA5242F0
:1048F80092B2A3F8062421E03E2E0DD8720816F0D5
:10490800010F00D00132B3F8061489B2920292B2B4
:104918000A43A3F8062411E0710916F01F0F00D10D
:104928000139B3F8062492B2890289B20A4342F4E3
:104938000042A3F8062401E0012A29D0B3B2628913
:1049480061692846FFF71EFF636933446361236A80
:104958002269934226D99B1B23626378002B45D199
:10496800B5F8503015FA83F3227803EBC203B3F895
:104978000224C2F30902A3F80224BEB9B3F8022440
:104988006FEA42426FEA524292B2A3F802242FE041
:10499800B5F8502015FA82F202EBC303B2B2A3F8BD
:1049A8000624CBE7002222621E46D6E73E2E0DD80B
:1049B800720816F0010F00D00132B3F8021489B260
:1049C800920292B20A43A3F8022411E0710916F088
:1049D8001F0F00D10139B3F8022492B2890289B2BB
:1049E8000A4342F40042A3F8022401E0012B06D056
:1049F800B3B2228961692846FFF7C4FE35E7B5F8E6
:104A0800503015FA83F3227803EBC203B2B2A3F84D
:104A18000224EDE76278B2BBB5F8502015FA82F2AD
:104A280002EBC303B3F80224C2F30902A3F8022479
:104A38004EB9B3F802246FEA42426FEA524292B288
:104A4800A3F8022421E03E2E0DD8720816F0010FBB
:104A580000D00132B3F8021489B2920292B20A432A
:104A6800A3F8022411E0710916F01F0F00D10139D3
:104A7800B3F8022492B2890289B20A4342F400428E
:104A8800A3F8022401E0012A29D0B3B2228961697E
:104A98002846FFF777FE636933446361236A226916
:104AA800934226D99B1B23626378002B45D1B5F826
:104AB800503015FA83F3227803EBC203B3F80624C7
:104AC800C2F30902A3F80624BEB9B3F806246FEAB4
:104AD80042426FEA524292B2A3F806242FE0B5F898
:104AE800502015FA82F202EBC303B2B2A3F80224F3
:104AF800CBE7002222621E46D6E73E2E0DD872086A
:104B080016F0010F00D00132B3F8061489B29202F0
:104B180092B20A43A3F8062411E0710916F01F0F98
:104B280000D10139B3F8062492B2890289B20A4346
:104B380042F40042A3F8062401E0012B06D0B3B2E8
:104B4800628961692846FFF71DFE8EE6B5F8503088
:104B580015FA83F3227803EBC203B2B2A3F8062452
:104B6800EDE7217835F8212092B222F4E24222F0D2
:104B7800700242F4004242F0800225F82120B5F884
:104B8800502015FA82F2217802EBC1029BB2A2F8FA
:104B98000234228961692846FFF7F4FD65E63E2E56
:104BA8000DD8730816F0010F00D00133B2F80614BF
:104BB80089B29B029BB20B43A2F8063418E0710934
:104BC80016F01F0F00D10139B2F806349BB28902E2
:104BD80089B20B4343F40043A2F8063408E0B5F861
:104BE800503015FA83F303EBC203B2B2A3F80624DC
:104BF800B3B2628961692846FFF7C4FD35E6B3BBE5
:104C0800B5F8503015FA83F303EBC202B2F8023458
:104C1800C3F30903A2F802344EB9B2F802346FEABA
:104C280043436FEA53439BB2A2F8023428E03E2E76
:104C38000DD8730816F0010F00D00133B2F8021432
:104C480089B29B029BB20B43A2F8023418E07109A7
:104C580016F01F0F00D10139B2F802349BB2890255
:104C680089B20B4343F40043A2F8023408E0B5F8D4
:104C7800503015FA83F303EBC203B2B2A3F802244F
:104C8800B3B2228961692846FFF77CFDEDE52278F9
:104C980035F822309BB223F4E24323F0700343F447
:104CA800004343F0800325F82230A3692269934228
:104CB80013D99B1AA361227835F822309BB223F4CA
:104CC800804323F0700383F4405343F4004343F0DC
:104CD800800325F82230002070BD0023A361EAE795
:104CE800CB78022B04D0012B21D100238B61E2E782
:104CF800CB69002BDFD00A7830F8223099B213F450
:104D0800804F10D011F0400FD5D035F822309BB22B
:104D180023F4E04323F0700343F4004343F0C0035B
:104D280025F82230C7E711F0400FC4D1EDE7012084
:104D3800D2E710B45C08024402F5806207E032F85A
:104D4800020B0870C0F3072048700231013C002CA8
:104D5800F5D113F0010F01D013880B705DF8044BE7
:104D680070470000034AD2F8883043F47003C2F851
:104D78008830704700ED00E008B500220F49104860
:104D880000F061FB70B90F490D4800F073FB60B982
:104D98000D490B4800F094F950B9094800F081FB1F
:104DA80048B908BDFBF7F0FAEDE7FBF7EDFAEFE7D6
:104DB800FBF7EAFAF1E7FBF7E7FAF2E77C010020F4
:104DC800B0040020F00000203401002010B5D0F815
:104DD800BC4284B1D0F8C0327BB194F80002FF28FD
:104DE8000DD09B6894F8012221469847FF2384F848
:104DF8000032002010BD0320FCE70020FAE7002065
:104E0800F8E700004323038000487047680000204B
:104E18004323038000487047AC00002043230380ED
:104E280000487047240000200A2303800048704788
:104E38002801002038B5D0F8BC5275B1044600F0FE
:104E4800D4FAC5F80C02D4F8C032DB6805F5037152
:104E5800D5F804029847002038BD0320FCE710B5B8
:104E6800D0F8C442D0F8BC3253B301EB810200EB56
:104E7800820292694AB101EB810C04EBCC04246AEA
:104E8800B2FBF4FC04FB1C2272B10022C3F814220A
:104E9800D0F8C0221469ACB10A4603F50471D3F8FE
:104EA8000802A047002010BD01EB810300EB83033B
:104EB80000249C612346224600F087FA2046F2E748
:104EC8000320F0E70020EEE7F0B583B0D0F8BC622D
:104ED80000238DF80730ADF80430002E69D007465E
:104EE8000C460B7813F060052AD0202D5BD1CA88B8
:104EF800F2B113F0800F0FD0D0F8C0329B68314662
:104F080060789847E288072A28BF07223146384642
:104F180000F0F8FF002549E04B7886F800328B79DD
:104F280086F80132CA88314601F001F800253DE0D3
:104F3800D0F8C0329B68002248789847002535E0B1
:104F48004E780B2E2BD8DFE806F006312A2A2A2ABB
:104F58002A2A2A2A142290F89C32032B03D000F024
:104F6800F9FB032522E0022201A900F0CBFF354618
:104F78001CE090F89C32032B03D000F0EBFB0325D8
:104F880014E001220DF1070100F0BCFF0EE090F8DB
:104F98009C32032B0AD000F0DDFB032506E000F06D
:104FA800D9FB032502E000F0D5FB0325284603B012
:104FB800F0BD0325FAE738B50446812100F0CFF9A2
:104FC800002525870121204600F0C9F9A4F8785169
:104FD8008221204600F0C3F9A4F84C50A4F84E50A2
:104FE800D4F8BC324BB1D4F8C0325B689847D4F8D7
:104FF800BC0200F027FAC4F8BC52002038BD70B5D6
:1050080004464FF4077000F019FAB8B30646C4F81E
:10501800BC02237CBBBB4FF40073022281212046D3
:1050280000F092F9012525874FF4007302222946E2
:10503800204600F089F9A4F878511023A4F84E30DE
:10504800082303228221204600F07EF90123A4F8D8
:105058004C30D4F8C0321B6898470023C6F8143285
:10506800C6F81832257C15BB4FF40073D6F8042215
:105078000121204600F0B1F9284670BD0023C4F88C
:10508800BC320225F8E7402302228121204600F0A5
:105098005BF901252587402302222946204600F096
:1050A80053F9A4F878511023A4F84E30C8E74023E8
:1050B800D6F804220121204600F08FF90025DBE70D
:1050C80019B1C0F8C0120020704703207047D0F80B
:1050D800BC322BB1C3F80812C3F810220020704765
:1050E80003207047D0F8BC321BB1C3F8041200206B
:1050F80070470320704710B5D0F8BC2292B1047CE9
:1051080044B94FF40073D2F80422012100F065F984
:10511800204610BD4023D2F80422012100F05DF999
:105128000024F5E70324F3E70020704700207047C8
:105138000020704710B50146044C2046FFF7D2FF07
:105148002046FFF7D8FF002010BD00BFB0040020A4
:1051580010B5064C002206492046FFF7B8FF05495E
:105168002046FFF7BFFF002010BD00BFB00400209D
:1051780080070020800F0020032805D8DFE800F012
:1051880005040205012070470320704708B5FBF7A6
:105198008DFA08BD10B596B004465422002101A826
:1051A80000F01BFF2268124B9A4201D016B010BDC6
:1051B8004FF4005301934FF00063109301A8FDF7DB
:1051C800C7FC90B90B4B9A6D42F400029A659B6D2F
:1051D80003F400030093009B002211461420FBF700
:1051E8005DFB1420FBF76AFBE0E7FBF7CDF8E9E786
:1051F800005C00400010024008B500F52671D0F8A8
:10520800D80200F063F908BD08B501EB810300EB93
:10521800C303D3F86421D0F8D80200F083F908BD9D
:1052280008B501EB810300EBC3035A6AD0F8D80232
:1052380000F0B2F908BD08B5D0F8D80200F04FFA6E
:1052480008BD10B504464379022B09D10121D4F8D1
:10525800D80200F02BFAD4F8D80200F0FAF910BD01
:10526800FBF792F8F2E7000010B50446D0F8D80230
:1052780000F01FFA637A23B1024A136943F0060368
:10528800136110BD00ED00E010B50446437A23B960
:10529800D4F8D80200F017FA10BD044A136923F0B5
:1052A80006031361FFF772FFF2E700BF00ED00E0AD
:1052B80010B504461E48C0F8D842C4F8C4021D4BB5
:1052C80003600823037102234371C371002303722F
:1052D80043728372C372FCF73FF830BB1823002275
:1052E8001146D4F8C402FCF76BFF58230022802132
:1052F800D4F8C402FCF764FFC02300228121D4F84B
:10530800C402FCF75DFF4FF4887300220121D4F832
:10531800C402FCF755FF4FF4807300228221D4F8B1
:10532800C402FCF74DFF002010BDFBF72DF8D5E7B0
:10533800A0190020005C004008B5D0F8C402FCF7B2
:1053480066F8FFF719FF08BD08B594461A46634684
:10535800D0F8C402FCF7F7FDFFF70EFF08BD08B54B
:10536800D0F8C402FCF732FEFFF706FF08BD08B507
:10537800D0F8C402FCF7ACFEFFF7FEFE08BD08B586
:10538800D0F8C402FCF7DDFEFFF7F6FE08BDD0F842
:10539800C43211F0800F08D101F07F0101EB8101C7
:1053A80003EBC10393F85201704701F07F0101EB51
:1053B800810103EBC103987C704708B5D0F8C4029B
:1053C800FCF7D5FCFFF7D8FE08BD08B5D0F8C40235
:1053D800FCF758FEFFF7D0FE08BD08B5D0F8C402A8
:1053E800FCF72AFEFFF7C8FE08BD08B5D0F8C402CE
:1053F800FCF73FFE08BD000010B5044669B101295D
:1054080011D1D0F8D80200F054F9637A5BB10A4A96
:10541800136943F00603136105E0437A23B9D4F80E
:10542800D80200F050F910BDFFF7B0FE024A136928
:1054380023F006031361F2E700ED00E0004870472F
:1054480080170020704798B108B503460020C3F8BC
:10545800B802C3F8C002C3F8CC0209B1C3F8B41249
:10546800012183F89C121A701846FFF721FF08BD26
:105478000320704710B582B00023ADF8063061B143
:105488000446C0F8B812CB6A4BB10DF10600984734
:10549800C4F8CC02002002B010BD0320FBE70020B6
:1054A800F9E708B5FFF748FF08BD08B5D0F8B832E6
:1054B80013B11B68984708BD0320FCE708B5D0F86E
:1054C800B8320BB15B689847002008BD38B5044670
:1054D80000F2AA25284600F029F90123C4F89432DD
:1054E800B4F8B032C4F8983294F8AA1201F01F0345
:1054F800012B07D0022B0AD073B92946204600F0A9
:10550800E4FA38BD2946204600F017FBF9E729469A
:10551800204600F046FBF4E701F080012046FFF743
:1055280026FFEEE738B504460D4639BB1346D0F8DA
:105538009422032A01D0084638BDD0F85C11D0F86F
:105548006021914208D890F89C32032B0FD0204656
:1055580000F004FD2846EFE7891AC0F85C118A427A
:1055680028BF0A46194600F0F1FC2846E4E7D0F8BF
:10557800B8321B69002BEAD09847E8E790F89C32CC
:10558800032B01D00020D7E7D0F8B8329B690BB1C4
:105598009847D1E70020CFE738B504460D460029E3
:1055A80049D11346D0F89422022A05D094F8A032A3
:1055B800012B3BD0284638BDC269016A8A420DD802
:1055C8008A4217D094F89C32032B27D0802120469A
:1055D800FFF7CDFE204600F0CCFCE7E7521AC26187
:1055E800194600F09CFC00231A4619462046FFF78E
:1055F800F4FEDBE783699942E4D8D0F89822934215
:10560800E0D20022114600F08AFC0021C4F898126A
:105618000B460A462046FFF7E0FEC7E7D4F8B83243
:10562800DB68002BD2D020469847CFE7002384F8C8
:10563800A0322846BFE790F89C32032B01D0002007
:10564800B9E7D0F8B8325B690BB19847B3E70020E7
:10565800B1E7012380F89C320023C0F894324360FC
:10566800C0F8A432D0F8B832F3B170B50446D0F817
:10567800BC221AB15B680BB1002198474023002275
:1056880011462046FFF760FE0126A4F86461402514
:10569800C4F860512B46002280212046FFF754FEB3
:1056A800A6842562002070BD032070470174002085
:1056B800704790F89C32DBB280F89D32042380F862
:1056C8009C320020704790F89C32042B01D00020B7
:1056D800704790F89D32DBB280F89C32F7E708B546
:1056E800D0F8B83253B190F89C22032A01D0002098
:1056F80008BDDB6923B198470020F9E70320F7E7E5
:105708000020F5E70346002002E00130C0B2013373
:105718001A78002AF9D1704708B54B88012B00D0B8
:1057280008BDC0F8A43200F019FCF9E70B78037043
:105738004B7843708B78CA7843EA022343800B790D
:105748004A7943EA022383808B79CA7943EA0223A0
:10575800C380704710B504468021FFF708FE00217A
:105768002046FFF704FE10BD30B583B005460C4651
:105778000023ADF806304A88130A013B0E2B00F2CD
:10578800BB80DFE803F0152F43B9B99DAAB9B9B9B1
:10579800B9B9B9B90800D0F8B432DB6923B10DF151
:1057A8000601007C98470AE02146FFF7D3FFA6E0F0
:1057B800D0F8B4321B680DF10601007C9847E288E6
:1057C800002A00F0A380BDF80630002B00F0998075
:1057D8009A4228BF1A46ADF806200146284600F02E
:1057E80091FB8CE0037C43B9D0F8B8329B6A0DF189
:1057F8000600984702234370E1E7D0F8B832DB6A25
:105808000DF10600984702234370D8E7D2B2052A63
:1058180052D8DFE802F003101D2A3744D0F8B4321A
:105828005B6823B10DF10601007C9847C7E7214664
:10583800FFF790FF63E0D0F8B4329B6823B10DF115
:105848000601007C9847BAE72146FFF783FF56E038
:10585800D0F8B432DB6823B10DF10601007C98471B
:10586800ADE72146FFF776FF49E0D0F8B4321B696F
:1058780023B10DF10601007C9847A0E72146FFF708
:1058880069FF3CE0D0F8B4325B6923B10DF1060141
:10589800007C984793E72146FFF75CFF2FE0D0F89C
:1058A800B4329B6923B10DF10601007C984786E765
:1058B8002146FFF74FFF22E02146FFF74BFF1EE08E
:1058C800037C33B9D0F8B8325B6B0DF1060098470A
:1058D80075E72146FFF73EFF11E0037C43B9D0F896
:1058E800B8321B6B0DF1060098470723437066E733
:1058F8002146FFF72FFF02E02146FFF72BFF03B0F9
:1059080030BD21462846FFF725FFF8E7284600F076
:1059180025FBF4E738B504468B88F3B9CB88E3B99F
:105928004B887F2B19D803F07F0590F89C32032B06
:105938000CD080F89E522946FFF73FFD204600F024
:105948000DFB35B1022384F89C3209E0FFF702FF12
:1059580006E0012384F89C3202E02046FFF7FAFEB5
:1059680038BD000070B504460E468D782E4B1D706C
:10597800012D10D890F89C32DAB2022B0FD0032AEE
:1059880023D0FFF7E7FE284B19782046FFF796FD4E
:105998000325284670BDFFF7DDFE0325F9E78DB125
:1059A80045602946FFF781FD054620B1314620466E
:1059B800FFF7D0FEEDE7204600F0D0FA032384F885
:1059C8009C32E6E700F0CAFAE3E7CDB141688D42C0
:1059D80025D0C9B2FFF772FD134B197861602046D4
:1059E800FFF763FD0546B0B131462046FFF7B2FE2A
:1059F80021792046FFF762FD022384F89C32C8E72C
:105A0800022380F89C3245602946FFF757FD20465F
:105A180000F0A4FABDE7204600F0A0FAB9E700F0CC
:105A28009DFA0025B5E700BF7C1C002008B5CB888F
:105A3800012B0BD190F89C32DAB2022B09D9032A38
:105A480011D10122011D00F05DFA01E0FFF782FE8D
:105A580008BD52B23AB10146002341F8083F01227D
:105A680000F050FAF4E7FFF775FEF1E708B590F893
:105A78009C32013B022B12D8CB88022B0CD101237C
:105A8800C360D0F8A4320BB10323C360022200F133
:105A98000C0100F037FA08BDFFF75CFEFBE7FFF7E3
:105AA80059FEF8E708B590F89C32013B022B09D85B
:105AB8004B88012B00D008BD0023C0F8A43200F0A9
:105AC8004DFAF8E7FFF746FEF5E738B50C7804F02D
